:020000040800F2
:10000000B81E0020A1010008A9010008AB010008EA
:10001000AD010008AF010008B101000800000000B8
:10002000000000000000000000000000B301000814
:10003000B501000800000000B7010008B901000880
:10004000BB010008BB010008BB010008BB010008A0
:10005000BB010008BB010008BB010008BB01000890
:10006000BB010008BB010008BB010008BB01000880
:10007000BB010008BB010008BB010008BB01000870
:10008000BB010008BB010008BB010008F103000828
:10009000C1030008BB010008BB010008BB01000848
:1000A000BB010008BB010008BB010008BB01000840
:1000B000BB01000845260008BB010008BB01000881
:1000C000BB010008BB010008BB010008BB01000820
:1000D000BB010008292A00087D2B0008BB0100088D
:1000E000BB010008BB010008BB010008BB01000800
:1000F000BB010008BB010008BB010008BB010008F0
:10010000BB010008BB01000831270008BB01000843
:100110002929000889290008BB010008BB01000843
:10012000BB010008BB010008BB010008BB010008BF
:10013000BB010008BB010008BB0100087D050008E9
:1001400049050008BB010008BB010008BB0100080D
:10015000BB010008BB010008BB010008652E0008B8
:10016000BB010008BB010008BB010008BB0100087F
:10017000BB010008BB010008BB010008BB0100086F
:10018000BB010008BB010008DFF810D000F03EF80A
:1001900000480047C5320008AFF30080B81E0020B9
:1001A0000648804706480047FEE7FEE7FEE7FEE711
:1001B000FEE7FEE7FEE7FEE7FEE7FEE7752500083F
:1001C0008901000840EA01039B0703D009E008C940
:1001D000121F08C0042AFAD203E011F8013B00F80C
:1001E000013B521EF9D27047D2B201E000F8012B58
:1001F000491EFBD270470022F6E710B513460A46A7
:1002000004461946FFF7F0FF204610BD064C074D87
:1002100006E0E06840F0010394E8070098471034D6
:10022000AC42F6D3FFF7B4FFA43A0008C43A000882
:1002300070B58C1810F8015B15F0070301D110F8A8
:10024000013B2A1106D110F8012B03E010F8016BD5
:1002500001F8016B5B1EF9D12B0705D40023521E58
:100260000DD401F8013BFAE710F8013BCB1A921CC0
:1002700003E013F8015B01F8015B521EF9D5A142BE
:10028000D8D3002070BD000000B58BB00121084616
:1002900001F020FF09220B21474801F0DFF8092275
:1002A0000C21454801F0DAF84FF400600990022073
:1002B0008DF828008DF8290000208DF82A000120F3
:1002C0008DF82B0009A93C4801F080F84FF48050CC
:1002D000099002208DF8280009A9374801F076F826
:1002E00014208DF8200005208DF8210000208DF8C5
:1002F000220001208DF8230008A801F01BFC132028
:100300008DF81C0004208DF81D0000208DF81E00C3
:1003100001208DF81F0007A801F00CFC0121480600
:1003200001F0E8FE254800F08BF904A800F0C3FBBB
:1003300000208DF816008DF817008DF818000120A8
:100340008DF8190000208DF81A008DF81B008DF82B
:1003500012008DF8130008208DF8140003208DF88A
:100360001500ADF8100004A9144800F0A2FA00200E
:100370008DF80A008DF80B0001208DF80C0000208C
:10038000ADF80000ADF80200ADF80400ADF80600CD
:10039000ADF8080001208DF80D00684600F06CF9FA
:1003A00001220221054800F07BFA01221146034890
:1003B00000F076FA0BB000BD00000240006400407F
:1003C00010B50221084800F0DBF960B102210648AF
:1003D00000F0E2F8054A0021034800F0F4FA01F0C9
:1003E0001FFA01F0B9F810BD00640040F4060020C7
:1003F00010B50121044800F0C3F918B101210248E9
:1004000000F0CAF810BD00000064004000B58BB0D9
:100410000121022001F05EFE09220C21484801F072
:100420001DF809220D21464801F018F84FF400503C
:10043000099002208DF828008DF8290000208DF801
:100440002A0001208DF82B0009A93D4800F0BEFFCD
:100450004FF48050099002208DF8280009A93848EF
:1004600000F0B4FF40208DF8200005208DF8210019
:1004700000208DF8220001208DF8230008A801F04B
:1004800059FB3F208DF81C0004208DF81D00002032
:100490008DF81E0001208DF81F0007A801F04AFB0F
:1004A00001214FF0C06001F025FE264800F0C8F899
:1004B00004A800F000FB00208DF8160001208DF844
:1004C00017008DF8180000208DF819008DF81A001B
:1004D0008DF81B008DF812008DF8130008208DF8A0
:1004E000140003208DF81500ADF8100004A915487C
:1004F00000F0DFF90E208DF80A0000208DF80B00C7
:1005000001208DF80C000020ADF80000ADF80200CD
:10051000ADF80400ADF80600ADF8080001208DF834
:100520000D00684600F0A8F801220221054800F0FD
:10053000B7F901221146034800F0B2F90BB000BD33
:10054000000402400068004010B50221094800F094
:1005500017F970B10221074800F01EF8064A002181
:10056000044800F030FA00F0C9FF00F057FE00F038
:1005700065FD10BD006800400807002010B501218E
:10058000044800F0FDF818B10121024800F004F819
:1005900010BD000000680040B1F5007F3AD00FDCCC
:1005A000202928D006DC01291CD004291DD00829C7
:1005B00040D11DE0402921D0B1F5807F3AD126E01D
:1005C000B1F5004F31D006DCB1F5806F25D0B1F523
:1005D000006F2FD124E0B1F5803F12D0B1F5003F7C
:1005E00028D111E0154A826025E00822C26022E08D
:1005F0001022C2601FE0082202611CE0102202618A
:1006000019E00822426016E01022426013E0042242
:10061000426010E0042242600DE0042242600AE0E1
:10062000002282610422426005E0002282610422ED
:10063000426000E000BF00BF704700000101010000
:1006400010B504460B48844209D10121480601F047
:1006500061FD00214FF0007001F05CFD08E0012118
:10066000880601F057FD00214FF0806001F052FD37
:1006700010BD00000064004010B50021837A012203
:1006800002FA03F13D4A126842F001023B4B1A6044
:100690003A4A1C3212688A43384B1C331A60027B78
:1006A000CAB9364A0C3212688A43344B0C331A608A
:1006B0004288C38842EA0343304A4032847A42F88F
:1006C00034300288838842EA03432C4A4032847AD9
:1006D00002EBC4025360027B012A19D1274A0C3273
:1006E00012680A43254B0C331A604288038842EA99
:1006F0000343224A4032847A42F83430C2888388E5
:1007000042EA03431D4A4032847A02EBC40253603A
:10071000C27A3AB9194A121D12688A43174B1B1D37
:100720001A6006E0154A121D12680A43134B1B1D7E
:100730001A60028932B9114A143212688A430F4B87
:1007400014331A600289012A06D10C4A1432126845
:100750000A430A4B14331A60427B012A06D1074A26
:100760001C3212680A43054B1C331A60034A126894
:1007700022F00102014B1A6010BD0000006600402B
:1007800070B504460D46002660692840002871D0E7
:10079000B5F5807F5CD010DC082D35D006DC012D4E
:1007A00020D0022D24D0042D72D127E0102D31D07D
:1007B000202D35D0402D6BD138E0B5F5004F60D0FD
:1007C00009DCB5F5007F49D0B5F5806F4CD0B5F5A3
:1007D000006F5DD14FE0B5F5803F2DD0B5F5003FFE
:1007E00056D12FE0A0682D4900F00EFA064651E0E0
:1007F000E068032100F008FA06464BE0E0680821B3
:1008000000F002FA064645E0E068102100F0FCF92D
:1008100006463FE02069032100F0F6F9064639E07C
:100820002069082100F0F0F9064633E02069102124
:1008300000F0EAF906462DE06068082100F0E4F9CE
:10084000064627E06068102100F0DEF9064621E048
:10085000A069012100F0D8F906461BE0A069022139
:1008600000F0D2F9064615E0A069042100F0CCF9A9
:1008700006460FE00FE0A069702100F0C5F90646BA
:1008800008E06068042100F0BFF9064602E0FFE7D7
:10089000002600BF00E00026304670BD01010100C7
:1008A0001AB143690B43436102E043698B434361DF
:1008B000704730B5024600200023146824F002047B
:1008C0001460146844F00104146000E05B1C546878
:1008D00004F001041CB94FF6FF74A342F6D154682A
:1008E00004F001040CB900206CE08C79012C04D1D7
:1008F000146844F08004146003E0146824F0800459
:100900001460CC79012C04D1146844F040041460C4
:1009100003E0146824F0400414600C7A012C04D124
:10092000146844F02004146003E0146824F02004E8
:1009300014604C7A012C04D1146844F01004146043
:1009400003E0146824F0100414608C7A012C04D1A4
:10095000146844F00804146003E0146824F00804E8
:100960001460CC7A012C04D1146844F0040414609F
:1009700003E0146824F0040414608C78A407CD7894
:1009800044EA05640D7944EA05444D7944EA055486
:100990000D886D1E2C43D461146824F0010414608A
:1009A000002300E05B1C546804F001041CB14FF606
:1009B000FF74A342F6D1546804F001040CB1002086
:1009C00000E0012030BD10B500F5D87303EB011332
:1009D0001B6803F004031372137A53B900F5D8733C
:1009E00003EB01131B6840F2FF7404EA53531360D6
:1009F00009E000F5D87303EB01131B686FF0604446
:100A000004EAD303536000F5D87303EB01131B68AA
:100A100003F00203537200F5D87303EB01135B6814
:100A200003F00F03937200F5D87303EB01135B68B7
:100A30001B0AD37400F5D87303EB01139B68D372C0
:100A400000F5D87303EB01139B681C0A147300F5BF
:100A5000D87303EB01139B681C0C547300F5D87317
:100A600003EB01139B681B0E937300F5D87303EB24
:100A70000113DB68D37300F5D87303EB0113DB6854
:100A80001C0A147400F5D87303EB0113DB681C0C0B
:100A9000547400F5D87303EB0113DB681B0E9374D9
:100AA00021B9C36843F02003C36003E0036943F046
:100AB0002003036110BD00218171C1710172417277
:100AC0008172C1728170C170032101710221417173
:100AD00001210180704710B502460020936803F0A1
:100AE0008063B3F1806F00D110E0936803F000637E
:100AF000B3F1006F01D1012008E0936803F0805347
:100B0000B3F1805F01D1022000E00420042874D0FA
:100B100002F5C07303EB00131B6803F0010402F538
:100B2000C07303EB00131C600B7A7BB94B7A0C8803
:100B300043EA445302F5C07404EB001424682343D1
:100B400002F5C07404EB0014236010E00B7A4C68CB
:100B500043EAC4034C7A234302F5C07404EB001447
:100B60002468234302F5C07404EB001423608B7ADD
:100B700003F00F038B7202F5C07303EB00135B6885
:100B800023F00F0402F5C07303EB00135C6002F561
:100B9000C07303EB00135B688C7A234302F5C074C7
:100BA00004EB001463608B7B1C064B7B44EA03441C
:100BB0000B7B44EA0323CC7A234302F5C07404EB95
:100BC0000014A3608B7C1C064B7C44EA03440B7C22
:100BD00044EA0323CC7B234302F5C07404EB0014E6
:100BE000E36002F5C07303EB00131B6843F00104DC
:100BF00002F5C07303EB00131C6010BD10B501219A
:100C0000080301F067FA10BD0246002002EA010362
:100C10000BB1012000E00020704700000246094BA4
:100C20009A4201D2084801E00648103801F000530A
:100C30001BB1064B0B40C36002E0044B0B408360CA
:100C40007047000010640240006002407D0F7D0F7D
:100C500021B1026842F00102026003E0026822F062
:100C60000102026070470000016821F0010101608B
:100C70000021016041608160C16001612121416109
:100C80004A49884204D13D21484A103A91608CE09B
:100C900046491831884205D14FF47461434A103AED
:100CA000916082E041493031884205D14FF474119E
:100CB0003E4A103A916078E03C494831884205D17B
:100CC0004FF07461394A103A91606EE037496031F3
:100CD000884204D13649354A103AD16065E033493B
:100CE0007831884204D13349304A103AD1605CE00F
:100CF0002E499031884204D12F492C4A103AD160B4
:100D000053E02A49A831884205D14FF03D51274A86
:100D1000103AD16049E02949884204D13D21274A4F
:100D2000083A116041E025491831884205D14FF455
:100D30007461224A083A116037E020493031884214
:100D400005D14FF474111D4A083A11602DE01B497A
:100D50004831884205D14FF07461184A083A116051
:100D600023E016496031884204D11149134A121F09
:100D700011601AE011497831884204D10D490F4AB7
:100D8000121F116011E00D499031884204D10A49C7
:100D90000A4A121F116008E00849A831884204D1AC
:100DA0004FF03D51054A121F11607047106002401C
:100DB0003D000020400F002000003D201064024054
:100DC00021B1026842F48022026003E0026822F44A
:100DD00080220260704722B1036843F4002303605D
:100DE00003E0036823F400230360016170470146B8
:100DF000486880B27047014600200A6802F4002269
:100E00000AB1012000E000207047000010B5002268
:100E10000268134B1A40CC680B6823434C69234388
:100E20008C692343CC6923430C6A23434C6A2343D4
:100E30008C6A23434C6B23438C6B23431A4302601D
:100E4000426922F00702D1E90B3423431A4342617D
:100E50000B6943604B6883608B68C36010BD000002
:100E60003F801CF041607047734890F84A000A28A0
:100E700071DA01207049A1F8B00002216E48A0F893
:100E8000B2100321A0F8B4100421A0F8B610052177
:100E9000A0F8B8100621A0F8BA100721A0F8BC10DD
:100EA00040F20111A0F8BE10491CA0F8C010491C66
:100EB000A0F8C210491CA0F8C410491CA0F8C61024
:100EC000491CA0F8C81090F84A00012806D15A48D9
:100ED000B0F8BE005849A1F8CC00ACE0564890F8F4
:100EE0004A00022806D15448B0F8C0005249A1F87F
:100EF000CC00A0E0504890F84A00032806D14E48A4
:100F0000B0F8C2004C49A1F8CC0094E04A4890F8EF
:100F10004A00042806D14848B0F8C4004649A1F860
:100F2000CC0088E0444890F84A00052806D14248A1
:100F3000B0F8C6004049A1F8CC007CE03E4890F8EB
:100F40004A00062877D13C48B0F8C8003A49A1F8D1
:100F5000CC0070E0FFE765203749A1F8B0006621BA
:100F60003548A0F8B2106721A0F8B4106821A0F8A5
:100F7000B6106921A0F8B8106A21A0F8BA106B2148
:100F8000A0F8BC1040F26511A0F8BE10491CA0F8F2
:100F9000C010491CA0F8C210491CA0F8C410491C7C
:100FA000A0F8C610491CA0F8C81090F84A0065289F
:100FB00006D12148B0F8BE001F49A1F8CC003AE0A4
:100FC0001D4890F84A00662806D11B48B0F8C000BA
:100FD0001949A1F8CC002EE0174890F84A0067287C
:100FE00006D11548B0F8C2001349A1F8CC0022E0A0
:100FF000114890F84A00682806D10F48B0F8C4009C
:101000000D49A1F8CC0016E00B4890F84A00692879
:1010100006D10948B0F8C6000749A1F8CC000AE09B
:10102000054890F84A006A2805D10348B0F8C8007E
:101030000149A1F8CC007047C4070020224800688D
:1010400040F20721884233D11F48007B1E49C97AEC
:1010500040EA01201D4908801B48817B407B41EA12
:10106000002000B200EE100AB8EEC00A174880ED6A
:10107000010A1548017CC07B41EA002000B21349F7
:1010800008811148407C40B288720846008800EE12
:10109000100AB8EE400ADFED0E0A80EE201A9FED2E
:1010A0000D0A21EE000ABCEEC00A10EE100AC8724A
:1010B000064890ED010A084880ED020A9FED070AF4
:1010C00080ED050A7047000008070020E0050020B9
:1010D000000000460000B4430C0600200080BB4422
:1010E00000EB800101EB4011484A02EB810181EDE8
:1010F000010A00EB800101EB401102EB8101C1ED1F
:10110000020A00EB800101EB401102EB810181ED4D
:10111000031A9FED3F3A00EB800101EB401102EB17
:10112000810181ED0D3A9FED3B3A00EB800101EB2F
:10113000401102EB810181ED0E3A9FED373A00EB51
:10114000800101EB401102EB810181ED0F3A9FED2F
:10115000323A00EB800101EB401102EB810181ED9D
:10116000103A002100EB800202EB4012274B03EB08
:10117000820282F8441000EB800101EB40111A4614
:1011800002EB8101C1ED131A00EB800101EB40116C
:1011900002EB810181ED142A00EB800101EB40118B
:1011A00002EB8101C1ED152A9FED193A00EB800198
:1011B00001EB401102EB810181ED1F3A9FED153AE1
:1011C00000EB800101EB401102EB810181ED203A3F
:1011D0009FED113A00EB800101EB401102EB810120
:1011E00081ED213A9FED0C3A00EB800101EB4011BB
:1011F00002EB810181ED223A012200EB800101EB3B
:10120000401103EB810181F88C20704770040020AD
:1012100000C0DA4600409C460000000045480068D7
:1012200040F20121884233D14248007B4149C97ACA
:1012300040EA0120404908803E48817B407B41EAEA
:10124000002000B200EE100AB8EEC00A3A4880ED65
:10125000010A3848017CC07B41EA002000B23649CF
:1012600008813448407C40B288720846008800EE0D
:10127000100AB8EE400A9FED311AC0EE010A9FED48
:10128000300A20EE800ABCEEC00A10EE100AC872C6
:101290002848006840F20221884235D12548007B69
:1012A0002449C97A40EA0120234988812148817B69
:1012B000407B41EA002000B200EE100AB8EEC00AFE
:1012C0001D4880ED040A1B48017CC07B41EA0020D8
:1012D00001B2194881821748407C41B21648817595
:1012E000808900EE100AB8EE400A9FED141AC0EE95
:1012F000010A9FED130A20EE800ABCEEC00A10EE30
:10130000100AC1B20C48C1750B4890ED010A0D4896
:1013100080ED000A084890ED040A0A4880ED010AB1
:101320009FED090A80ED030A9FED080A80ED040A8B
:101330007047000008070020C80500200000004694
:101340000000B4430C0600200080BBC50080BB45F4
:10135000028942811C4A127B1B4BDB7A42EA032240
:101360000281194A937B527B43EA022212B24280E5
:1013700042880280144A137CD27B43EA022212B2D2
:101380006FF0040392FBF3F212B282800E4A527C99
:10139000827102894389D21AB2F5805F03DD026946
:1013A000521E026108E002894389D21A12F5805F59
:1013B00002DA0269521C02610389026903EB4232BC
:1013C0008389D21A42617047F4060020F0B50A46BC
:1013D00000210023002400BF3DE0012505FA01F3B0
:1013E000156805EA03049C4234D105684F000326C2
:1013F000BE40B543056015794E00B54006683543DB
:1014000005601579012D02D01579022D16D1856858
:101410004F000326BE40B543856055794E00B54068
:10142000866835438560456801268E40B543456032
:10143000456896798E40B6B235434560C5684F0021
:101440000326BE40B543C560D5794E00B540C66899
:101450003543C560491C1029BFD3F0BDF0B500234A
:1014600000244D07ED0E02FA05F3CE1000F1200521
:1014700055F826504E07F70E0F26BE40B543CF1045
:1014800000F1200646F82750CE1000F1200555F84F
:10149000265045EA0304CE1000F1200545F8264009
:1014A000F0BD000030B5034613B94FF6FF7030BDF4
:1014B00009E013F8014B82EA0400C0B2054D35F88B
:1014C000100080EA2222081EA1F10101F1D110468C
:1014D000EDE70000A238000830B5034605E013F838
:1014E000010B80EA02040448025D081EA1F101011B
:1014F000F5D1104630BD0000A1370008144800683F
:1015000040F20621884221D11148007B1049C97A56
:1015100040EA01200F4908820D48817B407B41EA67
:10152000002000B200EE100AB8EEC00A094880EDB3
:10153000050A0748017CC07B41EA002001B205484A
:1015400001830348407C41B2024881767047000025
:1015500008070020240600201C48006840F20521EE
:10156000884231D11948007B1849C97A40EA0120E4
:10157000174908801548817B407B41EA002000B272
:1015800000EE100AB8EEC00A114880ED010A0F48BB
:10159000017CC07B41EA002000B20D4908810B4864
:1015A000407C40B288720846008800EE100AF8EECF
:1015B000400A9FED081A80EE810ADFED070A20EE4F
:1015C000200A084680ED030A70470000F406002058
:1015D00024060020000000460000B4432DE9F0413D
:1015E00004460025002714B90120BDE8F081894890
:1015F00021680160217901712078A52873D1052126
:10160000204601F09DFD01286ED1607800F10906A9
:101610003146204601F074FD0128F5D1012560799D
:10162000A17940EA012740F20221781A8F427FD047
:1016300017DC40F20111A7EB01008F4255D006DC08
:10164000062F2FD2DFE807F0C9222F333A420128B4
:1016500051D0032857D004285CD0B0F5807F21D129
:101660005DE0052872D008DC012868D0022873D01C
:10167000032876D00428F2D17BE0062869D0072819
:1016800068D0082867D0FF28E9D19FE06148401D55
:1016900054F8071F01606168416021890181A17AC6
:1016A000E41F817299E05B48E179017495E01C22A6
:1016B000E11D58481130FEF785FD8EE05548313068
:1016C000B4F807100180617A817086E0514854F8BF
:1016D000071F41636168816321898187A17AE41FC3
:1016E00080F83E1079E089E078E04A48D4F80710A5
:1016F000C0F83F1071E047484330B4F8071001804C
:10170000617A817069E04348B4F80710A0F8471087
:1017100063E00DE03F48E17980F849105DE0FFF7B4
:10172000A3FB0F22E11D3B484A30FEF74BFD54E07E
:101730000E22E11D37486530FEF744FD4DE01022D2
:10174000E11D34487530FEF73DFD46E01DE003E045
:1017500007E023E028E02DE02E48E17980F88510AD
:101760003BE02C488030B4F80710C180617A0172E8
:1017700033E02848E17980F8871090F88700000965
:1017800010B901202449087027E022488030D4F89D
:1017900007108160B4F80B1081811EE01D48B4F879
:1017A0000710A0F88F1018E01A48D4F80710C0F8F6
:1017B000951012E01748213054F8071F81676168BF
:1017C000C167A168C0F88010E41F06E01022E11D87
:1017D00010489F30FEF7F6FC00BF00BF0D48B0F880
:1017E0000110E01D08448078A52807D10949B1F807
:1017F0000120E11D1144881CFFF7F0FE012D03D1EB
:1018000001200649087002E00020044908702846BB
:10181000EBE60000C40700206E00002068000020F6
:1018200000B5A548006840F2012188424DD1A34887
:10183000816A806A401CA14A9062322903D810460E
:1018400001F0D4FC03E000219C48FFF781FD6420F7
:101850009A4988629848007B9749C97A40EA0120F2
:10186000974908809448817B407B41EA002000B280
:1018700000EE100AB8EEC00A914880ED010A8E48C9
:10188000017CC07B41EA002000B28D4908818A4872
:10189000407C40B288720846008800EE100AB8EE1C
:1018A000400ADFED880A80EE201A9FED870A21EEBC
:1018B000000ABCEEC00A10EE100AC8727F4801F0A0
:1018C000C9FC00217D48FFF743FD7B48006840F2DA
:1018D000022188423AD17848007B7749C97A40EAA8
:1018E0000120774988817448817B407B41EA002050
:1018F00000B200EE100AB8EEC00A714880ED040A8A
:101900006D48017CC07B41EA002001B26C488182B5
:101910006948407C41B26A488175808900EE100AAE
:10192000B8EE400ADFED670A80EE201A9FED660AE6
:1019300021EE000ABCEEC00A10EE100AC1B26048E7
:10194000C17501215D482C30FFF702FD5A4800683F
:1019500040F2032188423CD15748007B5649C97A5E
:1019600040EA0120564908835348817B407B41EA85
:10197000002000B200EE100AB8EEC00A504880ED18
:10198000070A4D48017CC07B41EA002001B24C4867
:1019900001844948407C41B2494880F82210008BBC
:1019A00000EE100AB8EE400A9FED461AC0EE010A9A
:1019B0009FED450A20EE800ABCEEC00A10EE100A28
:1019C000C1B23F4880F8231002213C485830FFF74D
:1019D000BFFC39480068B0F5017F3CD13648007B38
:1019E0003549C97A40EA0120354988843248817BEB
:1019F000407B41EA002000B200EE100AB8EEC00AB7
:101A00002F4880ED0A0A2C48017CC07B41EA002067
:101A100001B22B4881852848407C41B2284880F893
:101A20002E10808C00EE100AF8EE400A9FED251A69
:101A300080EE810ADFED240A20EE200ABCEEC00A07
:101A400010EE100AC1B21E4880F82F1003211B4867
:101A50008430FFF77DFC1A4890ED010A1B4880EDA9
:101A6000000A174890ED040A184880ED010A14484E
:101A700090ED070A154880ED020A114890ED0A0A18
:101A8000124880ED030A124890ED000A0F4880EDDD
:101A9000040A0F4890ED120A0C4880ED050A0C4824
:101AA00090ED240A094880ED060A094890ED360AAF
:101AB000064880ED070A00BDF40600204406002019
:101AC00098050020000000460000B443EC0500200B
:101AD00030020020F0B585B004460D4616461F467C
:101AE00000208DF808008DF8090008208DF80A0004
:101AF00080010090200A8DF80B00E1B28DF80C10E7
:101B0000290A8DF80D10E9B28DF80E10310A8DF802
:101B10000F10F1B28DF81010390A8DF81110F9B2CA
:101B20008DF8121069460248FEF7D5FF05B0F0BDEA
:101B30000064004070B5002100230F22C4781CB35C
:101B4000174C246804F4E064C4F5E064C4F307218E
:101B5000C1F10404E3B20A4144789C40E1B28478C4
:101B6000144021430C07210E0E4C05786155047872
:101B700004F01F050124AC4005786D11AD0005F19E
:101B8000E025C5F8004109E0047804F01F050124B0
:101B9000AC40054D0678761145F8264070BD000032
:101BA0000CED00E000E400E080E100E002490143C8
:101BB000024A1160704700000000FA050CED00E0D9
:101BC00070B506460024351DA3E0285DC02840D02E
:101BD00012DCA52829D008DC90281ED0A02821D00E
:101BE000A12820D0A22877D11EE0B02826D0B12885
:101BF00025D0B228F7D123E0D1287BD006DCC1283C
:101C000028D0C22827D0D028EDD12DE0D92865D002
:101C1000E02879D0F02879D174E0687840490870DC
:101C2000A41C75E000BF00BF00BF29193D4851F852
:101C3000012F026089888180E41D69E000BF00BF38
:101C40002919394851F8012F026089888180E41DE3
:101C50005EE000BF00BF2919344851F8012F02602F
:101C600089888180E41D53E0601C295CA01C285CED
:101C700001EB002000B200EE100AB8EEC00ADFED62
:101C80002C0A80EE201A2B4880ED001AE01C295CFB
:101C9000201D285C01EB002000B200EE100AB8EE17
:101CA000C00ADFED230A80EE201A224880ED011AD7
:101CB000601D295CA01D285C01EB002000B200EE35
:101CC000100AB8EEC00AF2EE040A80EE201A194893
:101CD00080ED021AE41D1BE018E00BE029191548FD
:101CE00051F8012F02604A684260896881600D34B2
:101CF0000EE009E02819411C10220F48FEF762FA95
:101D0000113405E0641D03E0641D01E0641C00BFA4
:101D100000BFB6F88400A0423FF757AF70BD000087
:101D2000500000203E000020440000204A00002017
:101D30000000C842A8070020B407002010B50446E0
:101D40006148007807287DD2DFE800F0040A333DBF
:101D50004D5363005A2C02D101205B490870B0E05A
:101D60005A48006880F888405848006890F8880011
:101D7000A52804D0A62806D0A72818D10FE0022055
:101D80005149087013E05248006820B14F4800687C
:101D90004F490968884700204B49087007E0002038
:101DA0004A490968086006204749087000BF00BF1B
:101DB00087E046480068A0F88440464884700320C5
:101DC000414908707DE041480068B0F8840040EA6D
:101DD00004203E490968A1F884003E48C4700420EC
:101DE000394908706DE03C48048005203649087088
:101DF00067E03948008840EA04203749088000201D
:101E00003249096808603549088006202E49087063
:101E100057E02E48006801682C4800680068401CA4
:101E20002A4A1268106029480068001D4454274857
:101E3000006890F88800A72813D12448006800683B
:101E4000082800E039E00CD3082020490968A1F8EF
:101E500084001E4800681E490968884700201A4906
:101E600008701A480068006818490968B1F88410B9
:101E7000884221D31548006890F88800A5281BD116
:101E800004221449154801F081F9104800680268DD
:101E90000E480168091D114801F078F90F480088C3
:101EA0000D490988884204D1084800680849096832
:101EB000884700200449087003E0002002490870A8
:101EC00000BF00BF002010BD6000002058000020AF
:101ED00054000020610000205C0000205E00002013
:101EE00070B504460D46044805608C212046FEF777
:101EF00082F90248046070BD5400002058000020A0
:101F000000EBC001184A02EBC10181ED010A00EBB0
:101F1000C00102EBC101C1ED020A00EBC00102EBFE
:101F2000C10181ED031ADFED111A00EBC00102EBD4
:101F3000C101C1ED0D1ADFED0E1A00EBC00102EB7D
:101F4000C101C1ED0E1AF2EE041A00EBC00102EB62
:101F5000C101C1ED0F1A002100EBC002024B03EBDF
:101F6000C20282F8441070473002002000204B4625
:101F70000000FA4400EBC001184A02EBC10181EDF8
:101F8000010A00EBC00102EBC101C1ED020A00EB46
:101F9000C00102EBC10181ED031ADFED111A00EB64
:101FA000C00102EBC101C1ED0D1ADFED0E1A00EB0D
:101FB000C00102EBC101C1ED0E1AF2EE041A00EBF2
:101FC000C00102EBC101C1ED0F1A002100EBC002FC
:101FD000024B03EBC20282F844107047300200202B
:101FE00000204B4600409C4500EBC001184A02EB24
:101FF000C10181ED010A00EBC00102EBC101C1ED9D
:10200000020A00EBC00102EBC10181ED031ADFED12
:10201000111A00EBC00102EBC101C1ED0D1ADFED99
:102020000E1A00EBC00102EBC101C1ED0E1ADFED8B
:102030000B1A00EBC00102EBC101C1ED0F1A002128
:1020400000EBC002024B03EBC20282F8441070475F
:10205000300200200000FA440080BB440000000071
:1020600000EBC001184A02EBC10181ED010A00EB4F
:10207000C00102EBC101C1ED020A00EBC00102EB9D
:10208000C10181ED031ADFED111A00EBC00102EB73
:10209000C101C1ED0D1ADFED0E1A00EBC00102EB1C
:1020A000C101C1ED0E1AF2EE041A00EBC00102EB01
:1020B000C101C1ED0F1A002100EBC002024B03EB7E
:1020C000C20282F8441070473002002000204B46C4
:1020D00000409C4529B1064A12680243044B1A602D
:1020E00004E0034A12688243014B1A607047000003
:1020F0003038024029B1064A12680243044B1A6084
:1021000004E0034A12688243014B1A6070470000E2
:102110004038024029B1064A12680243044B1A6053
:1021200004E0034A12688243014B1A6070470000C2
:102130002038024029B1064A12680243044B1A6053
:1021400004E0034A12688243014B1A6070470000A2
:102150004438024029B1064A12680243044B1A600F
:1021600004E0034A12688243014B1A607047000082
:1021700024380240F0B50021002200240225002668
:102180000223324F3F6807F00C0121B1042905D02A
:10219000082937D105E02E4F076036E02D4F076044
:1021A00033E02A4F3F1F3F68C7F38056274F3F1F3A
:1021B0003F6807F03F036EB1264FB7FBF3F7DFF838
:1021C0008CC0ACF1040CDCF800C0CCF3881C07FB1D
:1021D0000CF40CE01E4FB7FBF3F7DFF870C0ACF166
:1021E000040CDCF800C0CCF3881C07FB0CF4174F80
:1021F0003F1F3F68C7F301477F1C7D00B4FBF5F725
:10220000076002E0124F076000BF00BF0F4F3F683A
:1022100007F0F0010909104F7A5C0768D740476062
:102220000A4F3F6807F4E051890A0B4F7A5C476810
:10223000D7408760054F3F6807F46041490B064F60
:102240007A5C4768D740C760F0BD0000083802409C
:102250000024F40040787D010000002000B597B014
:1022600001214748FFF736FF01214804FFF742FFED
:10227000072203214348FFF7F1F8082015900220B8
:102280008DF8580000208DF85A0003208DF8590071
:1022900000208DF85B0015A93A48FFF797F83A48F7
:1022A00000F004FE394811900020ADF84800ADF868
:1022B0004A004FF48060ADF84C000420ADF84E00A9
:1022C0000020ADF8500011A92F4800F0A5FE012113
:1022D0002D4800F0D5FD012240212B4800F0DCFD07
:1022E0004FF44070FFF762FC26208DF84000032079
:1022F0008DF8410000208DF8420001208DF8430048
:1023000010A8FFF717FC2248FEF7AEFC4FF0006064
:1023100001901D48001D02901E480390002004906B
:1023200012200590002006904FF480600790002056
:10233000089009904FF480700A904FF440300B9051
:1023400000200C900D900E900F9000221149123138
:102350000F48FEF740FD01210D48FEF731FD01A9B0
:102360000B48FEF753FD012240F22441064800F0DD
:102370002EFE01210648FEF76BFC17B000BD0000E1
:10238000010020000000024000440040A08601003F
:1023900088600240F801002000B970470178427857
:1023A00041EA0221C1F30A01314A11804178C91082
:1023B000827841EA4211C1F30A012D4A51808178A5
:1023C0008911C27841EA8201027941EA8221C1F38E
:1023D0000A01274A918001794910427941EAC211E4
:1023E000C1F30A01224AD180417909118908117289
:1023F0004179C1F3011151728179C27941EA022117
:1024000009B21B4A5181017A427A41EA02210AB299
:1024100017498A81817AC27A41EA02210AB21449B3
:10242000CA81027B0A74427B4A74817BC27B41EA87
:1024300002210F4A51820F490978012909D18902E5
:102440000D4A11800D4A11800D4A11800D4A1180EC
:102450000BE0074909880B4A118005494988084A59
:10246000118003498988054A118000BF95E7000063
:102470001C02002030000020380000203600002020
:1024800034000020320000200CB5002001900090A4
:102490003448006840F480303249086000BF314859
:1024A000006800F4003000900198401C01900098F2
:1024B00018B90198B0F5A06FF1D12A48006800F46E
:1024C000003010B10120009001E000200090009841
:1024D000012846D123484030006840F0805021490F
:1024E000403108602048006840F480401E49086080
:1024F0001C48083000681B4908310860084600681D
:1025000040F4004008600846006840F4A0500860AD
:102510001648091F0860081F006840F08070091FF6
:10252000086000BF0F48006800F000700028F9D074
:1025300040F205600E4908600A480830006820F043
:1025400003000849083108600846006840F00200AE
:10255000086000BF03480830006800F00C0008283D
:10256000F8D10CBD003802400070004019544007FB
:10257000003C024010B51548006840F47000134953
:1025800008601348006840F001001149086000200D
:102590000F49083108600E4800680E4908400C4990
:1025A00008600D48091D0860081F006820F480209D
:1025B000091F0860002006490C310860FFF764FF1E
:1025C0004FF0006001498039086010BD88ED00E0DF
:1025D00000380240FFFFF6FE103000241FB51D201A
:1025E0008DF80C0008208DF80D0000208DF80E00ED
:1025F00001208DF80F0003A8FFF79CFA01210220AB
:10260000FFF778FD3120019042F2CF00ADF80000D5
:102610000020ADF80800ADF802006946084800F057
:10262000FBF80121064800F0CBF8012211460448CE
:1026300000F0E9F80121024800F0C8F81FBD0000D1
:102640000004004010B50121164800F0CBF838B363
:102650001548D0ED010AB0EE600ADFED140A144807
:1026600000F068FEBDEEC00A10EE100A00B211497B
:10267000088000231A4619460E48B0F90000FFF7FB
:1026800029FA01F049F800F03DFE0121054800F06B
:102690009AF818220849094800F086FF01F01AF854
:1026A00010BD000000040040980500200000FA431F
:1026B00030020020140000200C060020001401400D
:1026C0001FB54FF44070FFF771FA32208DF80C00FF
:1026D00001208DF80D0000208DF80E0001208DF8EE
:1026E0000F0003A8FFF726FA01210820FFF702FDDB
:1026F00040F6B73001905320ADF800000020ADF84F
:102700000800ADF802006946084800F085F801218C
:10271000064800F055F801221146044800F073F80D
:102720000121024800F052F81FBD0000000C0040DB
:1027300010B50121194800F055F868B3184800F0A9
:102740006BFD184800F072FD174800F079FD17483E
:1027500000F03AFD164800F055FD164800F03EFD29
:10276000124890ED020A144880ED000A134890EDDB
:10277000120A114880ED010A0C4890ED010A0E483A
:1027800080ED020A0D4890ED370A0B4880ED030AF0
:102790000121024800F017F810BD0000000C0040B5
:1027A000180000201E00002024000020DC01002072
:1027B000E801002016000020CC0100207004002059
:1027C000CA4302827047CA430282704721B102881D
:1027D00042F00102028004E002884FF6FE731A40C4
:1027E0000280704730B50246002000230024158A7D
:1027F00005EA0103958905EA010413B10CB1012032
:1028000000E0002030BD1AB183890B43838102E0D0
:1028100083898B438381704700220288184B98423A
:102820000ED0184B98420BD0B0F1804F08D0164B09
:10283000984205D0154B984202D0154B984204D1CE
:102840004FF68F731A404B881A43124B984207D0A9
:10285000114B984204D04FF6FF431A400B891A439C
:1028600002804B68C3620B880385054B984202D0F7
:10287000044B984201D18B7A0386012383827047EF
:102880000000014000040140000400400008004036
:10289000000C0040001000400014004000B58FB054
:1028A00001214805FFF716FC1C48FEF7DDF94FF043
:1028B0000060009000200390194801901948029090
:1028C0000020039006200490002005904FF48060C3
:1028D00006900020079008904FF480700990000245
:1028E0000A9004200B9003200C9000200D900E9075
:1028F000012240210A48001F00F0CEFA0122802167
:102900000748001F00F0C8FA69460448FEF77EFA3F
:1029100001210248FEF79CF90FB000BD4060024063
:10292000044C0040C401002010B540F2244112487C
:1029300000F023FBF0B110480088C4B20E48001D1F
:102940000088C4B200210D48FEF782F90C490B48FB
:10295000FEF764F90A200949091D086001210748AA
:10296000FEF776F900F054FE00200649C870887022
:102970004870087010BD0000004C004040640240E8
:1029800020800010C401002010B540F225510848F5
:1029900000F0F3FA50B1002006490870044800F036
:1029A000A5FBC4B22046FFF7C9F900BF10BD000067
:1029B000005000401000002010B51748FEF754F9F1
:1029C0004FF00060154908600020C8601448486056
:1029D000144888600020C8606420086100204861B5
:1029E0004FF4806088610020C86108624FF48070F5
:1029F00048624FF4403088620420C86203200863B4
:102A00000020486388630448FEF700FA0121024869
:102A1000FEF71EF910BD0000406402405C09002072
:102A2000041001409408002010B540F224411548DC
:102A300000F0A3FA20B31348008813490860114836
:102A40008088086000211148FEF702F90F48FEF760
:102A5000CEF9C0F1C8000C4908600D48FEF7BEFD74
:102A6000C8210B48FDF7C7FB0A490848FEF7D6F80E
:102A7000C8200649091D086001210448FEF7E8F84E
:102A800010BD0000001001407000002040640240B2
:102A9000940800202080001000B587B0012108466E
:102AA000FFF718FB01211020FFF744FB01218805E7
:102AB000FFF710FB072209212E48FEF7CFFC072263
:102AC0000A212C48FEF7CAFC4FF400700190022046
:102AD0008DF8080000208DF80A0003208DF8090009
:102AE00001208DF80B0001A92248FEF76FFC4FF47E
:102AF0008060019001A91F48FEF768FC4FF4E130A7
:102B000003900020ADF81000ADF81200ADF81400ED
:102B10000C20ADF816000020ADF8180003A91648E7
:102B200000F07AFA0121144800F0AAF9012240F2DB
:102B30002441114800F04BFA012240210E4800F0D8
:102B4000ABF9012280210C4800F0A6F9FFF734FF11
:102B500025208DF8000002208DF8010000208DF85E
:102B6000020001208DF803006846FEF7E3FF07B07E
:102B700000BD0000000002400010014010B5002020
:102B80001E490870002440F224411D4800F0F5F968
:102B900090B31B4800F0AAFA1A48FEF72CF9A8B91E
:102BA00000211848FEF754F81648FEF720F90446AD
:102BB00012211448FEF756F901211248FEF748F891
:102BC000122C19D11048FFF7E7FB15E000210D4842
:102BD000FEF73EF80B48FEF70AF9044612210948B1
:102BE000FEF740F901210748FEF732F8122C03D115
:102BF00005481238FFF7D0FB10BD00003A00002056
:102C000000440040886002400A02002000B587B0FE
:102C100034208DF8180002208DF8190000208DF85E
:102C20001A0001208DF81B0006A8FEF783FF012182
:102C3000C804FFF75FFA01210846FFF74BFA0822A4
:102C400000212148FEF70AFC082201211E48FEF758
:102C500005FC00208DF8160002208DF815008DF877
:102C600014000120049004A91748FEF7AFFB0020D0
:102C70008DF8160002208DF815008DF814000490D0
:102C800004A91148FEF7A2FB4FF4E13000900020A8
:102C9000ADF80C000C20ADF80A000020ADF80800DB
:102CA000ADF80600ADF804006946084800F0B4F934
:102CB0000121064800F0E4F8012240F224410348D3
:102CC00000F085F907B000BD00000240004C004054
:102CD00000B589B035208DF8200000208DF8210046
:102CE0008DF8220001208DF8230008A8FEF722FFAE
:102CF00001210805FFF7FEF901210C20FFF7EAF991
:102D000008220C212248FEF7A9FB082202212148B3
:102D1000FEF7A4FB00208DF81E0003208DF81D0097
:102D200002208DF81C00C002069006A91848FEF784
:102D30004DFB00208DF8160003208DF815000220B1
:102D40008DF814000420049004A91248FEF73EFBFD
:102D50004FF4612000900020ADF80C000C20ADF87D
:102D60000A000020ADF80800ADF80600ADF8040038
:102D70006946094800F050F9012240F22551064801
:102D800000F025F90121044800F07AF809B000BDEF
:102D900000080240000C02400050004000B587B01F
:102DA00047208DF818000A208DF8190000208DF8B2
:102DB0001A0001208DF81B0006A8FEF7BBFE0121BA
:102DC0002020FFF7B7F901210420FFF783F908223B
:102DD00006212248FEF742FB082207211F48FEF782
:102DE0003DFB00208DF8160002208DF815008DF8AF
:102DF00014004020049004A91848FEF7E7FA0020C8
:102E00008DF8160002208DF815008DF81400802032
:102E1000049004A91148FEF7D9FA4FF4E13000906C
:102E20000020ADF80C000C20ADF80A000020ADF831
:102E30000800ADF80600ADF804006946084800F047
:102E4000EBF80121064800F01BF8012240F2255161
:102E5000034800F0BCF807B000BD000000080240C5
:102E60000014014010B540F22551044800F085F8E7
:102E700018B1024800F03AF9C4B210BD0014014084
:102E800021B1828942F40052828104E082894DF6A8
:102E9000FF731A40828170471AB1838A0B43838281
:102EA00002E0838A8B4383827047000010B504469A
:102EB0002548844208D101211020FFF74BF9002159
:102EC0001020FFF747F93EE02048844209D1012154
:102ED0004804FFF71FF900214FF40030FFF71AF9FB
:102EE00031E01B48844209D101218804FFF712F91F
:102EF00000214FF48020FFF70DF924E015488442AB
:102F000009D10121C804FFF705F900214FF4002081
:102F1000FFF700F917E01048844209D101210805A4
:102F2000FFF7F8F800214FF48010FFF7F3F80AE0FC
:102F30000A48844207D101212020FFF70BF9002124
:102F40002020FFF707F910BD0010014000440040A9
:102F500000480040004C0040005000400014014078
:102F600002460020B1F5007F00D100BF13880B405E
:102F70000BB1012000E00020704770B5024600242C
:102F800000230025002040F66A16B14200D100BFA0
:102F9000C1F3421501F01F03012606FA03F3012DC8
:102FA00002D19689334006E0022D02D1168A3340C1
:102FB00001E0968A33400C12012606FA04F41688C2
:102FC000344013B10CB1012000E0002070BDF0B519
:102FD0000346002400260025002040F66A17B94267
:102FE00000D100BF1846C1F3421401F01F060127AB
:102FF00007FA06F5012C01D10C3004E0022C01D1B6
:10300000103000E014301AB107682F43076002E067
:103010000768AF430760F0BD2DE9FF4705460E4640
:103020000024A14600BFA046B08900B100BF2C8A91
:1030300024F44054F08804432C82AC8941F20C60A3
:103040008443B08831890843718908430443AC81C3
:10305000AC8A24F44074B0890443AC826846FFF71C
:1030600089F82048854202D01F48854202D1DDF808
:103070000C9001E0DDF80890A88900F4004040B110
:1030800009EBC90000EB091031684900B0FBF1F70A
:1030900007E009EBC90000EB091031688900B0FBBB
:1030A000F1F76420B7FBF0F004012009642101FB73
:1030B0001078A88900F4004040B1322000EBC8002D
:1030C000B0FBF1F000F00700044308E0322000EB11
:1030D00008106421B0FBF1F000F00F0004432C81D4
:1030E000BDE8FF87001001400014014001468888B8
:1030F000C0F308007047C1F30802828070470000E7
:1031000070B505460C4600260DB1022C01D80020F2
:1031100070BDA11E094802882846FEF7C3F906467D
:10312000F1B2A01E285C814206D1601E285CB0EB83
:10313000162F01D10120EBE70020E9E73C00002039
:1031400070B505460C4600260DB1022C01D80120B1
:1031500070BD611EFF222846FEF7BEF90646601EBE
:10316000285CB04201D10120F2E70020F0E702E044
:1031700008C8121F08C1002AFAD170477047002002
:1031800001E001C1121F002AFBD17047F0B50346D0
:103190000C461888002113E0675C80EA07200025B0
:1031A0000BE0460000F4004CBCF1000F03D041F2EC
:1031B000210C86EA0C0630466D1C082DF1D3491C03
:1031C0009142E9D31880F0BD0146034B0DCB81E855
:1031D0000D00002070470000A807002001460248AB
:1031E0000078087000207047500000200449097BD7
:1031F000034AD27A41EA0221018101898181704723
:10320000F406002010B50146024C1DCC81E81D00DB
:10321000002010BDB40700200146034802680A6080
:1032200080888880002070473E00002001460348C7
:1032300002680A608088888000207047440000206F
:103240000146034802680A60808888800020704731
:103250004A00002030B504894589AC4208DA048967
:1032600004F500544589611B04894589621B07E008
:103270000489A4F500544589611B04894589621BB2
:10328000002901DD0C4600E04C42002A01DD154614
:1032900000E05542AC4201DA0B4600E013464469B7
:1032A0001C4444610489448130BD000010B50349C9
:1032B0000348FEF715FE002010BD0000C11B0008EA
:1032C0001C0700204FF44070FEF770FCFFF7EEFF84
:1032D000FFF7FEFCFDF792FCFFF7DEFB00F0EAF8DB
:1032E000FEF7BCFFFFF7ECF9FCF7CEFFFDF78EF819
:1032F000FFF774F9FFF752FDFFF788FCFFF7CEFAEE
:1033000000BFFEE709480078401C084908700846DD
:1033100000780A2805DB0A2008700120044908709B
:1033200002E0002002490870704700003A000020C7
:103330003B000020B0EE401A80ED041A90ED050A23
:1033400080ED060AC0ED000A90ED000AD0ED041AE7
:1033500030EE610A80ED050A90F84410012921D170
:1033600090ED050ADFED501AB4EEE10AF1EE10FA25
:1033700007DB90ED050ADFED4D1A30EE610A80EDB6
:10338000050A90ED050ADFED4A1AB4EEE10AF1EE06
:1033900010FA07D890ED050ADFED441A30EE210A45
:1033A00080ED050A90ED0B0A80ED0C0A90ED050A00
:1033B000B5EEC00AF1EE10FA02DD90ED050A03E069
:1033C00090ED050AB1EE400AD0ED0F1AB4EEE10A15
:1033D000F1EE10FA65DD90ED010AD0ED051A20EE50
:1033E000210A80ED080A90ED090AD0ED021A90ED4D
:1033F000052A01EE820A80ED090A90ED050AD0ED5A
:10340000061A30EE610AD0ED031A20EE210A80ED93
:103410000A0A90ED090AD0ED0E1AB4EEE10AF1EEB7
:1034200010FA03DD90ED0E0A80ED090A90ED090A0D
:10343000D0ED0E1AF1EE611AB4EEE10AF1EE10FAD7
:1034400005D290ED0E0AB1EE400A80ED090A90ED2A
:10345000080AD0ED091A30EE210AD0ED0A1A30EE32
:10346000210A80ED0B0A90ED0B0AD0ED0D1AB4EE97
:10347000E10AF1EE10FA03DD90ED0D0A80ED0B0A82
:1034800090ED0B0AD0ED0D1AF1EE611AB4EEE10ADF
:10349000F1EE10FA05D290ED0D0AB1EE400A80ED82
:1034A0000B0A90ED0B0A70470000B4420000B443D1
:1034B0000000B4C210B59FED331ADFED330AB2EE4F
:1034C000020A0020FEF71CFD9FED2E1ADFED2F0AE9
:1034D000B1EE0C0A0120FEF713FD9FED2A1ADFED75
:1034E0002A0A9FED2B0A0220FEF70AFD9FED251AFE
:1034F000DFED250AB1EE0C0A0320FEF701FD9FED7A
:10350000211ADFED200AB1EE040A0420FEF76CFD5B
:10351000DFED1C2A9FED1B2AF2EE051A9FED191A0A
:10352000DFED1C0A9FED1C0A0020FDF7D9FDDFED41
:10353000152A9FED142AF2EE081A9FED121ADFEDFC
:10354000170A9FED170A0120FDF7CAFD9FED0D1A1E
:10355000DFED140AB0EE080A0520FEF781FD9FEDAD
:10356000091ADFED100AB0EE080A0620FEF778FD12
:103570009FED041ADFED030AB0EE0C0A0720FEF7F8
:10358000F9FC10BD000000000AD7233C0AD7A33B7A
:103590009A99D9408FC2753C000096430AD7A33D43
:1035A000000016430AD7A33CF8B507460D46164659
:1035B00016A00068009000240CE0295D3846FFF753
:1035C0009AFD00BF80213846FFF7CAFC0028F9D0D9
:1035D000601CC4B2B442F0DB00240DE01DF80410FE
:1035E0003846FFF788FD00BF80213846FFF7B8FC5A
:1035F0000028F9D0601CC4B2042CEFDB00BF80218E
:103600003846FFF7ADFC0028F9D0F8BD0000807FF8
:103610002A480078802847D1284840797F2843D11C
:103620002648407826490870244880784870234806
:10363000C078887021480079C870084640780978B9
:1036400040EA012000B200EE100AB8EEC00ADFED39
:103650001D0A20EE200ADFED1C0A80EE201A1B480E
:1036600090ED000A21EE000A154880ED010AC078AD
:103670001349897840EA012000B200EE100AB8EE42
:10368000C00ADFED100A20EE200ADFED0F0A80EEFF
:10369000201AB1EE410A0D48D0ED000A20EE200AB2
:1036A000074880ED020A08E09FED090A044880ED12
:1036B000010A9FED070A80ED020A7047C40100204D
:1036C000A80F00200000B44200FEFF46C001002009
:1036D0000000000038B580208DF8000001208DF832
:1036E00001000F208DF802007F208DF803000024D8
:1036F0000DE01DF804100748FFF7FDFC00BF802116
:103700000448FFF72DFC0028F9D0601CC4B2042C3B
:10371000EFDB38BD004C00401E480088B0F57E7FCE
:1037200032DB1C480088B0F5816F2DDC19484088D9
:10373000B0F57E7F28DB17484088B0F5816F23DC29
:1037400014488088B0F57E7F1EDB12488088B0F573
:10375000816F19DC0F48C088B0F57E7F14DB0D48FF
:10376000C088B0F5816F0FDC0B480078401C0A4917
:103770000870084600780A280BDB0120074908700A
:103780000A200549087004E0002003490870034935
:10379000087070471C02002031000020300000201B
:1037A000FF005EBCE2613FDD83C29C7E20A3FD1F63
:1037B000419DC3217FFCA2401E5F01E3BD3E6082AC
:1037C000DC237D9FC1421CFEA0E1BF5D0380DE3C87
:1037D00062BEE0025CDF81633D7C22C09E1D43A18E
:1037E000FF4618FAA427799BC584DA3866E5BB59E9
:1037F00007DB856739BAE406581947A5FB7826C464
:103800009A653BD987045AB8E6A7F91B45C6987A4A
:1038100024F8A6441A99C7257B3A6486D85B05E745
:10382000B98CD2306EEDB3510F4E10F2AC2F7193B4
:10383000CD114FADF3702ECC92D38D6F31B2EC0E13
:1038400050AFF1134DCE90722C6D33D18F0C52B01E
:10385000EE326C8ED0530DEFB1F0AE4C1291CF2DF5
:1038600073CA947628ABF517490856B4EA6937D578
:103870008B5709EBB536688AD495CB2977F4AA48DB
:1038800016E9B7550B88D6346A2B7597C94A14F6D2
:10389000A8742AC896154BA9F7B6E80A54D7896BBD
:1038A00035000000891112239B322446AD5736653E
:1038B000BF74488CC19D5AAFD3BE6CCAE5DB7EE9AC
:1038C000F7F88110080193331A22A5562C47B775D3
:1038D0003E64C99C408DDBBF52AEEDDA64CBFFF98C
:1038E00076E802218B30100299132667AF763444B4
:1038F000BD554AADC3BC588ED19F6EEBE7FA7CC86C
:10390000F5D983310A2091121803A7772E66B55492
:103910003C45CBBD42ACD99E508FEFFB66EAFDD84B
:1039200074C904428D5316619F702004A915322773
:10393000BB364CCEC5DF5EEDD7FC6888E1997AAB2B
:10394000F3BA85520C4397711E60A1142805B33752
:103950003A26CDDE44CFDFFD56ECE9986089FBBB0B
:1039600072AA06638F7214409D512225AB34300633
:10397000B9174EEFC7FE5CCCD5DD6AA9E3B8788AEB
:10398000F19B87730E6295501C41A3352A24B11612
:103990003807CFFF46EEDDDC54CDEBB962A8F99ACB
:1039A000708B088481951AA793B62CC2A5D33EE1EB
:1039B000B7F04008C919522BDB3A644EED5F766DC3
:1039C000FF7C899400859BB712A6ADD224C3BFF1BA
:1039D00036E0C1184809D33B5A2AE55E6C4FF77DA3
:1039E0007E6C0AA583B4188691972EE3A7F23CC09B
:1039F000B5D14229CB38500AD91B666FEF7E744C83
:103A0000FD5D8BB502A499961087AFF326E2BDD079
:103A100034C1C3394A28D11A580BE77F6E6EF55C62
:103A20007C4D0CC685D71EE597F42880A1913AA35A
:103A3000B3B2444ACD5B5669DF78600CE91D722F42
:103A4000FB3E8DD604C79FF516E4A9902081BBB339
:103A500032A2C55A4C4BD7795E68E11C680DF33F22
:103A60007A2E0EE787F61CC495D52AA1A3B038821A
:103A7000B193466BCF7A5448DD59622DEB3C700E02
:103A8000F91F8FF706E69DD414C5ABB122A0B992F9
:103A90003083C77B4E6AD5585C49E33D6A2CF11EE2
:103AA000780F0000C43A000800000020CC0100009C
:103AB00030020008483B0008CC010020EC1C00004C
:103AC0007E310008412D0102030404052C0607087D
:103AD000090323FFFF03155AA57A20010E17434C53
:103AE00049503A1E0D145350494E1EE80961757431
:103AF0006F5F61696D1EE80F73686F6F7468656151
:103B0000746C696D69741E07183A626C6F636B00A0
:103B10000E113A62756C6C65745F7370656564084C
:103B20000F187375706572636170616369746F7289
:103B3000B4091201011023C00363D00205349A991D
:083B40009A423A0A3C83993EC7
:040000050800018965
:00000001FF
