:020000040800F2
:10000000E052002009030008B1360008D92C00088E
:10001000B53300084F060008694C000800000000D6
:10002000000000000000000000000000490200087D
:100030007D08000800000000A5020008194700081C
:1000400023030008230300082303000823030008F8
:1000500023030008230300082303000823030008E8
:1000600023030008230300082303000823030008D8
:1000700023030008DD07000823030008230300080A
:10008000E907000823030008230300087D06000891
:100090005106000823030008230300082303000877
:1000A0002303000823030008230300082303000898
:1000B00023030008F1470008230300082303000876
:1000C0002303000823030008230300082303000878
:1000D00023030008354C0008494C0008230300089E
:1000E0002303000823030008230300082303000858
:1000F000230300080948000823030008230300081D
:100100002303000823030008FD4700082303000819
:10011000494900085D49000823030008230300083B
:100120002303000823030008F50700082303000841
:100130002303000800000000000000000907000879
:10014000890600082303000823030008230300088E
:100150002303000823030008230300085D4C000864
:1001600023030008230300082303000823030008D7
:100170002303000823030008000000000000000023
:10018000230300082303000800F002F800F04CF8F5
:100190000AA090E8000C82448344AAF10107DA45E2
:1001A00001D100F041F8AFF2090EBAE80F0013F0E8
:1001B000010F18BFFB1A43F001031847BC7E000073
:1001C000DC7E00000A4410F8014B14F00F0508BF54
:1001D00010F8015B240908BF10F8014B6D1E05D013
:1001E00010F8013B6D1E01F8013BF9D1641E03D0EC
:1001F000641E01F8015BFBD19142E4D3704700001B
:100200000023002400250026103A28BF78C1FBD81F
:10021000520728BF30C148BF0B6070471FB507F0B9
:100220007AFC1FBD10B510BD00F0DCF91146FFF7D8
:10023000F5FF05F0A9FD00F0FAF903B4FFF7F2FFAE
:1002400003BC00F0FDF900002C4B19680868B0E809
:10025000F04F80F30988BFF36F8F4FF0000080F3F9
:10026000118870470000000008480068006880F3AB
:1002700008884FF0000080F3148862B661B6BFF3BF
:100280004F8FBFF36F8F00DF00BF00BF08ED00E0AE
:10029000DFF80C00016841F470010160704700BF95
:1002A00088ED00E0EFF30980BFF36F8F134B1A68FE
:1002B0001EF0100F08BF20ED108A20E9F04F1060EB
:1002C00009B44FF0500080F31188BFF34F8FBFF394
:1002D0006F8F06F0FFFB4FF0000080F3118809BC20
:1002E00019680868B0E8F04F1EF0100F08BFB0ECB6
:1002F000108A80F30988BFF36F8F70474400002095
:10030000EFF305807047000009488047094800471F
:10031000FEE7FEE7FEE7FEE7FEE7FEE7FEE7FEE7B5
:10032000FEE7FEE704480549054A064B7047000012
:10033000E147000889010008E04C0020E05200205D
:10034000E04E0020E04E002053EA020C00F06980ED
:100350002DE9F04B4FF00006002B1FBFB3FA83F5D9
:1003600003FA05F424FA05F65E4012BF1643B2FA0A
:1003700082F502FA05F4C5F120051EBF22FA05FC3C
:1003800044EA0C04203556EA044C4FEA144418BFE2
:10039000641C4FF000084FF00009904271EB030C11
:1003A00039D3002919BFB1FA81F701FA07F6B0FA7B
:1003B00080F700FA07F6C7F120071EBF20FA07FCF6
:1003C00046EA0C062037B6FBF4FCA7EB0507103F06
:1003D00007F01F0BCBF120060CFA0BFB2CFA06F6EC
:1003E00044BFB3460026202FA4BF5E464FF0000B4B
:1003F0005BEA060C08BF4FF0010B19EB0B09ABFBD6
:10040000027C48EB0608C01B06FB02CC0BFB03CCAE
:1004100071EB0C01C1E70B46024641464846BDE878
:10042000F08B13B54FF000004FF00001AFF30080E8
:10043000BDE81C407047032A40F2308010F0030CE6
:1004400000F0158011F8013BBCF1020F624498BF27
:1004500011F801CB00F8013B38BF11F8013BA2F1C4
:10046000040298BF00F801CB38BF00F8013B11F03F
:10047000030300F02580083AC0F0088051F8043BDF
:10048000083A51F804CBA0E80810F5E7121D5CBF4C
:1004900051F8043B40F8043BAFF30080D20724BF7F
:1004A00011F8013B11F801CB48BF11F8012B24BF13
:1004B00000F8013B00F801CB48BF00F8012B704762
:1004C00010B5203AC0F00B80B1E81850203AA0E8EF
:1004D0001850B1E81850A0E81850BFF4F5AF5FEA23
:1004E000027C24BFB1E81850A0E8185044BF18C9D6
:1004F00018C0BDE810405FEA827C24BF51F8043B7D
:1005000040F8043B08BF7047D20728BF31F8023BD0
:1005100048BF11F8012B28BF20F8023B48BF00F864
:10052000012B70474FF000020429C0F0128010F038
:10053000030C00F01B80CCF1040CBCF1020F18BFBF
:1005400000F8012BA8BF20F8022BA1EB0C0100F052
:100550000DB85FEAC17C24BF00F8012B00F8012B25
:1005600048BF00F8012B70474FF0000200B513465A
:1005700094469646203922BFA0E80C50A0E80C50C3
:10058000B1F12001BFF4F7AF090728BFA0E80C5074
:1005900048BF0CC05DF804EB890028BF40F8042B6D
:1005A00008BF704748BF20F8022B11F0804F18BFDA
:1005B00000F8012B704770477047704710B500F086
:1005C00009F8006810BD10B5044600F003F8046097
:1005D00010BD000000487047804C00200048704764
:1005E000804C00207546FFF7F9FFAE4605006946CE
:1005F000534620F00700854618B020B5FFF792FE5D
:10060000BDE820404FF000064FF000074FF0000813
:100610004FF0000B21F00701AC46ACE8C009ACE894
:10062000C009ACE8C009ACE8C0098D46704710B5F8
:100630000446AFF300802046BDE81040FFF7FDBD43
:1006400001491820ABBEFEE7260002007047FEE716
:1006500010B5074B074A0021074800F052FC02F092
:10066000CFFE02F05BFBBDE81040034800F0BDBCCC
:10067000C00000207C4600204C040020014800F00F
:10068000B4BC00004C04002010B5084B084A0021FF
:10069000084800F036FC02F021FB00F03FFA00F0C1
:1006A00073F9BDE81040034800F09FBCC80000206B
:1006B000984600207404002010B58AB000240494E9
:1006C00005940824069440F2FF140294040A8DF85D
:1006D00000408DF80100080A8DF80200100A8DF81C
:1006E00004008DF80520180A8DF806008DF8031017
:1006F0008DF8073008AB6A4602A9024800F00CFBEF
:100700000AB010BD74040020014800F06EBC000067
:10071000740400202DE9084006F032FC009000F03F
:100720001DF86421684606F051F9F5E708B50A4C52
:1007300006F026FC00902078012802D0022803D081
:1007400004E005F05FF801E003F0C4F90321684616
:1007500006F03CF9ECE70000B000002010B503F013
:10076000EFFE401F84B203F0EBFE20B120B2BDE8E3
:10077000104000F003B85F20F9E7000000B589B031
:10078000002108220291CDE9031240F23332009297
:10079000020A8DF818208DF819008DF81A108DF8BE
:1007A0001B10079108AB06AA6946024800F0B4FA8C
:1007B00009B000BD4C04002010B503F0DFFE064C6C
:1007C0000A2801D80020607003F0D8FE642801D305
:1007D0000120607010BD000090010020014800F071
:1007E000B3BE00008C060020014800F0ADBE000042
:1007F0004C070020014800F0A7BE0000EC060020D6
:1008000001681823CAB2103AB2FBF3F2054B6FF33A
:100810000901032A9B5CC36500D9091D816508464F
:1008200070470000F07B000810B5014600208B697E
:100830008A6A4FF0C07453B1B3F5005F15D072B13E
:10084000012A0CD0022A0AD0032A09D104E01AB1E5
:10085000012A06D0022A03D1C96AC90100D50120A4
:1008600010BDC96AA142FAD010BD002AF7D0012AF2
:10087000F2D0022AF3D0032AF3D010BD7047000053
:10088000F0B5404890F84A100A2945D20122A0F854
:10089000BE200222A0F8C0200322A0F8C220042219
:1008A000A0F8C4200522A0F8C62040F201170622B5
:1008B000A0F8C8207E1C0722A0F8CA20751C6C1C5A
:1008C000A0F8CC70A0F8CE60631CA0F8D050A0F8BF
:1008D000D2405A1CA0F8D430A0F8D62001290CD060
:1008E00002290DD003290ED004290FD0052910D0DC
:1008F000062901D1A0F8DA20F0BDA0F8DA70F0BD29
:10090000A0F8DA60F0BDA0F8DA50F0BDA0F8DA4047
:10091000F0BDA0F8DA30F0BD6522A0F8BE20662256
:10092000A0F8C0206722A0F8C2206822A0F8C42046
:100930006922A0F8C62040F265176A22A0F8C820F4
:100940007E1C6B22A0F8CA20751C6C1CA0F8CC7011
:10095000A0F8CE60631CA0F8D050A0F8D2405A1C7A
:10096000A0F8D430A0F8D6206529C6D06629C7D013
:100970006729C8D06829C9D06929CAD06A29B9D0DD
:10098000F0BD0000DA4A00201A4801688038A1F55D
:100990000072073A22D11849DFED180A0A8852BAC4
:1009A00002804B885BBA1BB200EE103AB8EEC00A68
:1009B00080ED010A00EE102A8B88B8EE400A5BBA7F
:1009C0000381897920EE200ADFED0D0A817220EE85
:1009D000200ABCEEC00A10EE101AC17290ED010A96
:1009E0000448543880ED020A9FED060A80ED050A9E
:1009F0007047000098460020C80000200000003921
:100A00000000B4430080BB4400EB800101EB4011C7
:100A1000134800EB8100011D00F14C0281EC030A38
:100A20000021DFED100A9FED101AC0ED0D0A9FEDB9
:100A30000F0A80ED0E1A80ED0F0A80ED100A80F883
:100A40004410C0ED1F0A80ED201A80ED210A80EDD0
:100A5000220A0121C2EC031A80F88C1070470000B2
:100A6000F448002000C0DA460000FA44000000000C
:100A700072B6FEE725484FF08B42254900889FED6E
:100A8000251AA0F5E850903800EE100AF8EEC00ADA
:100A900000EE100A10EE900AB8EEC00A904202DD95
:100AA00070EEC10A05E010EE900A884201D970EE9E
:100AB000810A10EE100A904202DD30EE410A05E094
:100AC00010EE100A884201D930EE010ABDEEE01A9C
:100AD00011EE100A002811EE100A00DC4042BDEEB3
:100AE000C01A11EE101A002911EE101A00DC49424A
:100AF000884201DAB0EE600AF0EEC00AF5EEC00AF4
:100B0000F1EE10FA01D29FED040A70475C46002016
:100B1000000080C50000004600000000F0B52E482F
:100B2000DFED2F0A9FED2F1A06682C48A6F50071FD
:100B3000013905884488838890F906202A4819D10C
:100B400067BA3FB200EE107A69BA0180B8EEC00A07
:100B50005FBA80ED010A00EE101A07818272B8EECA
:100B6000400A20EE200A20EE010ABCEEC00A10EE78
:100B7000101AC172A6F50071023919D164BA24B2F3
:100B800000EE104A69BA8181B8EEC00A5BBA80ED06
:100B9000040A00EE101A83828275B8EE400A20EE35
:100BA000200A20EE010ABCEEC00A10EE101AC17530
:100BB000094990ED010A543981ED000A90ED040ACB
:100BC00081ED010A9FED090A81ED030A9FED080AF4
:100BD00081ED040AF0BD000098460020C800002006
:100BE000000000390000B443504500200080BBC520
:100BF0000080BB4500B589B0002204230292CDE9F4
:100C00000323DB010093030A8DF818308DF81900D7
:100C1000080A8DF81A008DF81B10079208AB06AA77
:100C20006946024800F078F809B000BD740400205D
:100C300030B5134A0489448111886FF0040549BA1C
:100C4000018153885BBA4380038093885BBA1BB2EF
:100C500093FBF5F38380927982710B1B0269B3F5E4
:100C6000805F01DD521E03E013F5805F01DA521C44
:100C7000026101EB42318289891A416130BD000075
:100C8000C000002010B558B1084C491E0BD310F815
:100C9000013B5340DBB234F8133083EA1222F4E70D
:100CA0004FF6FF7010BD104610BD0000107D00080B
:100CB00010B5054C04E000BF10F8013B5340E25C66
:100CC000491EF9D2104610BD107C000810B503F083
:100CD0001FFC074C84ED050A03F022FC84ED060A94
:100CE00003F026FC84ED070A03F00CFC607110BDD4
:100CF000BC01002090F82020012A07D0022A05D04C
:100D0000416A41F4802141620120704700684269D4
:100D10000A43426100207047F0B590F82050046803
:100D2000A468012D05D0022D03D0416A41F4802131
:100D30005DE014F0406F01D1E50055D5C4F30164C6
:100D4000022C03D9416A41F4000150E00125A5407D
:100D50001D608D684FF4C0739DB1CE6835434E68F9
:100D600045EAC605066803EB0417F5514FF4C27552
:100D7000076805EB04150E697E51097D012905D030
:100D800009E00E88CD6845EA4655EBE701684E5903
:100D900046F480764E511179D579567941EA05614C
:100DA00095792D0445EA062529434FF4C676056852
:100DB00006EB0416A9511178D57841EA05619578BA
:100DC00052782D0445EA022211434FF4C47502689B
:100DD00005EB04155151006803EB0411425842F031
:100DE000010242500020F0BD416A41F4001141620D
:100DF0000120F0BD10B590F82020012A07D0022A6A
:100E000005D0416A41F480214162012010BD3B4878
:100E1000D0F8002242F00102C0F80022D0F80022EF
:100E200022F47C52C0F80022D0F800224B6A42EA39
:100E30000322C0F800220A7D02F01F0301229A401B
:100E4000D0F81C329343C0F81C32CB69B3B9D0F848
:100E50000C329343C0F80C328C894B6864F31F4307
:100E60004C6900EBC404C4F840320C890B6864F38D
:100E70001F434C6900EBC404C4F84432CB69012B16
:100E800016D1D0F80C321343C0F80C320C884B68E2
:100E900064F31F434C6900EBC404C4F840320C896E
:100EA000CB6864F31F434C6900EBC404C4F84432BC
:100EB0008B69002BD0F804320ED01343C0F80432F3
:100EC0000B69002BD0F8143208D01343C0F8143249
:100ED000096A012904D008E09343EFE79343F5E75B
:100EE000D0F81C121143C0F81C12D0F8001221F0E7
:100EF0000101C0F80012002010BD00000064004095
:100F0000704730B590F82040012C05D0022C03D05A
:100F1000416A41F480215DE00468002955D02469CC
:100F2000A40754D04FF4D874056804EB01142D596C
:100F300015F00405956005682D594ED0ED085560F3
:100F400005682C5904F00204D4604FF4DA74056883
:100F500004EB01142D5905F00F05156105682D5995
:100F6000C5F30725956105682C59240C54614FF48D
:100F7000DC72046802EB0112A4581C700468A458C7
:100F8000240A5C700468A458240C9C700468A2585D
:100F9000120EDA704FF4DE72046802EB0112A458EC
:100FA0001C710468A458240A5C710468A458240CB9
:100FB0009C710468A258120EDA71006881B101694F
:100FC00041F020010161002030BDE468A8E7416ADA
:100FD00041F400114162012030BD6D0D1560AFE795
:100FE000C16841F02001C160EDE72DE9F05F0546E1
:100FF000006800244669D0F804908768D0F80CB0E7
:10100000D0F810A0D0F81880F10748D0F90714D014
:1010100001218160B80703D5284600F034FA0CE0BE
:10102000780702D54FF4006407E0380702D54FF483
:10103000805402E0284600F025FAF80516D5296804
:101040004FF480708860B80503D5284600F01DFA7B
:101050000CE0780502D544F4005407E0380502D5C9
:1010600044F4804402E0284600F00EFAF80316D556
:1010700029684FF480308860B80303D5284600F013
:1010800006FA0CE0780302D544F4004407E0380384
:1010900002D544F4803402E0284600F0F7F9300726
:1010A00007D55FEACB6004D52968102044F40074AA
:1010B000C86070074FF0080707D55FEA0B7004D5CA
:1010C0002868C760284600F0ABF9B00706D5286845
:1010D000C068800702D0284600F0A3F9700607D543
:1010E0005FEACA6004D52968102044F4806408616E
:1010F000B00607D55FEA0A7004D52868076128465C
:1011000000F090F9F00606D528680069800702D043
:10111000284600F088F9B00308D55FEAC96005D514
:10112000296810204860284600F07EF9F00307D5B2
:101130005FEA097004D528684760284600F0A8F9DE
:10114000300446D55FEA497040D5F00504D55FEA22
:10115000C87001D044F00104B00504D55FEA88707E
:1011600001D544F00204700504D55FEA487001D54A
:1011700044F00404300529D518F0700F26D008F08B
:101180007000402815D006DC102809D020280AD08D
:10119000302816D10AE050280ED0602811D10EE078
:1011A00044F008040DE044F010040AE044F0200488
:1011B00007E044F0400404E044F0800401E044F41B
:1011C00080742868816921F0700181612968042098
:1011D0004860002C05D0686A204368622846FFF703
:1011E0008FFEBDE8F09F70B5040003D094F8200096
:1011F00010B104E0012070BD204600F081F82068A5
:10120000016841F00101016000F0D0FB05460526B0
:1012100004E000F0CBFB401B0A2811D8206840688E
:10122000C007F6D02068016821F00201016000F0DB
:10123000BDFB05460BE000F0B9FB401B0A2806D9B0
:10124000606A40F40030606284F82060D2E7206871
:1012500040688007EFD4207E0128206801683DD0D7
:1012600021F080010160607E01282068016838D08B
:1012700021F040010160A07E01282068016833D080
:1012800021F020010160E07E0128206801682ED055
:1012900041F010010160207F01282068016829D0F9
:1012A00021F008010160607F01282068016824D0D6
:1012B00021F004010160D4E902010843D4E90412D9
:1012C000114308436168491E08432168C861002032
:1012D0006062012084F82000002070BD41F0800190
:1012E000C0E741F04001C5E741F02001CAE721F025
:1012F0001001CFE741F00801D4E741F00401D9E73C
:10130000F0B587B0044614216846FFF72DF93F4B2E
:101310003F48DFF8F4E01968D4F800C03C4A0225E1
:101320000326092710300024491CF4452CD11960EC
:10133000012907D1016841F000710160006800F0E7
:1013400000700590106840F001001060106802AB5A
:1013500000F0010005904FF4C050CDE9000583E88E
:10136000D00069462B4800F029FA002209211320F9
:1013700000F0EEFB132000F0DDFB00220A21142018
:1013800000F0E6FB14203BE0DFF88CE0F44539D1B7
:10139000D0F800C04CF0806CC0F800C0D0F800C09D
:1013A00001290CF0806CCDF814C0196007D10168D8
:1013B00041F000710160006800F000700590106855
:1013C00040F002001060106802AB00F002000590CF
:1013D0004FF44050CDE9000583E8D00069460F483E
:1013E00000F0ECF9002209213F2000F0B1FB3F2082
:1013F00000F0A0FB00220A21402000F0A9FB4020C1
:1014000000F098FB07B0F0BD006400403000002001
:1014100030380240000002400068004000040240F2
:1014200070477047704770477047000070B50446BA
:1014300090F82000012804D0606A40F40020606227
:1014400018E0022084F820002068016821F00101E2
:10145000016000F0ABFA05460EE000BF00F0A6FA0E
:10146000401B0A2808D9606A40F4003060620520F9
:1014700084F82000012070BD20684068C007EDD1CD
:10148000606270BD70477047704770477047704723
:1014900070472DE9F0410446876D00F087FA064653
:1014A00094F835000025022806D08020606584F875
:1014B00034500120BDE8F0812068016821F0160158
:1014C00001602068416921F080014161206C08B908
:1014D000A06C20B12068016821F00801016020683B
:1014E000016821F0010101600CE000F05FFA801B4F
:1014F000052807D920206065032084F8350084F88A
:101500003450D7E720680068C007EED194F85C102B
:101510003F208840B860012084F8350084F83450BA
:101520000020C7E790F83510022903D080214165DB
:1015300001207047052180F835100068016821F00E
:1015400001010160002070472DE9F84304464FF087
:101550000009CDF8009063484FF41651A56D00685E
:10156000B0FBF1F72E6894F85C10082000FA01F146
:1015700031420FD021680A6852070BD50A6822F061
:1015800004020A6094F85C108840A860606D40F026
:101590000100606594F85C104FF0010808FA01F052
:1015A000304208D021684969090604D5A860606DF9
:1015B00040F00200606594F85C10042088403042DE
:1015C00008D021680968890704D5A860606D40F0DB
:1015D0000400606594F85C1010208840304218D0F8
:1015E00021680968090714D5A860206801684903C3
:1015F00004D50068000308D5A16C07E00168C9059F
:1016000003D4016821F008010160216C09B1204672
:10161000884794F85C1020208840304231D02168FF
:101620000968C9062DD5A86094F8350005282068FA
:10163000016806D0490347D5006800031DD4616CDA
:101640001CE021F0160101602068416921F0800151
:101650004161206C08B9A06C20B12068016821F0BC
:101660000801016094F85C103F208840A86084F86D
:10167000358084F83490216D1FE0E16B09B120467C
:101680008847606D00282BD0606DC00714D00520FE
:1016900084F835002068016821F00101016000989C
:1016A000401C0090B84203D820680068C007F6D1FB
:1016B00084F8358084F83490E16C002910D001B0B2
:1016C0002046BDE8F04308470168C905D5D4016844
:1016D00021F01001016084F8358084F83490CCE763
:1016E000BDE8F883400000202DE9F041044600F0F9
:1016F0005DF906465CB1022084F83500002584F8C7
:1017000034502068016821F0010101600DE00120E2
:10171000BDE8F08100F04AF9801B052805D920209A
:101720006065032084F83500F2E720680068C00790
:10173000F0D12268116820480140D4E90103184320
:10174000D4E903363343184363691843A369184344
:10175000E3691843236A18430843616A042903D1E3
:10176000D4E90B1319430843106020684069666A86
:1017700020F0070130460E43012704280CD1A06A4F
:101780000643E06A40B12046FFF74EF820B1402002
:10179000606584F83570BAE7206846612046FFF737
:1017A0002FF894F85C203F2191408160656584F8B2
:1017B00035700020ACE700003F8010F02DE9F84FB5
:1017C000DFF8BCA10022012503264FF00F090AF122
:1017D000040BAAF1040E00BF0B6805FA02F42340C3
:1017E000A34270D10F7907F00307012F01D0022F18
:1017F00016D187684FEA420806FA08FC27EA0C0768
:10180000D1F80CC00CFA08FC4CEA070CC0F808C070
:101810004768A7430C79C4F3001494403C434460E8
:101820000C79E443A4070AD0C4684FEA420C06FAD4
:101830000CF7BC438F6807FA0CF72743C7600C7995
:1018400004F00304022C12D1D40800EB840CDCF861
:1018500020405707FF0E09FA07F824EA0804D1F8D8
:10186000108008FA07F848EA0408CCF820800468D9
:101870004FEA420C06FA0CF7BC430F7907F0030756
:1018800007FA0CF7274307604C6814F4403F70D008
:101890003C4C276847F480472760246822F0030700
:1018A00004F480440094384C07EB040CDCF808483E
:1018B00097074FEA177809FA08F7BC43334FB84245
:1018C00002D1002724E054E0314FB84201D1012772
:1018D0001EE0304FB84201D1022719E02E4FB84226
:1018E00001D1032714E02D4FB84201D104270FE0A6
:1018F0002B4FB84201D105270AE02A4FB84201D147
:10190000062705E0284FB84201D1072700E0082745
:1019100007FA08F72743CCF80878DAF8004057466A
:10192000D1F804C09C435FEACC2C00D51C433C603A
:10193000DBF800405F46D1F804C09C435FEA8C2C82
:1019400000D51C433C60DEF800407746D1F804C067
:101950009C435FEA8C3C00D51C433C60084F083F29
:101960003C68D1F804C09C435FEACC3C00D51C43E2
:101970003C60521C102AFFF42FAFBDE8F88F000026
:10198000083C014044380240003001400000024061
:101990000004024000080240000C02400010024017
:1019A0000014024000180240001C024001488068F8
:1019B000704700003400002070B5040011D0216889
:1019C0004CF6CC400860216845F255500860D4E9D7
:1019D000000141602168A0688860FFF7E7FF0546C5
:1019E0000DE0012070BD00BFFFF7E0FF401B312874
:1019F00005D92068C068800701D0032070BD206829
:101A0000C0688007F0D121684AF6AA20086000204B
:101A100070BD00684AF6AA210160002070470000EE
:101A200002488168027811448160704734000020C8
:101A30000B4810B5016841F400710160016841F480
:101A400080610160016841F480710160032000F051
:101A50009FF80F2000F006F800F050F8002010BDAD
:101A6000003C024030B505461F4887B0002401689D
:101A700041F480710160006806A900F48070009054
:101A800001A800F031F90498A8B100F04DF9400028
:101A90001649174AB0FBF1F11648491E026040F2A0
:101AA000E732C0E90324C0E90114846100F08EFB31
:101AB000040003D015E000F037F9E9E70D4800F025
:101AC000E5FB04000DD12D2000F034F8102D07D2D5
:101AD000002229462D2000F03BF80748056000E071
:101AE000012407B0204630BD4038024040420F007C
:101AF00000200040AC070020380000200C4882B0D5
:101B0000016841F480410160006800F48040009069
:101B10000748001F016841F0805101600068002201
:101B200000F0805000900F21901E02B000F010B81D
:101B300044380240002809DB00F01F0201219140D7
:101B40004009800000F1E020C0F80011704700005B
:101B5000F0B40E4B1B680C46C3F30223C3F1070518
:101B6000042D00D90425191D072901D2002300E006
:101B7000DB1E012606FA05F1491E214099409E40D0
:101B8000761E16403143F0BC03F0F0B80CED00E0D7
:101B9000064900F0070208684FF6FF03184040EAC4
:101BA0000220034A10430860704700000CED00E07B
:101BB0000000FA052DE9F0470E46050065D0DFF874
:101BC0001481D8F80000F7B200F00700B04207D245
:101BD00088F80070D8F8000000F00700B04254D137
:101BE00028683D4C810712D5400703D5206840F492
:101BF000E05020602878000703D5206840F460405A
:101C000020602068A96820F0F00008432060287850
:101C1000C0072DD0304968680839012812D0022841
:101C200013D0032811D00968890700292DDA21680B
:101C300021F0030101432160FFF7B8FE814641F224
:101C4000883A0EE009688903EFE709688901ECE743
:101C5000FFF7ACFEA0EB0901514502D90320BDE816
:101C6000F0872068696800F00C00B0EB810FEFD1BD
:101C7000D8F80010404601F00701B14207D90770BB
:101C8000006800F00700B04201D00120E7E72878A3
:101C9000400705D52068E96820F4E050084320603B
:101CA0002878000706D52068296920F4604040EABA
:101CB000C100206000F058F82168084AC1F3031100
:101CC000515CC8400649086006480068FFF7CAFE34
:101CD0000020C4E7003C024008380240F87B0008BE
:101CE00040000020380000200F2202600C4A1368D8
:101CF00003F003034360136803F0F0038360136889
:101D000003F4E053C36012684FF4E05303EAD202D5
:101D100002610448006800F0070008607047000096
:101D200008380240003C0240044805490068096840
:101D3000044AC1F38221515CC84070474000002032
:101D400008380240087C0008044805490068096812
:101D5000044AC1F34231515CC84070474000002042
:101D600008380240087C0008154810B5006810F0DB
:101D70000C02144813D01449042A0FD0082A0ED19B
:101D80000F4C241F2268236802F03F025B0207D534
:101D90002068C0F38810A0FB010106E0084610BDD2
:101DA0002168C1F38811A1FB00010023FEF7CCFAE2
:101DB0002168C1F30141491C4900B0FBF1F010BD9D
:101DC000083802400024F40040787D012DE9F84FE6
:101DD00004006ED02078DFF84C93C007A9F1040509
:101DE0004AD009F104000168C1F38101012908D03A
:101DF0000068C0F3810002280AD1D9F8000040022F
:101E000006D52868800337D560680028E1D033E024
:101E10006068B0F5803F10D0B0F5A02F286810D0D2
:101E200020F480302860286820F4802028606068D2
:101E3000A8B1FFF7BBFD06460DE0286840F48030EE
:101E4000F4E740F480202860F7E700BFFFF7AEFD1D
:101E5000801B642873D828688003F7D50CE0FFF74F
:101E6000A5FD064605E000BFFFF7A0FD801B642826
:101E7000F0D828688003F7D42078DFF8AC82800798
:101E80004FF0000A3ED5A748001D016811F00C0F65
:101E900008D00068C0F3810002280BD1D9F80000F7
:101EA000400207D42868800716D5E068012800D1D1
:101EB00012E033E1E068B8B10120C8F80000FFF794
:101EC00075FD064605E000BFFFF770FD801B022888
:101ED000C0D828688007F7D52868216920F0F80065
:101EE00040EAC10028600DE0C8F800A0FFF75EFDE1
:101EF000064604E0FFF75AFD801B02281FD8286819
:101F00008007F7D42078000722D5864F874861697B
:101F1000703771B101210160FFF748FD064604E00A
:101F2000FFF744FD801B022809D838688007F7D5E1
:101F30000EE0C0F800A0FFF739FD064605E082E09C
:101F4000FFF734FD801B02287DD838688007F7D45E
:101F50002078400768D5DFF8CCB100270BF13C0BA7
:101F6000DBF80000C0000BD4DBF8001041F080511A
:101F7000CBF80010DBF80000012700F08050009043
:101F80006B4E3068C00510D4306840F4807030600B
:101F9000FFF70CFD009005E0FFF708FD0099401ADF
:101FA000022850D83068C005F6D55E4EA0686C3661
:101FB00001280FD00528306810D020F001003060D3
:101FC000306820F004003060A068B8B1FFF7EEFC84
:101FD00000900FE0306840F00100F4E740F00400AA
:101FE0003060F7E7FFF7E2FC0099411A41F28830D0
:101FF000814266D830688007F4D50EE0FFF7D6FC42
:10200000009007E0FFF7D2FC0099411A41F28830B6
:10201000814256D830688007F4D42FB1DBF8001025
:1020200021F08051CBF80010A069C8B33D49091DCB
:102030000968C1F3810102294AD00228504607D01D
:10204000C8F8600000E03CE0FFF7B0FC04463BE06D
:102050004746C8F86000FFF7A9FC064605E000BF48
:10206000FFF7A4FC801B02282BD828688001F7D436
:10207000D4E907010843A16A2E4A490802EB01414D
:10208000626A41EA8211084394F82C1040EA016127
:10209000C9F8001001203866FFF788FC044606E006
:1020A0003EE000BFFFF782FC001B022809D8286829
:1020B0008001F7D534E000BFFFF778FC001B022851
:1020C00002D90320BDE8F88F28688001F4D427E006
:1020D0000128F7D0D9F80000E26900F480019142AC
:1020E0001CD1226A00F03F01914217D147F6C0711E
:1020F000626A0140B1EB821F10D1A26A4FF0FF3338
:1021000000F4403103EB5202B1EB024F06D194F8D8
:102110002C1000F07060B0EB016F01D00120D1E70E
:102120000020CFE70438024000004742800E4742BB
:10213000007000400000FFFF7047704770B590F8D6
:102140003C20012A32D0012480F83C40022280F851
:102150003D2003685A689D6822F070060A68324381
:102160005A60134B02689A4214D0B2F1804F11D0DA
:10217000104B9A420ED0104B9A420BD00F4B9A4202
:1021800008D00F4B9A4205D00E4B9A4202D00E4B0C
:102190009A4204D1496825F080031943916080F880
:1021A0003D40002180F83C10084670BD022070BD03
:1021B000000001400004004000080040000C004006
:1021C00000040140004001400018004010B5040028
:1021D00003D094F83D0010B107E0012010BD0020AD
:1021E00084F83C00204600F01FF8022084F83D00EF
:1021F000211D206802F00EFB012084F8460084F8BF
:102200003E0084F83F0084F8400084F8410084F8E0
:10221000420084F8430084F8440084F8450084F8C0
:102220003D00002010BD000008B5154A01681548A2
:1022300091420ED1016841F0020101600068002264
:1022400000F0020000900D211D20FFF781FC1D20F1
:1022500010E00D4A914211D1016841F0080101607E
:102260000068002200F00800009006213220FFF7ED
:102270006FFC3220BDE80840FFF75CBC08BD0000E1
:102280000004004040380240000C004090F83D102F
:10229000012901D001207047022180F83D1001681A
:1022A000CA6842F00102CA6000681149884214D02D
:1022B000B0F1804F11D00F4988420ED00E498842AC
:1022C0000BD00E49884208D00D49884205D00D49EF
:1022D000884202D00C49884204D1816801F007018C
:1022E000062903D0016841F0010101600020704718
:1022F000000001400004004000080040000C0040C5
:1023000000040140004001400018004070B5044640
:1023100090F83C000025012817D0012684F83C6085
:10232000022084F83D002068826822F0770222F4BF
:102330007F4282600868502838D00DDC20284FD0BA
:1023400005DC90B3102811D14AE0022070BD30287E
:1023500046D040280AD13BE060282FD070280DD00D
:10236000B0F5805F03D0B0F5005F12D0012584F88E
:102370003D60002084F83C00284670BDCB68D1E960
:102380000121206802F0AAFA2068816841F07701F3
:1023900009E0CB68D1E90121206802F09FFA2068AA
:1023A000816841F480418160E1E719E0CA684968C9
:1023B000206802F0A5FA5021206806E0CA68496842
:1023C000206802F0AEFA6021206802F091FACEE7B0
:1023D000CA684968206802F093FA40212068F4E74F
:1023E000226801461046F0E7704770B50446006861
:1023F00001694FF00005C943890715D4C168C94375
:10240000890711D4E91E01610120207720688069C5
:102410008007204602D0FFF7E7FF04E000F098F8BD
:10242000204600F096F8257720680169C9434907DE
:1024300017D4C168C943490713D46FF0040101617F
:10244000022020772068806910F4407F204602D067
:10245000FFF7CAFF04E000F07BF8204600F079F8AF
:10246000257720680169C943090716D4C168C943A3
:10247000090712D46FF00801016104202077206859
:10248000C0698007204602D0FFF7AEFF04E000F0ED
:102490005FF8204600F05DF8257720680169C943A0
:1024A000C90617D4C168C943C90613D46FF0100117
:1024B0000161082020772068C06910F4407F204621
:1024C00002D0FFF791FF04E000F042F8204600F050
:1024D00040F8257720680169C943C90708D1C16858
:1024E000C943C90704D1891E0161204600F032F8B2
:1024F00020680169C943090609D4C168C9430906AE
:1025000005D46FF0800101612046FFF715FE2068B9
:102510000169C943490609D4C168C943490605D4BC
:102520006FF040010161204600F04CF8206801691D
:10253000C94389060BD4C168C943890607D46FF023
:10254000200101612046BDE87040FFF7F6BD70BD77
:102550007047704710B5044600681549884201D19C
:10256000FFF75EFA13492068884201D1FFF758FA55
:1025700011492068884219D1FFF752FA0F4803F039
:10258000AFFA0E48801D03F0B5FA0C480C3003F08A
:10259000BBFA0B4803F082FA09480C3003F096FAB4
:1025A0000648BDE81040801E03F080BA10BD000050
:1025B0000020004000040040000C00400200002009
:1025C000DC0100207047704770470000F8B50168D3
:1025D00004460868CA684B6910F00F0F4FF00005F9
:1025E00059D003F0010602F49077374365D0C10754
:1025F00005D0D10503D5216C41F0010121644107CB
:1026000005D5D90703D0216C41F00201216481076F
:1026100005D5D90703D0216C41F0040121640107DD
:1026200007D502F02001314303D0216C41F00801AD
:102630002164216C00293AD0800604D5900602D589
:10264000204602F0D4F920684069216CC0F3801064
:10265000090700D460B3204602F0A2F9206840695F
:10266000400621D52068143050E8001F21F04001B9
:1026700040E80012002AF5D1A06BA8B16C490165B1
:10268000A06BFEF74FFF002811D0A06B016D01B0C9
:10269000BDE8F040084783060FD593060DD52046C8
:1026A000BDE8F84002F0A3B92046FFF78DFFF8BD62
:1026B0002046FFF789FF2564F8BD266B2023012EF5
:1026C00079D1C60677D5D60675D5086848680090D2
:1026D0004869400640D5A16B086840680004000CBA
:1026E000EAD0A28D8242E7D9E085C869B0F5807F43
:1026F0002DD020680C3050E8001F21F4807140E894
:102700000012002AF5D12068143050E8001F21F093
:10271000010140E80012002AF5D12068143050E889
:10272000001F21F0400140E80012002AF5D184F892
:102730003E30256320680C3050E8001F21F0100166
:1027400040E80012002AF5D1A06BFEF7A2FEA08D92
:10275000E18D401A81B229E0A08DE18D401A81B24D
:10276000E08D0028A8D00029A6D020680C3050E8C1
:10277000002F22F4907240E80026002EF5D1206848
:10278000143050E8002F22F0010240E80026002E0D
:10279000F5D184F83E30256320680C3050E8002FD6
:1027A00022F0100240E80023002BF5D12046FFF76D
:1027B0000AFFF8BDFFE705062BD5150629D594F8C5
:1027C0003D002128F5D1A068B0F5805F01D12069D6
:1027D000B0B1206A411C2162216800784860E08C19
:1027E000401E0004000CE084E3D12068C16821F0A1
:1027F0008001C1602068C16841F04001C160D8E734
:10280000206A0088C0F308004860206A801C2062AB
:10281000E5E74006CDD55006CBD5CA68204622F064
:102820004002CA6084F83D3000F03DFAC1E7000084
:102830009149000870B5040004D094F83D000025CB
:1028400010B106E0012070BD84F83C50204600F035
:1028500023F8242084F83D002068C16821F4005149
:10286000C160204602F024F92068016921F49041FA
:1028700001612068416921F02A0141612068C16835
:1028800041F40051C1602564202084F83D0084F8A3
:102890003E00002070BD00002DE9F04F87B00646D5
:1028A00014216846FDF760FE96499648944B3268BD
:1028B000002410380325DFF850C24F054FF00208FE
:1028C0004FF008094FF4806A4FF4807B9A4234D16C
:1028D0000A6842F400220A60096801F400210591A7
:1028E000016841F0010101600068CDE9005800F085
:1028F0000100CDE9049069466046CDE90245FEF746
:102900005DFF834D81482860C5E90174C5E9034A2C
:102910006C61C5E9064BF812C5E908042846FEF7C4
:10292000E3FE08B1FEF7A4F8B563002207213420C6
:10293000AE63FFF70DF9342034E0764B9A4236D17E
:102940000A6842F480120A60096801F48011059156
:10295000016841F004010160016801F00401059182
:10296000016841F008010160006802AA00F0080057
:1029700005909814CDE9000882E83002694666485F
:10298000FEF71CFF0420CDE9000802AA694682E890
:1029900030026248FEF712FF002205213520FFF7C2
:1029A000D7F83520FFF7C6F807B0BDE8F08F5C4BCD
:1029B000DFF850E19A420EF1040E3CD1DEF800201F
:1029C00042F01002CEF80020DEF8001001F01001F5
:1029D0000591016841F0010101600068029400F076
:1029E000010005904FF4C060CDE900080720CDE953
:1029F000035069466046FEF7E1FE454D49486035A3
:102A00002860C5E90174C5E9034A6C61C5E9064B54
:102A10004FF44030C5E908042846FEF765FE08B1CA
:102A2000FEF726F8B563002207212520AE63FFF7E5
:102A30008FF82520B6E73C4B9A4239D10A6842F418
:102A400000320A60096801F400310591016841F023
:102A5000010101600068029400F0010005900C2063
:102A6000CDE900080720CDE9035069466046FEF72E
:102A7000A5FE274D2548C03548302860C5E90174BA
:102A8000C5E9034A6C61C5E9064B4FF44030C5E91E
:102A900008042846FEF728FE08B1FDF7E9FFB563F4
:102AA000002208212620AE63FFF752F8262079E79E
:102AB0001E498A427FF478AFDEF8002042F02002FF
:102AC000CEF80020DEF8001001F020010591016829
:102AD00041F004010160006802AA00F004000590C2
:102AE000C020CDE9000882E8300269460A48FEF7B6
:102AF00065FE00220F214720FFF72AF8472051E703
:102B0000004C00404038024000000240406002405B
:102B10008C0600200050004000080240000C0240DB
:102B20000010014040640240004400400014014095
:102B30002DE9F84F044690F83E009A4616460D4699
:102B4000202853D1FDB1F6B194F83C0001284DD0B6
:102B5000012084F83C0000272764222084F83E00EE
:102B60002763FEF723FFA6858146E685A0684FF41C
:102B70008058404501D1206940B12E465FF00005E4
:102B800084F83C7027E00120BDE8F88F0026F7E7C5
:102B90004B46002220212046CDF800A002F00EF87E
:102BA00008B10320F0E726B1A06840451BD038B13A
:102BB00008E020684068C0F3080025F8020B07E031
:102BC000206980B12068406800F07F0006F8010BA2
:102BD000E08D401EE085E08D0028D9D1202084F8CA
:102BE0003E000020D0E720684068EFE70220CBE7F6
:102BF000704700002DE9F843044690F83D001F4659
:102C000016460D4620284CD1C5B1BEB194F83C0003
:102C1000012846D0012084F83C004FF00008C4F899
:102C20004080212084F83D00FEF7C0FEA684814646
:102C3000E684A068B0F5805F03D004E00120BDE821
:102C4000F883206928B12E465FF0000584F83C80A7
:102C50000EE00026FAE78021204601F0AFFFA0B980
:102C6000AEB116F8010B21684860E08C401EE0848C
:102C7000E08C4B464FF0000200970028EBD14FF05C
:102C80004001204601F09AFF30B10320D7E735F824
:102C9000020BC0F30800E6E7202084F83D00002086
:102CA000CDE70220CBE7704708B50A4C04F068F97D
:102CB00000902078012802D0022803D004E002F01E
:102CC0005DFF01E000F0C8FF0321684603F07EFECF
:102CD000ECE70000B0000020FEE700000D480068AF
:102CE000A0F50071063913D10B4801884ABA094989
:102CF0003C390A82428852BA12B200EE102AB8EE6B
:102D0000C00A81ED050A828852BA0A8380798876E2
:102D10007047000098460020C80000201448006852
:102D2000A0F50071053921D11249DFED130A088899
:102D300042BA0F48203802804B885BBA1BB200EEC3
:102D4000103AB8EEC00A80ED010A00EE102A8B8816
:102D5000B8EE400A5BBA0381897920EE200ADFEDE4
:102D6000070A817220EE200A80ED030A70470000F6
:102D70007C460020C0000020000000390000B44361
:102D800000B589B0002108220291CDE9031240F27A
:102D9000FF120092020A8DF818208DF819008DF8A4
:102DA0001A108DF81B10079108AB06AA6946024855
:102DB000FDF7B2FF09B000BD4C040020114810B56A
:102DC000114903790022B1F84C10012B02D1C180C6
:102DD00001810271C1800389994202D201244471A8
:102DE00002E04479012C02D14489641C4481448965
:102DF000B4F5FA7F03D3994201D142814271018136
:102E000010BD0000AC010020DA4A00202DE9F0419D
:102E100004004FF0000609D07B4D20687B4F2860EE
:102E2000207928712078A52803D0E9E00120BDE8A9
:102E3000F0810521204601F043FF4FF001080128F1
:102E40004DD161782046093101F01CFF012846D19F
:102E5000B4F80500012640F20222A0F202219042BD
:102E600076D017DC40F20112A0F20111904254D04A
:102E700006DC062833D2DFE800F0B62433363B43C5
:102E800001294FD0032952D0042955D0B1F5807FB4
:102E900025D155E05C48803006297DD006DC062926
:102EA0001DD2DFE801F0A05A5F62656E07297BD072
:102EB00008297ED0FF296ED0A1F5807101390ED18D
:102EC00089E0D4F80700C5F80500D4F80B00C5F870
:102ED0000900B4F80F00A5F80D00607CE87382E0EB
:102EE000E07928747FE048482022E11D11306FE02E
:102EF000B4F80700A5F83100607A85F8330072E075
:102F0000D4F807006863D4F80B00A863B4F80F0086
:102F1000A887607C85F83E0065E0D4F80700C5F816
:102F20003F0060E0D4F80700C5F843005BE0B4F868
:102F30000700A5F8470056E0E07985F8490052E01F
:102F4000FDF79EFC30481B22E11D4A3040E0FFE7C0
:102F50002D481022E11D65303AE02B481022E11D7A
:102F6000753035E0E17941713DE0E17981713AE018
:102F7000E179C171080936D187F8028033E00BE0AE
:102F800012E0D4F807108160B4F80B108181617BE6
:102F9000817328E00DE017E0D4F8071040F80F1F08
:102FA000B4F80B1081801EE0D4F80710C0F815109B
:102FB00019E0D4F8071040F8191FD4F80B1041603D
:102FC000D4F80F1081600EE00F481022E11D9F30F1
:102FD000FDF731FA07E00C480F22E11DAF30FDF795
:102FE0002AFA87F80180B5F801000934015DA529A6
:102FF00002D12044FFF70AFF16B187F8008001E0F4
:1030000000203870304612E7DA4A0020AC01002078
:10301000104810B50E4901600321416000214FF4B2
:1030200000228160C0E903124FF440124261017630
:10303000012242768176C17601774277FEF7D3F896
:10304000002803D0BDE81040FDF712BD10BD000000
:10305000006400404C040020104810B50E49016087
:103060000321416000214FF400228160C0E9031276
:103070004FF4401242610176012242768176C17698
:1030800001774277FEF7AFF8002803D0BDE8104083
:10309000FDF7EEBC10BD0000006800407404002085
:1030A000154808B5016841F400110160016801F498
:1030B00000110091016841F4800101600068002264
:1030C00000F48000009005210D20FEF741FD0D2049
:1030D000FEF730FD002205211020FEF739FD1020FB
:1030E000FEF728FD002205213A20FEF731FDBDE85C
:1030F00008403A20FEF71EBD3038024010B5B2B08D
:103100001C2227496846FDF7DBF90021684602F0DA
:10311000B3FE244C22491C2220601C3107A8FDF775
:10312000CFF9002107A802F0A7FE1D4960601C220C
:1031300038310EA8FDF7C4F900210EA802F09CFE5C
:103140001749A0601C22543115A8FDF7B9F90021D8
:1031500015A802F091FE1249E0601C2270311CA8F3
:10316000FDF7AEF900211CA802F086FE0C49206193
:103170001C228C3123A8FDF7A3F9002123A802F01B
:103180007BFE074960611C22A8312AA8FDF798F947
:1031900000212AA802F070FEA06132B010BD00002C
:1031A0002C7B000814000020154808B5016841F088
:1031B00080010160016801F080010091016841F027
:1031C00001010160016801F001010091016841F015
:1031D00002010160016801F002010091016841F003
:1031E00004010160016801F004010091016841F0EF
:1031F00008010160006800F00800009008BD0000B0
:1032000030380240094810B5074901600321416088
:103210004FF4FA718160FEF7CFFB002803D0BDE8C0
:103220001040FDF725BC10BD003000409C0400207C
:1032300010B586B0002417480094019402940394BA
:1032400004941349059401605321C0E9011440F628
:10325000B731C0E903148461FEF7B8FF08B1FDF788
:1032600007FC4FF48050009069460A48FFF74EF87B
:1032700008B1FDF7FDFB049404A906480594FEF788
:103280005DFF002801D0FDF7F3FB06B010BD000084
:10329000000C0040F00400200C4810B50A49016001
:1032A0004FF4E1314160002181600C22C160C0E92E
:1032B00004128161C161FFF7BDFA002803D0BDE8A7
:1032C0001040FDF7D5BB10BD004C00403805002074
:1032D0000C4810B50A4901604FF46121416000219A
:1032E00081600C22C160C0E904128161C161FFF7F5
:1032F000A1FA002803D0BDE81040FDF7B9BB10BD0E
:10330000005000407C0500200C4810B50A490160BF
:103310004FF4E1314160002181600C22C160C0E9BD
:1033200004128161C161FFF785FA002803D0BDE86E
:103330001040FDF79DBB10BD00100140C0050020EE
:103340000C4810B50A4901600B49416000218160B9
:103350000C22C160C0E904128161C161FFF76AFA01
:10336000002803D0BDE81040FDF782BB10BD00006F
:103370000044004004060020A08601000C4810B55F
:103380000A4901604FF4E1314160002181600C2263
:10339000C160C0E904128161C161FFF74BFA0028E6
:1033A00003D0BDE81040FDF763BB10BD0014014021
:1033B00048060020FEE700000F4841890F48B1F59C
:1033C000C86F03D30189491C018105E0B1F5C87FAD
:1033D00002D84189491C418103894FF47A72002146
:1033E000934202D30123037101814389934202D3A3
:1033F0000222027141817047E4440020AC000020A9
:103400002DE9F043DFF84C82934D6427DFED930AFA
:103410009FED931AD8F80000A8F58A76A0F5007100
:10342000A6F14804013932D1B06A411CB162322898
:1034300003D8304602F042FB03E000218948FDF743
:10344000F7FBB762288840BA2080698849BA09B278
:1034500000EE101AB8EEC00A84ED010A00EE100A60
:10346000A988B8EE400A49BA2181A97920EE200A3C
:10347000A17220EE010ABCEEC00A10EE100AE07242
:10348000784802F04BFB00217648FDF7D1FBD8F8D5
:103490000000A0F50071023935D1706D411C7165D5
:1034A00070492C318946322803D8084602F006FBC1
:1034B00003E001214846FDF7BBFB7765288840BA49
:1034C000A081698849BA09B200EE101AB8EEC00AA4
:1034D00084ED040A00EE100AA988B8EE400A49BA41
:1034E000A182A97920EE200AA17520EE010ABCEE86
:1034F000C00A10EE100AE075484602F00FFB0121E9
:103500004846FDF795FBD8F80000A0F50071033997
:103510003AD1D6F88000411CC6F880105149583184
:103520008946322803D8084602F0C8FA03E002218F
:103530004846FDF77DFBC6F88070288840BA208396
:10354000698849BA09B200EE101AB8EEC00A84EDD3
:10355000070A00EE100AA988B8EE400A49BA218489
:10356000A97920EE200A84F8221020EE010ABCEE90
:10357000C00A10EE100A84F82300484602F0CEFA82
:1035800002214846FDF754FBD8F80000B0F5017F52
:103590003AD1D6F8AC00411CC6F8AC1031498431A0
:1035A0008846322803D8084602F088FA03E003214F
:1035B0004046FDF73DFBC6F8AC70288840BAA084B1
:1035C000698849BA09B200EE101AB8EEC00A84ED53
:1035D0000A0A00EE100AA988B8EE400A49BAA18585
:1035E000A97920EE200A84F82E1020EE010ABCEE04
:1035F000C00A10EE100A84F82F00404602F08EFA3E
:1036000003214046FDF714FB124894ED010A583897
:10361000154980ED000A94ED040A80ED010A94ED4D
:10362000070A80ED020A94ED0A0A80ED030A91ED83
:10363000000A80ED040A91ED120A80ED050A91ED71
:10364000240A80ED060A91ED360A80ED070ABDE8EE
:10365000F08300007C460020C000002000000039FC
:103660000000B44368450020B446002030B587B060
:1036700000240294039408240494A40100940A4CA6
:10368000050A25706070080AA070E170100A2071A8
:103690006271180AA071E37106AB224669460348BD
:1036A000FDF73AFB07B030BDD00000204C040020ED
:1036B000FEE700002DE9F0410024051D484EB0F85A
:1036C000847027E0285DC0283BD012DCA52829D0D3
:1036D00008DC902822D0A02824D0A12822D0A2281B
:1036E00017D11FE0B02825D0B12823D0B22810D19F
:1036F00020E0D12868D006DCC12822D0C22820D002
:10370000D02806D125E0D92852D0E02865D0F0286D
:1037100063D0641CA742D5DCBDE8F08168783070C6
:10372000A41CF7E7281950F8011FC6F8021080887A
:10373000F0803BE0281950F8011FB1608088B0810B
:1037400034E0281950F8011FC6F80E1080887082E6
:103750002CE028194178827801EB022109B200EEB1
:10376000101A2149F8EEC00A9FED1E0A80EE801A59
:1037700081ED001AC278037902EB032212B200EE47
:10378000902AF8EEE00A80EE801AF2EE040A81ED4B
:10379000011A4279807902EB002000B200EE100A93
:1037A000B8EEC00A80EE201A81ED021AE41DB1E7DE
:1037B0000D4829190C3851F8012FC2604A6802617E
:1037C00089680D344161A5E70748291910220C309A
:1037D000491CFCF730FE11349CE7641D9AE7000099
:1037E000680100200000C842A84A0020F0EE412AEB
:1037F000B0EE601A00B50346F0EE400AB0EE410AA2
:10380000483002F063FBD3ED1D0AB0EE620A1846A1
:1038100002F05CFB93ED0B0A83ED240A00BD00006F
:103820002DE9F0472DED048B9FED9F8ADFF87C9208
:103830009F4EA04D89ED008A86ED008A85ED008AB5
:10384000FDF744FA9C4F387801286FD1DFF86C827D
:10385000002488F8014088F8024088F8044098F86D
:1038600005009FED979ADFED979ADFED978A512833
:103870000DD057280BD0452809D0522807D05A28F8
:1038800005D04F2803D04E2801D0492864D1012209
:1038900088F8002088F80340D8F814304146B3F186
:1038A0007C5F7CDADFF824C28B69634577DD5128C1
:1038B0000CD057281AD0452828D0522837D04F2866
:1038C0006BD0492871D04E2873D040E085ED009A26
:1038D00086ED008AC88840F25552401C80B2C880EC
:1038E00090425CD30C70A8F806401DE085ED008A7C
:1038F000C6ED009A088940F6A432401C80B20881C7
:1039000090424CD30C70A8F808406FE0C5ED008AD7
:1039100086ED008A4889401C80B24881B0F5DF6F8F
:103920003DD90C70A8F80A403C7099E037E085ED6D
:10393000008AC6ED008A00F009FE40B188F8004018
:10394000A8F80C403C7086ED008A85ED008A98F856
:10395000051040465A2930D098F8000000281ED1A2
:1039600098F803004146012819D148799FED580A7B
:10397000442834D043283DD0582851D0562856D01A
:1039800054286AD0592870D047286DD0482806D1CD
:10399000C5ED008A86ED009A6BE088F80120BDEC49
:1039A000048BBDE8F08700E003E04A7088F802204D
:1039B000F5E70C7088F80320F1E7047089ED008AC0
:1039C00086ED008A85ED008AC4800481448184816B
:1039D000C48104823C70447088F80440C0E785EDDF
:1039E000008AC6ED008A09E0A8F80E403C7086ED1A
:1039F000008AD4E785ED008AC6ED009AC889401C8C
:103A000080B2C881D1ED050A60EE800A00EE100A8E
:103A1000B8EE400AF4EEC00AF1EE10FAE4D9BEE7BF
:103A200085ED009A05E000BFA8F80E407CE7C5EDE3
:103A3000008A86ED008AC889401C80B2C881D1ED19
:103A4000050A60EE800A00EE100AB8EE400AF4EEB5
:103A5000C00AF1EE10FAE7D9A1E785ED009A06E079
:103A600085ED008A9BE700E01AE0C5ED008AC6ED0F
:103A7000008A088A401C80B20882D1ED050A60EEF7
:103A8000800A00EE100AB8EE400AF4EEC00AF1EE29
:103A900010FA84D8A8F810403C7086ED008ADFE761
:103AA00085ED009A76E7000000000000FC00002091
:103AB000F8000020F4000020AD010020BC0100202F
:103AC00000007AC40080BBC400007A440000684152
:103AD0000080A64370B55948594E2DED028B027AED
:103AE0009FED588A59485549574C0078497A022A1F
:103AF00004D0032A6ED0022A73D076E0012874D055
:103B0000534D012902D0022953D06CE0FFF788FE03
:103B1000287860B101287CD14E4801780120012924
:103B200017D0002975D1617A01291AD037E0FCF746
:103B3000A1FFF0EE400AB0EE480A304602F0C6F9A6
:103B400084ED090AB0EE401AD4ED080A94ED070A94
:103B50006AE060722070BDEC028BBDE8704002F03C
:103B6000F5BD21780025012906D0607802280BD206
:103B7000A078012802D004E0A070657002F0E6FD94
:103B80002570607802280AD3B0EE480A84ED090A4D
:103B9000B0EE401AF0EE400A03F0BCF8A570607A6F
:103BA000002847D1B0EE480AB0EE401AF0EE400AC5
:103BB0003AE0FFF735FE28780028B8D0012839D13F
:103BC00000F09AFC4005EDD4BDEC028BBDE87040DE
:103BD00002F0DABD012808D001F0E2FDA7E700E01D
:103BE00003E0012801D003290BD001F0B5FFBDECA3
:103BF000028B0023BDE870401A4619461846FFF7AD
:103C000035BDFCF737FFF0EE400AB0EE480A30460B
:103C100000E00FE002F05AF984ED090AB0EE401A14
:103C2000F0EE480AB0EE480ABDEC028BBDE87040E9
:103C300003F070B8BDEC028B70BD0000E4440020BE
:103C4000D447002000000000D8000020AF00002072
:103C5000BD010020B10100202DE9F05FEE49EF4BDE
:103C60002DED068B0A7A9FEDEE8A9FEDEE9ADFED41
:103C7000EE9ADFF8B8B3EE4EB3EE0EAAFAEE0E8A65
:103C80009FEDEC1AED4DEE4CDFF8AC93187894ED07
:103C9000070ADFF8B083D5ED020A032A02D0022A10
:103CA0003ED0A6E10128FCD0088840F21451884299
:103CB00002D330EE480A04E0B0F53B7F03D830EE83
:103CC000080A84ED070A10EE100A404502DB84ED75
:103CD000079A04E0DC49884201D3C4ED079AA06842
:103CE000584502DB84ED02AA03E0B04201D3C4EDE3
:103CF000028A0120E07094ED070AD44E84ED080A90
:103D000084ED090A84ED0A0A84ED021AB6F904006A
:103D10000A2790FBF7F001EE100AB8EEC11A3AE15B
:103D20000128BED0CA48DFF82CA30078012802D0B1
:103D300000286ED0FDE001F0DBFFC748007810B12D
:103D4000012867D0F5E0D4ED030A0027F5EEC00A9C
:103D5000F1EE10FA2DD294ED040AB5EEC00AF1EEA0
:103D600010FA26DDD4ED0A0A94ED050A30EE800A39
:103D700084ED0B0A94ED061A30EE811A84ED0C1ACC
:103D8000D4ED090AF4EEC00AF1EE10FA01DB207856
:103D900028B1F4EEC10AF1EE10FA1AD926E001209A
:103DA0002070A078401CA07001F0DEFE02F00AFD39
:103DB0001CE094ED080AB4EEE00AF1EE10FA01DB23
:103DC000207850B1D4ED040AB4EEE00AF1EE10FA16
:103DD0000CD82078012808D008E001202070A078B5
:103DE000401CA07001F0C0FE00E027709AF80000AF
:103DF00010B1012806D012E09849A068884205DA7F
:103E0000974909E09749A068884204DB0120607067
:103E100005E08AE082E09449884200D36770A07888
:103E2000022843D8D4ED030A9FED900AF5EEC00AAC
:103E3000F1EE10FA29D2D4ED040AF5EEC00AF1EE43
:103E400010FA22DD2078012803D038B194ED090A58
:103E50000AE0D4ED090A30EEC00A03E0D4ED090A05
:103E600030EE800A84ED090A10EE100ADFED800AB8
:103E7000404502DB30EE600A15E010EE100A724990
:103E8000884210D330EE200A0DE02078012801D0BE
:103E900028B132E0D4ED080A30EEC00A03E0D4EDD8
:103EA000080A30EE800A84ED080A26E094ED080A3C
:103EB000DFED700A30EE200A84ED080A84ED090A6D
:103EC000D4ED040AB4EEE00AF1EE10FA06DDD4ED0A
:103ED000030AB4EEE00AF1EE10FA0DD3D4ED0C0AA9
:103EE000B4EEE00AF1EE10FA07DDD4ED0B0AB4EE01
:103EF000E00AF1EE10FA00D2A7706078012801D034
:103F000028B116E094ED020A30EE480A03E094ED81
:103F1000020A30EE080A84ED020A0AE002F008FE06
:103F200094ED080A84ED090A03E084ED080A84EDA3
:103F3000021A206A404502DB84ED089A04E04249F7
:103F4000884201D3C4ED089A9AF8000010B1012804
:103F500009D012E04849A06888420ADBB2EE040AA0
:103F600084ED020A09E0A068584502DB84ED02AA4C
:103F700003E0B04201D3C4ED028A344E0A27D5EDE6
:103F8000020AB6F9040090FBF7F000EE100AB8EE52
:103F9000C01A94ED080A28489438FFF727FCBDEEB4
:103FA000C00A10EE100AA080B6F90000D5ED010A93
:103FB00090FBF7F000EE100A4846B8EEC01A94EDF8
:103FC000020AFFF713FCBDEEC00A10EE100AE080F3
:103FD000B4F90400FEF7D4FE2848B4F90610002313
:103FE000B0F900201846BDEC068BBDE8F05FFCF789
:103FF00063BBC4ED070A0020FEF7C2FE00231A4689
:1040000019461846FCF758FB95ED020A84ED080A9C
:10401000BDEC068BBDE8F09FE4440020AF0000201B
:10402000CDCCCC3D000034C3000034430000F0414F
:10403000000070C10000000088490020DC01002061
:104040002C01002000003443000034C3080000208D
:10405000BD010020BE010020900100200000C040F2
:10406000000060C10000A041000020C1CDCC4C3E4A
:104070000000B4439A99993E000020416601002057
:104080002DE9F0476C4C01202DED028B0026DFF866
:10409000AC8120706A4898F808109FED6A8A6B4DD1
:1040A000DFF8A49100786A4F95ED010A022902D049
:1040B00003296DD09AE001287DD0DFED660A6448BF
:1040C000483801F003FFBDEEC00A10EE100A608010
:1040D00095ED040ADFED600A384601F0F7FEBDEE0B
:1040E000C00A10EE100A01B2A180B4F90200FCF778
:1040F00081FD5A485A4FDFF86CA101785A480129CE
:1041000003D079B3017869B337E098F80910012931
:1041100001D00229F6D101780129F3D100F01CFA6F
:10412000283885B200F01EFA064600F021FA1DB1CB
:10413000AE4206D2A84204D297ED010ADFED4B0A47
:1041400007E0AE4201D2A84217D397ED010AF0EE84
:10415000480A504601F0BAFEBDEEC00A10EE100A41
:10416000E0800AE0FFE74249097811B1007810B118
:1041700003E0E68001E0012905D00023B4F9062020
:10418000B9F9001051E097ED010ADFED3A0AE0E7D6
:1041900001282BD00023E6801A46B9F900101846F2
:1041A000FCF78AFA2A4895ED010AF0EE480A4838E9
:1041B00001F08CFE00E019E0BDEEC00AF0EE480A06
:1041C00010EE100A608095ED040A384601F07EFE7C
:1041D000BDEEC00A10EE100A01B2A180B4F90200CF
:1041E000BDEC028BBDE8F047FCF704BD1848E68043
:1041F000F0EE480A483801F069FEBDEEC00AF0EE64
:10420000480A10EE100A608095ED040A384601F065
:104210005DFEBDEEC00A002110EE100AA080084627
:10422000FCF7E8FC00231A461946BDEC028B00207F
:10423000BDE8F047FCF740BA60010020E4440020EC
:10424000AF00002000000000320100205045002097
:10425000FC46002000C0DAC500C0DA45900100200D
:1042600018460020AC480020BD01002000A08C456D
:10427000C001002000803BC52DE9F041384C0146CB
:1042800020462778D0E903200623A61D0025072F06
:1042900062D2DFE807F004081A1F272A31005A29E2
:1042A0005BD1012009E080F88810A52904D0A62957
:1042B00005D0A72951D105E0022020704DE0EAB3D6
:1042C000904749E00560237047E0A0F88410B17082
:1042D0000320F2E730F8842F42EA01220280F170D5
:1042E0000420EAE761800520E7E7628842EA0121CD
:1042F00061800560A580E6E70368061D5F1C076016
:10430000995590F88810A72907D10168082904D386
:104310000821A0F88410904725702069B0F8842007
:104320000168914219D390F88800A52815D10C494D
:104330000422891D881E01F08DFB00E00CE021693C
:10434000074804C9001D01F085FBA08861888842E8
:1043500002D1D4E90310884725700020BDE8F08120
:104360007C01002070B5044D0446E9608C21FCF707
:10437000FBF82C6170BD00007C01002000EBC00147
:104380000A4800EBC100011D81EC030A00219FEDEA
:10439000080A80ED0D0A9FED070A80ED0E0AB2EEC5
:1043A000040A80ED0F0A80F844107047B4460020DC
:1043B00000204B4600007A4400EBC0010A4800EBA5
:1043C000C100011D81EC030A00219FED080A80ED68
:1043D0000D0A9FED070A80ED0E0AB2EE040A80ED89
:1043E0000F0A80F844107047B446002000204B4666
:1043F00000409C4500EBC0010A4800EBC100011DD4
:1044000081EC030A00219FED080A80ED0D0A9FED63
:10441000070A80ED0E0A9FED060A80ED0F0A80F86C
:1044200044107047B44600200000FA440080BB44AA
:104430000000000000EBC0010A4800EBC100011DB4
:1044400081EC030A00219FED080A80ED0D0A9FED23
:10445000070A80ED0E0AB2EE040A80ED0F0A80F81A
:1044600044107047B446002000204B4600409C4555
:104470002DE9084002F084FD0090FEF79DFF01F059
:10448000DFFCFEF79BFC02F035FC0321684602F0DE
:104490009DFAEFE730B5154C23685D6945F040059E
:1044A0005D612368DC6844F01004DC60104B1C681C
:1044B000256825F0010525601C68256825F00105A3
:1044C00025601D680B4CAC601C68E06018680161D9
:1044D000186842601868016841F48021016018681A
:1044E000016841F00101016030BD000004060020B8
:1044F0004C070020044400400148D0F83F007047BA
:10450000DA4A0020014890F8BB007047DA4A0020E0
:104510000248D0F8AF0000EE100A7047DA4A0020D7
:104520000248D0F8B30000EE100A7047DA4A0020C3
:104530000248D0F8B70000EE100A7047DA4A0020AF
:104540000148B0F862007047DA4A0020014890F84C
:1045500095007047DA4A00200148B0F852007047D1
:10456000DA4A00200148B0F86F007047DA4A0020AC
:104570000148B0F871007047DA4A0020014890F80D
:104580004A007047DA4A002008B50A4C02F0F8FCED
:1045900000902078012802D0022803D004E002F025
:1045A00027F801E0FFF76CFD0321684602F00EFAE0
:1045B000ECE70000B000002070B500283BD0018877
:1045C000C1F30A0320490B8042788478D20842EA7A
:1045D0004412C2F30A024A808478C578A40944EAE6
:1045E0008504057944EA8524C4F30A048C8005799E
:1045F00046796D0845EAC615C5F30A05CD804579AB
:10460000AD090D724579C5F301154D72C5888D81CF
:104610000589CD8145890D82057B8D74457BCD74DF
:10462000C5898D82008A488108480178012903D014
:104630008381C281048270BD4FF480614182018216
:10464000C181818170BD0000E4440020AC000020E5
:1046500038B5284C0020A0702748FDF7DAF9274824
:1046600000680168890602D5016841680091244903
:104670000968C9063CD5016840682249009008686D
:104680000268130303684FF0240223F00103036060
:1046900014D40B685868C0F1240080B2E0805A60DE
:1046A0000A68136843F40023136009680A6842F03B
:1046B00001020A6012281BD1134815E008684368FC
:1046C000C3F124039BB2E3804260104850F8882F66
:1046D00022F4002202600868016841F001010160D3
:1046E000122B05D108481230BDE83840FFF764BFEF
:1046F00038BD0000AC0000209C040020040600200F
:10470000004400404C070020FA44002000600240B2
:10471000012001F0A5FBFBE710B5502080F31188C4
:10472000BFF34F8FBFF36F8F02F030FC18B1044915
:104730004FF080500860002080F3118810BD000009
:1047400004ED00E030B593B030216846FBF70CFF74
:1047500014210CA8FBF708FF1F480025016841F051
:1047600080510160006800F0805011901B48016882
:1047700041F4804101600068022400F480401190FF
:10478000092000904FF4803001900120CDE905040C
:1047900080050790192008904FF4A870CDE909040E
:1047A00004200B906846FDF711FB08B172B6FEE7D6
:1047B0000CA90F2081E831004FF4A0500F904FF466
:1047C0008050109005210CA8FDF7F4F9002801D0C5
:1047D00072B6FEE713B030BD4038024000700040B2
:1047E0000248016841F470010160704788ED00E003
:1047F0000148FDF7FABD0000A80400200148FDF7BC
:10480000F4BD0000F00400200148FDF7EEBD0000FB
:10481000AC070020F0B50268254C264D264E274FE8
:10482000274B4FF0804CA04209D0604507D0A842EA
:1048300005D0B04203D0B84201D0984204D122F052
:10484000700E4A6842EA0E02A0421BD0604519D0A1
:10485000A84217D0B04215D0B84213D0984211D018
:10486000184DA8420ED0184DA8420BD0174DA842A3
:1048700008D0174DA84205D0164DA84202D0164DBB
:10488000A84203D122F44075CA682A434D6922F038
:1048900080022A4302608A68C2620A688262A04279
:1048A00001D0984201D10969016301214161F0BD44
:1048B000000001400004004000080040000C0040DF
:1048C0000004014000400140004401400048014014
:1048D00000180040001C00400020004010B5846813
:1048E00042EA032224F47F440A432243826010BD3B
:1048F000826822F070020A4342F00701816070472B
:1049000010B5036A046A24F001040462846924F087
:10491000F00444EA021423F00A020A4384610262AA
:1049200010BD10B5036A23F0100303628369046AA3
:1049300023F4704343EA023224F0A00343EA011156
:104940008261016210BD000010B502F017F9BDE8E8
:1049500010400148FDF73ABE380500201CB50B4C4D
:104960002068006880060DD5102301226946204684
:10497000FEF7DEF89DF80000FFF77EFC2068016876
:10498000406801900148FDF721FE1CBD7C05002018
:1049900010B5806B0021C185C184FDF715FE10BDE7
:1049A00001680C3151E8002F22F4907241E8002395
:1049B000002BF5D10168143151E8002F22F00102DB
:1049C00041E80023002BF5D1016B012909D10168D1
:1049D0000C3151E8002F22F0100241E80023002B97
:1049E000F5D1202180F83E1000210163704708B501
:1049F00090F83E10222901D0022008BD82684FF4B1
:104A000080539A4201D1016921B1816A9A421BD037
:104A10004AB10AE00268816A5268C2F308020A8059
:104A2000816A891C08E0026972B10268526802F06A
:104A30007F020A70816A491C8162C18D491E090486
:104A4000090CC18503D019E002685268F1E70168DA
:104A5000CA6822F02002CA600168CA6822F4807223
:104A6000CA6001684A6922F001024A61202180F887
:104A70003E10016B012903D0FEF7BAF8002008BDF3
:104A80000021016301680C3151E8002F22F010026F
:104A900041E80023002BF5D101680A68D20602D54F
:104AA0000A6849680091818DFDF78DFDE6E70000F9
:104AB00070B5044600680169E26821F44051114371
:104AC00001612169A068E2690843616911430843F3
:104AD0002168CA6849F20C639A430243CA6020689D
:104AE0004169A26921F44071114341613149206853
:104AF000884202D03049884202D1FDF725F901E011
:104B0000FDF712F9E2690023192164253226B2F576
:104B1000004F626828D0A0FB0101930F9200FBF7C1
:104B200013FC0146B0FBF5F06FF01802504301EBA7
:104B3000800006EB0010B0FBF5F000F0F002B1FBD6
:104B4000F5F002EB0012B1FBF5F06FF018035843DB
:104B500001EB800006EB0010B0FBF5F000F00F0059
:104B600021681044886070BDA0FB010192185B4170
:104B7000FBF7EAFB0146B0FBF5F00201B1FBF5F0F3
:104B80006FF01803584301EB800006EBC000B0FB48
:104B9000F5F000F0F80002EB4002B1FBF5F05843ED
:104BA00001EB800006EBC000B0FBF5F000F0070061
:104BB000D6E7000000100140001401402DE9F0414B
:104BC000984617460E460446069D27E0681C25D0E9
:104BD0002DB1FCF7EBFEA0EB0800A8421ED920681F
:104BE0000C3050E8001F21F4D07140E80012002A78
:104BF000F5D12068143050E8001F21F0010140E891
:104C00000012002AF5D1202084F83D0084F83E00EF
:104C1000002084F83C000320BDE8F0812068006893
:104C200036EA000004D00020B842CFD00020F3E7DD
:104C30000120F9E710B501F085FCBDE810400148FE
:104C4000FDF7C4BCC005002010B5FFF701FDBDE8AD
:104C500010400148FDF7BABC040600200148FDF7EA
:104C6000B5BC000048060020FEE700002DE9084022
:104C700002F086F9009001F0EFFF6421684601F030
:104C8000A5FEF5E730B50C46050014D0022C12D96C
:104C90000A48A11E02882846FBF7F4FF2919C2B270
:104CA00011F8023C9A4206D111F8011CB1EB102F09
:104CB00001D1012030BD002030BD000028010020BE
:104CC00030B50C4605000AD0022C08D9FF22611E1F
:104CD000FBF7EEFF291911F8011C814201D10120D7
:104CE00030BD002030BD0000114B10B51A6854696A
:104CF00044F0400454611A68D36843F01003D36051
:104D00000C4A13681C6824F001041C6013681C68BA
:104D100024F001041C601468074BA3601368D8607A
:104D2000106841601068016841F00101016010BD28
:104D3000380500208C060020044C004003B4019884
:104D40004100009850EAC12018BF04204A0D18BF46
:104D500040F0010040F2FF72B2EB515F08BF40F03B
:104D60000200012808BF052002B070470907090E9C
:104D7000002804DB00F1E02080F80014704700F008
:104D80000F0000F1E02080F8141D704700000000C3
:104D900010B52F499FED2C1B2DED020B84B005980B
:104DA00020F000408842D8BF9DED040B2DDD29493D
:104DB000884209D1049840B94FF00100FBF703FC89
:104DC00000F0A2FC06B010BD05DB9DED040B00F069
:104DD0008FFC06B010BD68469DED040B00F0A0F8F6
:104DE00010F0030004BF9DED021B9DED000B0CD0E5
:104DF00001280ED09DED021B9DED000B022817D05F
:104E0000012000F0DDFB06B010BD00F0A5FA06B0F1
:104E100010BD9DED021B9DED000B012000F0D0FBAD
:104E200051EC100B02F07AF906B041EC100B10BDFA
:104E300000F092FA51EC100B02F070F906B041EC60
:104E4000100B10BD0000000000000000000000007A
:104E5000FB21E93F0000F07F10B52F499FED2C1B8F
:104E60002DED020B84B0059820F000408842DCBF95
:104E700000209DED040B32DD2849884209D10498B9
:104E800040B94FF00100FBF79EFB00F03DFC06B07F
:104E900010BD05DB9DED040B00F02AFC06B010BD33
:104EA00068469DED040B00F03BF810F0030011D0B4
:104EB000012818D09DED021B9DED000B02281AD091
:104EC00000F04AFA51EC100B02F028F906B041EC60
:104ED000100B10BD9DED021B9DED000B012000F09D
:104EE0006FFB06B010BD9DED021B9DED000B00F0A9
:104EF00033FA06B010BD012000F062FB51EC100B3C
:104F000002F00CF906B041EC100B10BD00000000DF
:104F10000000000000000000FB21E93F0000F07FDE
:104F20002DE9F14F04462DED020B2DED088B8AB0D3
:104F30009FEDE70B80ED020B139EE74826F000453E
:104F400085420ADC9DED120B002084ED000B0AB0B7
:104F5000BDEC088B03B0BDE8F08FE0489FEDE0ABFF
:104F60009FEDE1BBA84247DDE14F9FEDE39B9FED45
:104F7000E48B9DED120B53EC1A2B51EC100B002E11
:104F80001CDD02F06DFC41EC100BBD4208D053EC6F
:104F90001B2B51EC100B02F063FCC4E900010BE089
:104FA00053EC192B51EC100B02F05AFC53EC182B5C
:104FB00002F056FCC4E900010120C8E702F0ECF859
:104FC00041EC100BBD4208D053EC1B2B51EC100BE5
:104FD00002F0E2F8C4E900010BE053EC192B51ECAC
:104FE000100B02F0D9F853EC182B02F0D5F8C4E9F5
:104FF00000014FF0FF30AAE7C348A84279DB9DEDDE
:10500000120B51EC100B00F03CFD41EC180B9FED26
:10501000C00B53EC102B02F019FB9FEDBF1B53ECA0
:10502000112B02F0B9F802F0B7FA074602F0E3FAE2
:1050300041EC190B53EC1A2B02F008FB53EC182B24
:1050400002F002FC41EC180B53EC1B2B51EC190B3A
:1050500002F0FCFADFF8C8A241EC100B4FEA155839
:105060000125FA4453EC102B51EC180B02F0F8FB1D
:10507000032DC4E900013DD0C1F30A5005EB4511F1
:10508000A8EB00001139814234DA0AEB051BB0EEBF
:1050900048AA9BED000BF0EE68AA53EC102B51ECE4
:1050A000190B02F0D3FA41EC1B0B51EC1A0B53EC29
:1050B0001B2B02F0D5FB41EC180B51EC1A0B53ECF7
:1050C000182B02F0CDFB53EC1B2B02F0C9FB9BED20
:1050D000020B41EC1A0B53EC102B51EC190B02F0A4
:1050E000B5FA53EC1A2B02F0BBFB41EC100B6D1C14
:1050F000B8E70EE0002EA8BF3846BFF628AF94ED03
:10510000000B51EC100B02F009F8C4E900017842E1
:105110001DE7C6F3130040F4801EC6F30A50A0F248
:10512000F530471100F01F05C5F12000DDF848B04B
:1051300008900020069007900520EC467949002D44
:1051400007EB0002794408BF51F8221009D051F84A
:10515000223001EB8201AB404A68089922FA01F142
:105160001943A1FB0E26A1FB0B131A449A4234BF2C
:105170000123002303EB06080CEB8003D3E901A60F
:105180000E448E4234BF0121002192448A4411B161
:10519000924502D903E0924501D2012100E00021AD
:1051A000C3E901A641444CF82010011EA0F1010002
:1051B000C4DC029800F10050850F0298DDE9036716
:1051C0008000DDF8148002F016FA41EC1A0B30462C
:1051D00002F028FA9FED541B53EC112B02F036FA23
:1051E00041EC1B0B384602F01DFA9FED511B53ECAE
:1051F000112B02F02BFA41EC180B404602F012FA88
:105200009FED4D1B53EC112B02F020FA41EC190BD2
:1052100051EC180B53EC192B01F0BEFF53EC1B2B78
:1052200001F0BAFF53EC1A2B01F0B6FFCDE90801EB
:10523000002008909DED080B53EC1A2B51EC100B3D
:1052400002F00EFB53EC1B2B02F00AFB53EC182B65
:1052500002F006FB53EC192B02F0F6FA9FED381B17
:1052600053EC112B02F0F2F99FED370B41EC180BC8
:1052700053EC102B9DED080B51EC100B02F0E6F9EE
:1052800053EC182B01F088FF9FED310B41EC180B0C
:1052900053EC102B9DED080B51EC100B02F0D6F9DE
:1052A00053EC182B01F078FF41EC100B139810F021
:1052B000004F06D06D4251EC100B01F02FFF41EC76
:1052C000100B284684ED000B41E6000000000000B2
:1052D0000000000000000000FB21E93F7CD90240F3
:1052E00000004054FB21F93F3163621A61B4D03DA4
:1052F000FB21F93F000000000000601A61B4D03DBE
:105300007370032E8A19A33BFB2139410000000072
:1053100083C8C96D305FE43F000000000000E03F3B
:10532000DA2E0000282E0000000000000000103ED1
:10533000000000000000103C000000000000103AD7
:10534000182D4454FB21F93D3326A611460B113C80
:1053500000000054FB21F93D10B52DED040B2DED9F
:10536000088B82B0B0EE419AF0EE619A0B9820F073
:1053700000449FED4BABB4F1795F11DA9DED0A0B60
:1053800051EC100B02F008F9002801BFB0EE4A0AF8
:10539000F0EE6A0A02B0BDEC088B04BF04B010BD89
:1053A0009DED0A0B53EC102B51EC100B02F04EF953
:1053B00041EC180B3C480621B0EE480AF0EE680AB2
:1053C000784400F081F853EC182B51EC100B02F0EC
:1053D0003DF99DED0A0B41EC1B0B53EC192B51ECE5
:1053E000100B02F033F941EC190B53EC1B2B51EC71
:1053F000180B02F02BF953EC192B02F031FA9FED48
:105400002C0B41EC190B53EC102B51EC180B02F048
:105410001DF941EC100B2848844210DA53EC192B8B
:1054200051EC100B02F01CFA53EC1A2B02F00CFAA0
:1054300041EC100B02B0BDEC088B04B010BD1F484E
:10544000A042BCBF9FED1E1B8DED001B06DBA4F52B
:1054500000100190002000909DED001B51EC100BFE
:1054600053EC112B02F0FCF99DED000B41EC180BF5
:1054700053EC102B51EC1A0B02F0F2F941EC1A0B21
:1054800053EC192B51EC180B02F0EAF953EC1A2BE0
:1054900002F0DAF941EC100BCCE70000000000004C
:1054A000000000000000F03F4C2B00000000000056
:1054B000000000000000E03F3333D33F0000E93F2D
:1054C000000000000000D23F70B504462DED028BB5
:1054D0004D1E00EBC500B0EE408AF0EE608A90ED04
:1054E000000B35F0060017D053EC182B51EC100BC5
:1054F00002F0ACF841EC100B6D1E04EBC50090ED12
:10550000001B51EC100B53EC112B01F045FE41EC4C
:10551000100B35F00600E7D1022D36D0042D1CD03B
:10552000062D1CBFBDEC028B70BD53EC182B51EC4B
:10553000100B02F08BF894ED0A1B53EC112B01F0C9
:105540002BFE53EC182B02F081F894ED081B53EC62
:10555000112B01F021FE41EC100B53EC182B51ECF8
:10556000100B02F073F894ED061B53EC112B01F0B5
:1055700013FE53EC182B02F069F894ED040B53EC76
:10558000102B01F009FE41EC100B53EC182B51ECE1
:10559000100B02F05BF894ED021B53EC112B01F0A1
:1055A000FBFD53EC182B02F051F894ED001B53EC6B
:1055B000112B01F0F1FDBDEC028B41EC100B70BD25
:1055C00031B504462DED040B2DED0A8BB0EE41BA3A
:1055D000F0EE61BA0B989DED0A0B20F00040B0F19F
:1055E000795F0DDA51EC100BFFF7A8FB042808BF18
:1055F00000F09AF89DED0A0BBDEC0A8B05B030BDAA
:1056000053EC102B51EC100B02F020F841EC180B6E
:105610009DED0A0B53EC182B51EC100B02F016F811
:1056200041EC190B2C48B0EE480AF0EE680A05214F
:105630007844FFF749FF9FED2ACBB0EE40AAF0EE89
:1056400060AA9CB353EC1C2B51EC190B01F0FEFF2C
:1056500041EC1C0B53EC1A2B51EC190B01F0F6FF2B
:105660009FED210B41EC190B53EC102B51EC1B0B54
:1056700001F0ECFF53EC192B02F0F2F853EC182B6D
:1056800001F0E4FF53EC1B2B02F0EAF853EC1C2B67
:1056900002F0E6F89DED0A1B53EC112B02F0D4F852
:1056A000BDEC0A8B05B041EC100B30BDFFE753ECAD
:1056B0001A2B51EC180B01F0C9FF53EC1C2B01F015
:1056C0006BFD53EC192B01F0C1FF9DED0A1B53EC50
:1056D000112B01F061FDE3E7D42900000000000078
:1056E000495555555555C5BF000000000000E03F25
:1056F00010B553EC102B51EC100B01F04DFD41ECAB
:10570000100B10BD000000009FED050B10B553EC11
:10571000102B51EC100B01F0E7FD41EC100B10BD0C
:1057200000000000000000009FED050B10B553ECD9
:10573000102B51EC100B01F089FF41EC100B10BD48
:10574000000000000000001000B58BB00020012117
:10575000CDE9060108910090019002900390059018
:10576000049069460C48FBF745FB0B48FBF75EFECF
:1057700002210948FBF7BEFA0E2009900590694600
:105780000648FBF737FB0548FBF750FE02210348AC
:10579000FBF7B0FA0BB000BD4C04002074040020ED
:1057A000134910B5CA884FF499639FED120ADFEDD3
:1057B000120A12489FED121A4FF44E749A4202D305
:1057C00080ED080A06E0A24202D8C0ED080A01E016
:1057D00080ED081A8988994202D380ED070A10BD2E
:1057E000A14202D8C0ED070A10BD80ED071A10BD16
:1057F000E44400200080BB440080BBC4D8000020EB
:10580000000000002DE9F0414D4D287A012818D004
:105810004C490978012914D0022812D003287DD1DF
:10582000E988494A494B4FF4996601EB41004FF42E
:105830004E779FED470A474CB1420AD302EB400036
:105840000BE0BDE8F04100231A4619461846FDF763
:105850000DBFB94208D803EB400000EE900AF8EE05
:10586000E00AC4ED080A01E084ED080AA98801EB0A
:105870004100B14202D302EB400003E0B94208D834
:1058800003EB400000EE900AF8EEE00AC4ED070AD0
:1058900001E084ED070A687A012832D0022832D16B
:1058A000D4ED070AF5EEC00AF1EE10FA10D194ED2E
:1058B000080AB5EEC00AF1EE10FA09D1F5EEC00AF9
:1058C000F1EE10FA04D1B5EEC00AF1EE10FA02D0F2
:1058D0009FED210A15E0F5EEC00AF1EE10FA12D1A3
:1058E000B5EEC00AF1EE10FA0DD1F5EEC00AF1EEF8
:1058F00010FA08D1B5EEC00AF1EE10FA03D19FED0F
:10590000170A84ED090A00F057F800F029F8687AC0
:1059100003280FD001280DD0022800E00EE00DD1A1
:1059200094ED091AD4ED0B0A94ED0A0ABDE8F04192
:1059300001F0F0B91C3494EC030AF7E7BDE8F081FC
:10594000E4440020AF00002038E7FFFFC8E8FFFF75
:1059500000000000D80000200080BB4400C00F45BC
:10596000104910B5087ADFED101A104C012816D036
:105970000F4A1278012A12D0497A02290FD003283F
:105980000CD103290AD1FBF775F8F0EE400AB0EE0E
:10599000610A084800F09AFA84ED090A10BDC4EDC6
:1059A0000C1A10BDE444002000000000D8000020C4
:1059B000AF000020D447002010B52DED028BFBF77F
:1059C00059F8DFED200A214C20EE200ADFED1E0AF7
:1059D00020EE200AD4ED0D0A20EE200ADFED1C0A8D
:1059E000C0EE208A18EE900A02F024F841EC100B69
:1059F000FFF732FA51EC100B01F09CFB08EE100A95
:105A000018EE900A02F016F841EC100BFFF7C0F9FF
:105A100051EC100B01F08EFB00EE100AD4ED070ADA
:105A200094ED081A60EE201A68EE200A48EE411A3A
:105A300040EE010AC4ED0A1AC4ED0B0ABDEC028B5C
:105A400010BD0000000000390000B443D800002061
:105A500000003443F0B50388002541F221070CE033
:105A60004C5D002683EA04235C001B0400D57C40C7
:105A7000761C2346082EF7D36D1C9542F0D3038085
:105A8000F0BD82B0CDE9000121F0004001909DED14
:105A9000000B02B051EC100B70470000024B0ECB14
:105AA00080E80E0000207047A84A002002490978CB
:105AB0000170002070470000680100200249098839
:105AC00049BA018181817047C000002010B5034CA4
:105AD0001ECC80E81E00002010BD0000B44A00204B
