:020000040800F2
:1000000020180020690200086D310008B12900089D
:10001000F92F00088F050008AD3B00080000000024
:100020000000000000000000000000008936000809
:10003000F506000800000000E13300088B360008D8
:10004000830200088302000883020008830200087C
:10005000830200088302000883020008830200086C
:10006000830200088302000883020008830200085C
:100070008302000855060008830200088302000876
:10008000610600088302000883020008BD0500081D
:10009000910500088302000883020008830200081B
:1000A000830200088302000883020008830200081C
:1000B0008302000835370008830200088302000825
:1000C00083020008830200088302000883020008FC
:1000D00083020008793B00088D3B0008830200087A
:1000E00083020008830200088302000883020008DC
:1000F000830200084D3700088302000883020008CD
:1001000083020008830200084137000883020008C8
:100110008D380008A1380008830200088302000817
:1001200083020008830200086D06000883020008AD
:1001300083020008000000000000000049060008DB
:10014000C905000883020008830200088302000832
:10015000830200088302000883020008A13B000814
:10016000830200088302000883020008830200085B
:100170008302000883020008000000000000000065
:10018000830200088302000800F002F800F05CF827
:100190000AA090E8000C82448344AAF10107DA45E2
:1001A00001D100F051F8AFF2090EBAE80F0013F0D8
:1001B000010F18BFFB1A43F001031847E445000084
:1001C000044600000A444FF0000C10F8013B13F005
:1001D000070408BF10F8014B1D1108BF10F8015BA0
:1001E000641E05D010F8016B641E01F8016BF9D193
:1001F00013F0080F1EBF10F8014BAD1C0C1B09D1EA
:100200006D1E58BF01F801CBFAD505E014F8016B5B
:1002100001F8016B6D1EF9D59142D6D370470000ED
:100220000023002400250026103A28BF78C1FBD8FF
:10023000520728BF30C148BF0B6070471FB504F09C
:1002400019F91FBD10B510BD00F06CF91146FFF78C
:10025000F5FF03F05FFE00F08AF903B4FFF7F2FF49
:1002600003BC00F08DF900000948804709480047A9
:10027000FEE7FEE7FEE7FEE7FEE7FEE7FEE7FEE756
:10028000FEE7FEE704480549054A064B70470000B3
:1002900025370008890100082012002020180020BE
:1002A000201400202014002053EA020C00F0698082
:1002B0002DE9F04B4FF00006002B1FBFB3FA83F57A
:1002C00003FA05F424FA05F65E4012BF1643B2FAAB
:1002D00082F502FA05F4C5F120051EBF22FA05FCDD
:1002E00044EA0C04203556EA044C4FEA144418BF83
:1002F000641C4FF000084FF00009904271EB030CB2
:1003000039D3002919BFB1FA81F701FA07F6B0FA1B
:1003100080F700FA07F6C7F120071EBF20FA07FC96
:1003200046EA0C062037B6FBF4FCA7EB0507103FA6
:1003300007F01F0BCBF120060CFA0BFB2CFA06F68C
:1003400044BFB3460026202FA4BF5E464FF0000BEB
:100350005BEA060C08BF4FF0010B19EB0B09ABFB76
:10036000027C48EB0608C01B06FB02CC0BFB03CC4F
:1003700071EB0C01C1E70B46024641464846BDE819
:10038000F08B13B54FF000004FF00001AFF3008089
:10039000BDE81C407047032A40F2308010F0030C87
:1003A00000F0158011F8013BBCF1020F624498BFC8
:1003B00011F801CB00F8013B38BF11F8013BA2F165
:1003C000040298BF00F801CB38BF00F8013B11F0E0
:1003D000030300F07180083AC0F0088051F8043B34
:1003E000083A51F804CBA0E80810F5E7121D5CBFED
:1003F00051F8043B40F8043BAFF30080D20724BF20
:1004000011F8013B11F801CB48BF11F8012B24BFB3
:1004100000F8013B00F801CB48BF00F8012B704702
:100420004FF000020429C0F0128010F0030C00F01D
:100430001B80CCF1040CBCF1020F18BF00F8012B9B
:10044000A8BF20F8022BA1EB0C0100F00DB85FEA69
:10045000C17C24BF00F8012B00F8012B48BF00F835
:10046000012B70474FF0000200B5134694469646A4
:10047000203922BFA0E80C50A0E80C50B1F12001B7
:10048000BFF4F7AF090728BFA0E80C5048BF0CC065
:100490005DF804EB890028BF40F8042B08BF7047C3
:1004A00048BF20F8022B11F0804F18BF00F8012B35
:1004B000704770477047704710B5203AC0F00B8006
:1004C000B1E81850203AA0E81850B1E81850A0E858
:1004D0001850BFF4F5AF5FEA027C24BFB1E81850B2
:1004E000A0E8185044BF18C918C0BDE810405FEA22
:1004F000827C24BF51F8043B40F8043B08BF70479E
:10050000D20728BF31F8023B48BF11F8012B28BFA2
:1005100020F8023B48BF00F8012B704700487047A5
:10052000C01100207546FFF7F9FFAE460500694689
:10053000534620F00700854618B020B5FFF7A2FE0D
:10054000BDE820404FF000064FF000074FF00008D4
:100550004FF0000B21F00701AC46ACE8C009ACE855
:10056000C009ACE8C009ACE8C0098D46704710B5B9
:100570000446AFF300802046BDE81040FFF76DBE93
:1005800001491820ABBEFEE7260002007047FEE7D7
:1005900010B5074B074A0021074800F03CFB02F06A
:1005A0002DFD02F027FABDE81040034800F0A7BB7C
:1005B000360000208C06002008020020014800F0D0
:1005C0009EBB00000802002010B5084B084A00211D
:1005D000084800F020FB02F0EDF900F087F900F088
:1005E0000FF9BDE81040034800F089BB3E00002031
:1005F000A80600203002002010B58AB00024049420
:1006000005940824069440F2FF140294040A8DF81D
:1006100000408DF80100080A8DF80200100A8DF8DC
:1006200004008DF80520180A8DF806008DF80310D7
:100630008DF8073008AB6A4602A9024800F0F6F9C7
:100640000AB010BD30020020014800F058BB000085
:1006500030020020014800F001BE00003C040020F0
:10066000014800F0FBBD0000FC040020014800F040
:10067000F5BD00009C04002001681823CAB2103A9E
:10068000B2FBF3F2054B6FF30901032A9B5CC365D0
:1006900000D9091D81650846704700007E440008A6
:1006A00010B5014600208B698A6A4FF0C07453B1BF
:1006B000B3F5005F15D072B1012A0CD0022A0AD01E
:1006C000032A09D104E01AB1012A06D0022A03D173
:1006D000C96AC90100D5012010BDC96AA142FAD07A
:1006E00010BD002AF7D0012AF2D0022AF3D0032A43
:1006F000F3D010BD70470000F0B5404890F84A10A4
:100700000A2945D20122A0F8B0200222A0F8B22086
:100710000322A0F8B4200422A0F8B6200522A0F8F5
:10072000B82040F201170622A0F8BA207E1C07224A
:10073000A0F8BC20751C6C1CA0F8BE70A0F8C060AE
:10074000631CA0F8C250A0F8C4405A1CA0F8C630E0
:10075000A0F8C82001290CD002290DD003290ED001
:1007600004290FD0052910D0062901D1A0F8CC20EA
:10077000F0BDA0F8CC70F0BDA0F8CC60F0BDA0F842
:10078000CC50F0BDA0F8CC40F0BDA0F8CC30F0BD0E
:100790006522A0F8B0206622A0F8B2206722A0F857
:1007A000B4206822A0F8B6206922A0F8B82040F250
:1007B00065176A22A0F8BA207E1C6B22A0F8BC2024
:1007C000751C6C1CA0F8BE70A0F8C060631CA0F87B
:1007D000C250A0F8C4405A1CA0F8C630A0F8C820E7
:1007E0006529C6D06629C7D06729C8D06829C9D06D
:1007F0006929CAD06A29B9D0F0BD0000E00A0020FA
:100800001A4801688038A1F50072073A22D11849C8
:10081000DFED180A0A8852BA02804B885BBA1BB215
:1008200000EE103AB8EEC00A80ED010A00EE102A80
:100830008B88B8EE400A5BBA0381897920EE200AE2
:10084000DFED0D0A817220EE200ABCEEC00A10EE28
:10085000101AC17290ED010A0448543880ED020A62
:100860009FED060A80ED050A70470000A8060020EB
:100870003E000020000000390000B4430080BB446B
:1008800000EB800101EB4011134800EB8100011DDA
:1008900000F14C0281EC030A0021DFED100A9FED0C
:1008A000101AC0ED0D0A9FED0F0A80ED0E1A80EDB3
:1008B0000F0A80ED100A80F84410C0ED1F0A80ED89
:1008C000201A80ED210A80ED220A0121C2EC031AD0
:1008D00080F88C10704700000409002000C0DA4640
:1008E00000409C460000000072B6FEE7F0B52E48BE
:1008F000DFED2F0A9FED2F1A06682C48A6F5007130
:1009000005884488838890F906202748983801395B
:1009100019D167BA3FB200EE107A69BA0180B8EE19
:10092000C00A5FBA80ED010A00EE101A07818272D8
:10093000B8EE400A20EE200A20EE010ABCEEC00A02
:1009400010EE101AC172A6F50071023919D164BAFD
:1009500024B200EE104A69BA8181B8EEC00A5BBACF
:1009600080ED040A00EE101A83828275B8EE400A08
:1009700020EE200A20EE010ABCEEC00A10EE101A8A
:10098000C175094990ED010A543981ED000A90EDD5
:10099000040A81ED010A9FED080A81ED030A9FED2B
:1009A000070A81ED040AF0BDA80600203E000020E1
:1009B000000000390000B4430080BBC50080BB4587
:1009C00010B558B1084C491E0BD310F8013B5340E9
:1009D000DBB234F8133083EA1222F4E74FF6FF70EB
:1009E00010BD104610BD00009E45000810B5054C16
:1009F00004E000BF10F8013B5340E25C491EF9D20D
:100A0000104610BD9E44000890F82020012A07D00F
:100A1000022A05D0416A41F48021416201207047D9
:100A2000006842690A43426100207047F0B590F8BF
:100A300020500468A468012D05D0022D03D0416A1E
:100A400041F480215DE014F0406F01D1E50055D5FF
:100A5000C4F30164022C03D9416A41F4000150E05F
:100A60000125A5401D608D684FF4C0739DB1CE680F
:100A700035434E6845EAC605066803EB0417F55191
:100A80004FF4C275076805EB04150E697E51097DA8
:100A9000012905D009E00E88CD6845EA4655EBE707
:100AA00001684E5946F480764E511179D5795679C0
:100AB00041EA056195792D0445EA062529434FF45D
:100AC000C676056806EB0416A9511178D57841EA77
:100AD0000561957852782D0445EA022211434FF4BE
:100AE000C475026805EB04155151006803EB04114D
:100AF000425842F0010242500020F0BD416A41F4E8
:100B0000001141620120F0BD10B590F82020012AAB
:100B100007D0022A05D0416A41F4802141620120B8
:100B200010BD3B48D0F8002242F00102C0F800227C
:100B3000D0F8002222F47C52C0F80022D0F8002223
:100B40004B6A42EA0322C0F800220A7D02F01F032A
:100B500001229A40D0F81C329343C0F81C32CB6972
:100B6000B3B9D0F80C329343C0F80C328C894B687F
:100B700064F31F434C6900EBC404C4F840320C8991
:100B80000B6864F31F434C6900EBC404C4F844329F
:100B9000CB69012B16D1D0F80C321343C0F80C32BC
:100BA0000C884B6864F31F434C6900EBC404C4F821
:100BB00040320C89CB6864F31F434C6900EBC404DA
:100BC000C4F844328B69002BD0F804320ED01343A2
:100BD000C0F804320B69002BD0F8143208D013434C
:100BE000C0F81432096A012904D008E09343EFE702
:100BF0009343F5E7D0F81C121143C0F81C12D0F84B
:100C0000001221F00101C0F80012002010BD000008
:100C100000640040704730B590F82040012C05D0AA
:100C2000022C03D0416A41F480215DE00468002970
:100C300055D02469A40754D04FF4D874056804EB48
:100C400001142D5915F00405956005682D594ED0F5
:100C5000ED08556005682C5904F00204D4604FF487
:100C6000DA74056804EB01142D5905F00F051561C0
:100C700005682D59C5F30725956105682C59240C85
:100C800054614FF4DC72046802EB0112A4581C702A
:100C90000468A458240A5C700468A458240C9C704E
:100CA0000468A258120EDA704FF4DE72046802EB88
:100CB0000112A4581C710468A458240A5C710468C9
:100CC000A458240C9C710468A258120EDA710068B2
:100CD00081B1016941F020010161002030BDE4686B
:100CE000A8E7416A41F400114162012030BD6D0D59
:100CF0001560AFE7C16841F02001C160EDE72DE963
:100D0000F05F0546006800244669D0F804908768C3
:100D1000D0F80CB0D0F810A0D0F81880F10748D067
:100D2000F90714D001218160B80703D5284600F0E7
:100D300034FA0CE0780702D54FF4006407E0380776
:100D400002D54FF4805402E0284600F025FAF80559
:100D500016D529684FF480708860B80503D52846F9
:100D600000F01DFA0CE0780502D544F4005407E0C9
:100D7000380502D544F4804402E0284600F00EFA1B
:100D8000F80316D529684FF480308860B80303D57E
:100D9000284600F006FA0CE0780302D544F400443B
:100DA00007E0380302D544F4803402E0284600F01E
:100DB000F7F9300707D55FEACB6004D52968102022
:100DC00044F40074C86070074FF0080707D55FEA65
:100DD0000B7004D52868C760284600F0ABF9B0074F
:100DE00006D52868C068800702D0284600F0A3F91D
:100DF000700607D55FEACA6004D52968102044F45C
:100E000080640861B00607D55FEA0A7004D52868D7
:100E10000761284600F090F9F00606D528680069B9
:100E2000800702D0284600F088F9B00308D55FEAB1
:100E3000C96005D5296810204860284600F07EF971
:100E4000F00307D55FEA097004D528684760284693
:100E500000F0A8F9300446D55FEA497040D5F005A6
:100E600004D55FEAC87001D044F00104B00504D590
:100E70005FEA887001D544F00204700504D55FEA8A
:100E8000487001D544F00404300529D518F0700FDE
:100E900026D008F07000402815D006DC102809D0B4
:100EA00020280AD0302816D10AE050280ED0602819
:100EB00011D10EE044F008040DE044F010040AE003
:100EC00044F0200407E044F0400404E044F08004CF
:100ED00001E044F480742868816921F07001816127
:100EE000296804204860002C05D0686A20436862A5
:100EF0002846FFF78FFEBDE8F09F70B5040003D0D1
:100F000094F8200010B104E0012070BD204600F0EC
:100F100081F82068016841F00101016000F0D0FB18
:100F20000546052604E000F0CBFB401B0A2811D83B
:100F300020684068C007F6D02068016821F00201EF
:100F4000016000F0BDFB05460BE000F0B9FB401B63
:100F50000A2806D9606A40F40030606284F8206094
:100F6000D2E7206840688007EFD4207E01282068FF
:100F700001683DD021F080010160607E0128206879
:100F8000016838D021F040010160A07E012820686E
:100F9000016833D021F020010160E07E0128206843
:100FA00001682ED041F010010160207F01282068E7
:100FB000016829D021F008010160607F01282068C4
:100FC000016824D021F004010160D4E90201084342
:100FD000D4E90412114308436168491E084321689B
:100FE000C86100206062012084F82000002070BDEC
:100FF00041F08001C0E741F04001C5E741F0200128
:10100000CAE721F01001CFE741F00801D4E741F031
:101010000401D9E7F0B587B0044614216846FFF70C
:1010200021FA3F4B3F48DFF8F4E01968D4F800C0DC
:101030003C4A02250326092710300024491CF445A8
:101040002CD11960012907D1016841F000710160BC
:10105000006800F000700590106840F0010010601A
:10106000106802AB00F0010005904FF4C050CDE9CC
:10107000000583E8D00069462B4800F029FA0022D9
:101080000421132000F0B6FB132000F0A5FB002282
:101090000621142000F0AEFB14203BE0DFF88CE0CA
:1010A000F44539D1D0F800C04CF0806CC0F800C0D5
:1010B000D0F800C001290CF0806CCDF814C0196084
:1010C00007D1016841F000710160006800F0007014
:1010D0000590106840F002001060106802AB00F04C
:1010E000020005904FF44050CDE9000583E8D000A0
:1010F00069460F4800F0ECF9002204213F2000F07F
:1011000079FB3F2000F068FB00220621402000F020
:1011100071FB402000F060FB07B0F0BD00640040B0
:1011200014000020303802400000024000680040F7
:1011300000040240704770477047704770470000D6
:1011400070B5044690F82000012804D0606A40F48D
:101150000020606218E0022084F820002068016806
:1011600021F00101016000F0ABFA05460EE000BF7E
:1011700000F0A6FA401B0A2808D9606A40F4003043
:101180006062052084F82000012070BD206840685E
:10119000C007EDD1606270BD7047704770477047FF
:1011A0007047704770472DE9F0410446876D00F0A5
:1011B00087FA064694F835000025022806D08020DC
:1011C000606584F834500120BDE8F0812068016832
:1011D00021F0160101602068416921F08001416120
:1011E000206C08B9A06C20B12068016821F00801CA
:1011F00001602068016821F0010101600CE000F04D
:101200005FFA801B052807D920206065032084F839
:10121000350084F83450D7E720680068C007EED165
:1012200094F85C103F208840B860012084F83500B5
:1012300084F834500020C7E790F83510022903D015
:101240008021416501207047052180F83510006834
:10125000016821F001010160002070472DE9F84389
:1012600004464FF00009CDF8009063484FF4165142
:10127000A56D0068B0FBF1F72E6894F85C100820AB
:1012800000FA01F131420FD021680A6852070BD5EC
:101290000A6822F004020A6094F85C108840A86092
:1012A000606D40F00100606594F85C104FF001083B
:1012B00008FA01F0304208D021684969090604D5CE
:1012C000A860606D40F00200606594F85C10042036
:1012D0008840304208D021680968890704D5A86091
:1012E000606D40F00400606594F85C101020884048
:1012F000304218D021680968090714D5A860206811
:101300000168490304D50068000308D5A16C07E013
:101310000168C90503D4016821F008010160216C4E
:1013200009B12046884794F85C102020884030425C
:1013300031D021680968C9062DD5A86094F8350018
:1013400005282068016806D0490347D500680003D6
:101350001DD4616C1CE021F0160101602068416918
:1013600021F080014161206C08B9A06C20B1206897
:10137000016821F00801016094F85C103F2088406A
:10138000A86084F8358084F83490216D1FE0E16B0B
:1013900009B120468847606D00282BD0606DC007DA
:1013A00014D0052084F835002068016821F001017F
:1013B00001600098401C0090B84203D82068006883
:1013C000C007F6D184F8358084F83490E16C0029A8
:1013D00010D001B02046BDE8F04308470168C905B8
:1013E000D5D4016821F01001016084F8358084F8BB
:1013F0003490CCE7BDE8F883240000202DE9F041CB
:10140000044600F05DF906465CB1022084F8350020
:10141000002584F834502068016821F00101016042
:101420000DE00120BDE8F08100F04AF9801B05289D
:1014300005D920206065032084F83500F2E7206894
:101440000068C007F0D12268116820480140D4E943
:1014500001031843D4E9033633431843636918433F
:10146000A3691843E3691843236A18430843616A70
:10147000042903D1D4E90B131943084310602068F1
:101480004069666A20F0070130460E4301270428B0
:101490000CD1A06A0643E06A40B12046FFF700F98C
:1014A00020B14020606584F83570BAE72068466155
:1014B0002046FFF7E1F894F85C203F2191408160DD
:1014C000656584F835700020ACE700003F8010F0BF
:1014D0002DE9F84FDFF8BCA10022012503264FF0CB
:1014E0000F090AF1040BAAF1040E00BF0B6805FAFC
:1014F00002F42340A34270D10F7907F00307012FB4
:1015000001D0022F16D187684FEA420806FA08FC7C
:1015100027EA0C07D1F80CC00CFA08FC4CEA070CBF
:10152000C0F808C04768A7430C79C4F3001494407E
:101530003C4344600C79E443A4070AD0C4684FEAF2
:10154000420C06FA0CF7BC438F6807FA0CF72743E6
:10155000C7600C7904F00304022C12D1D40800EB0C
:10156000840CDCF820405707FF0E09FA07F824EA3C
:101570000804D1F8108008FA07F848EA0408CCF803
:10158000208004684FEA420C06FA0CF7BC430F793E
:1015900007F0030707FA0CF7274307604C6814F4B9
:1015A000403F70D03C4C276847F480472760246850
:1015B00022F0030704F480440094384C07EB040C39
:1015C000DCF8084897074FEA177809FA08F7BC4390
:1015D000334FB84202D1002724E054E0314FB842E3
:1015E00001D101271EE0304FB84201D1022719E096
:1015F0002E4FB84201D1032714E02D4FB84201D13C
:1016000004270FE02B4FB84201D105270AE02A4FEB
:10161000B84201D1062705E0284FB84201D107277B
:1016200000E0082707FA08F72743CCF80878DAF82B
:1016300000405746D1F804C09C435FEACC2C00D54B
:101640001C433C60DBF800405F46D1F804C09C437B
:101650005FEA8C2C00D51C433C60DEF800407746E6
:10166000D1F804C09C435FEA8C3C00D51C433C602D
:10167000084F083F3C68D1F804C09C435FEACC3C6B
:1016800000D51C433C60521C102AFFF42FAFBDE86C
:10169000F88F0000083C014044380240003001400F
:1016A000000002400004024000080240000C02401A
:1016B000001002400014024000180240001C0240CA
:1016C00001488068704700001800002002488168C7
:1016D0000278114481607047180000200B4810B553
:1016E000016841F400710160016841F480610160AA
:1016F000016841F480710160032000F09BF80F2025
:1017000000F006F800F050F8002010BD003C024048
:1017100030B505461F4887B00024016841F4807148
:101720000160006806A900F48070009001A800F034
:101730002DF90498A8B100F049F940001649174A5C
:10174000B0FBF1F11648491E026040F2E732C0E9F1
:101750000324C0E90114846100F08AFB040003D073
:1017600015E000F033F9E9E70D4800F0E1FB040073
:101770000DD12D2000F030F8102D07D2002229467F
:101780002D2000F037F80748056000E0012407B07D
:10179000204630BD4038024040420F00002000404B
:1017A0005C0500201C0000200A4808B5016841F4CF
:1017B00080410160006800F4804000900548001FEF
:1017C000016841F080510160006800F08050009095
:1017D00008BD000044380240002809DB00F01F0269
:1017E000012191404009800000F1E020C0F8001183
:1017F00070470000F0B40E4B1B680C46C3F3022385
:10180000C3F10705042D00D90425191D072901D2AC
:10181000002300E0DB1E012606FA05F1491E2140E7
:1018200099409E40761E16403143F0BC02F01CBA2F
:101830000CED00E0064900F0070208684FF6FF03D0
:10184000184040EA0220034A104308607047000035
:101850000CED00E00000FA052DE9F0470E4605000A
:1018600065D0DFF81481D8F80000F7B200F0070067
:10187000B04207D288F80070D8F8000000F00700E6
:10188000B04254D128683D4C810712D5400703D59A
:10189000206840F4E05020602878000703D52068D5
:1018A00040F4604020602068A96820F0F000084300
:1018B00020602878C0072DD0304968680839012891
:1018C00012D0022813D0032811D0096889070029F3
:1018D0002DDA216821F0030101432160FFF7F0FEBA
:1018E000814641F2883A0EE009688903EFE709680A
:1018F0008901ECE7FFF7E4FEA0EB0901514502D9AD
:101900000320BDE8F0872068696800F00C00B0EBA8
:10191000810FEFD1D8F80010404601F00701B14225
:1019200007D90770006800F00700B04201D001201D
:10193000E7E72878400705D52068E96820F4E050FB
:10194000084320602878000706D52068296920F41C
:10195000604040EAC100206000F058F82168084A61
:10196000C1F30311515CC84006490860064800688D
:10197000FFF7CEFE0020C4E7003C024008380240DA
:1019800086440008240000201C0000200F22026072
:101990000C4A136803F003034360136803F0F00379
:1019A0008360136803F4E053C36012684FF4E0539C
:1019B00003EAD20202610448006800F007000860F0
:1019C0007047000008380240003C024004480549C6
:1019D00000680968044AC1F38221515CC84070471D
:1019E00024000020083802409644000804480549B5
:1019F00000680968044AC1F34231515CC84070472D
:101A0000240000200838024096440008154810B50C
:101A1000006810F00C02144813D01449042A0FD0A7
:101A2000082A0ED10F4C241F2268236802F03F02BF
:101A30005B0207D52068C0F38810A0FB010106E017
:101A4000084610BD2168C1F38811A1FB00010023E5
:101A5000FEF72AFC2168C1F30141491C4900B0FB93
:101A6000F1F010BD083802400024F40040787D01F8
:101A70002DE9F84F04006ED02078DFF84C93C007B2
:101A8000A9F104054AD009F104000168C1F38101FC
:101A9000012908D00068C0F3810002280AD1D9F8D2
:101AA0000000400206D52868800337D5606800280A
:101AB000E1D033E06068B0F5803F10D0B0F5A02FE2
:101AC000286810D020F480302860286820F4802016
:101AD00028606068A8B1FFF7F3FD06460DE02868AE
:101AE00040F48030F4E740F480202860F7E700BF3E
:101AF000FFF7E6FD801B642873D828688003F7D5BC
:101B00000CE0FFF7DDFD064605E000BFFFF7D8FD5E
:101B1000801B6428F0D828688003F7D42078DFF889
:101B2000AC8280074FF0000A3ED5A748001D01682F
:101B300011F00C0F08D00068C0F3810002280BD10F
:101B4000D9F80000400207D42868800716D5E0685D
:101B5000012800D112E033E1E068B8B10120C8F8F3
:101B60000000FFF7ADFD064605E000BFFFF7A8FD4A
:101B7000801B0228C0D828688007F7D5286821690B
:101B800020F0F80040EAC10028600DE0C8F800A08D
:101B9000FFF796FD064604E0FFF792FD801B022842
:101BA0001FD828688007F7D42078000722D5864FF1
:101BB00087486169703771B101210160FFF780FDCD
:101BC000064604E0FFF77CFD801B022809D8386830
:101BD0008007F7D50EE0C0F800A0FFF771FD0646BC
:101BE00005E082E0FFF76CFD801B02287DD8386895
:101BF0008007F7D42078400768D5DFF8CCB10027FC
:101C00000BF13C0BDBF80000C0000BD4DBF800103C
:101C100041F08051CBF80010DBF80000012700F004
:101C2000805000906B4E3068C00510D4306840F48E
:101C300080703060FFF744FD009005E0FFF740FD45
:101C40000099401A022850D83068C005F6D55E4E7B
:101C5000A0686C3601280FD00528306810D020F01D
:101C600001003060306820F004003060A068B8B136
:101C7000FFF726FD00900FE0306840F00100F4E728
:101C800040F004003060F7E7FFF71AFD0099411AB1
:101C900041F28830814266D830688007F4D50EE082
:101CA000FFF70EFD009007E0FFF70AFD0099411ACB
:101CB00041F28830814256D830688007F4D42FB181
:101CC000DBF8001021F08051CBF80010A069C8B3F8
:101CD0003D49091D0968C1F3810102294AD0022842
:101CE000504607D0C8F8600000E03CE0FFF7E8FC91
:101CF00004463BE04746C8F86000FFF7E1FC0646B3
:101D000005E000BFFFF7DCFC801B02282BD8286809
:101D10008001F7D4D4E907010843A16A2E4A490893
:101D200002EB0141626A41EA8211084394F82C10E7
:101D300040EA0161C9F8001001203866FFF7C0FCD5
:101D4000044606E03EE000BFFFF7BAFC001B022895
:101D500009D828688001F7D534E000BFFFF7B0FC50
:101D6000001B022802D90320BDE8F88F28688001F3
:101D7000F4D427E00128F7D0D9F80000E26900F494
:101D8000800191421CD1226A00F03F01914217D19B
:101D900047F6C071626A0140B1EB821F10D1A26A9E
:101DA0004FF0FF3300F4403103EB5202B1EB024F2E
:101DB00006D194F82C1000F07060B0EB016F01D0E8
:101DC0000120D1E70020CFE704380240000047425D
:101DD000800E4742007000400000FFFF70477047D0
:101DE00070B590F83C20012A32D0012480F83C40A4
:101DF000022280F83D2003685A689D6822F0700630
:101E00000A6832435A60134B02689A4214D0B2F106
:101E1000804F11D0104B9A420ED0104B9A420BD0EB
:101E20000F4B9A4208D00F4B9A4205D00E4B9A4264
:101E300002D00E4B9A4204D1496825F08003194321
:101E4000916080F83D40002180F83C10084670BD4C
:101E5000022070BD00000140000400400008004066
:101E6000000C004000040140004001400018004008
:101E700010B5040003D094F83D0010B107E0012034
:101E800010BD002084F83C00204600F01FF802201E
:101E900084F83D00211D206801F05EFC012084F8DB
:101EA000460084F83E0084F83F0084F8400084F83F
:101EB000410084F8420084F8430084F8440084F828
:101EC000450084F83D00002010BD000008B5154A0B
:101ED0000168154891420ED1016841F0020101608C
:101EE0000068002200F00200009008211D20FFF78A
:101EF00081FC1D2010E00D4A914211D1016841F092
:101F0000080101600068002200F008000090012133
:101F10003220FFF76FFC3220BDE80840FFF75CBCC1
:101F200008BD00000004004040380240000C0040A2
:101F300090F83D10012901D001207047022180F85E
:101F40003D100168CA6842F00102CA600068114988
:101F5000884214D0B0F1804F11D00F4988420ED082
:101F60000E4988420BD00E49884208D00D4988425C
:101F700005D00D49884202D00C49884204D18168BD
:101F800001F00701062903D0016841F00101016059
:101F9000002070470000014000040040000800409D
:101FA000000C0040000401400040014000180040C7
:101FB00070B5044690F83C000025012817D0012692
:101FC00084F83C60022084F83D002068826822F09A
:101FD000770222F47F4282600868502838D00DDCF6
:101FE00020284FD005DC90B3102811D14AE0022000
:101FF00070BD302846D040280AD13BE060282FD061
:1020000070280DD0B0F5805F03D0B0F5005F12D01E
:10201000012584F83D60002084F83C00284670BD0E
:10202000CB68D1E90121206801F0FAFB20688168C2
:1020300041F0770109E0CB68D1E90121206801F086
:10204000EFFB2068816841F480418160E1E719E09D
:10205000CA684968206801F0F5FB5021206806E055
:10206000CA684968206801F0FEFB6021206801F021
:10207000E1FBCEE7CA684968206801F0E3FB402134
:102080002068F4E7226801461046F0E7704770B513
:102090000446006801694FF00005C943890715D45B
:1020A000C168C943890711D4E91E01610120207765
:1020B000206880698007204602D0FFF7E7FF04E030
:1020C00000F098F8204600F096F82577206801691E
:1020D000C943490717D4C168C943490713D46FF0EE
:1020E00004010161022020772068806910F4407F9C
:1020F000204602D0FFF7CAFF04E000F07BF820463C
:1021000000F079F8257720680169C943090716D4DA
:10211000C168C943090712D46FF0080101610420A6
:1021200020772068C0698007204602D0FFF7AEFF05
:1021300004E000F05FF8204600F05DF825772068A5
:102140000169C943C90617D4C168C943C90613D474
:102150006FF010010161082020772068C06910F439
:10216000407F204602D0FFF791FF04E000F042F8E4
:10217000204600F040F8257720680169C943C90767
:1021800008D1C168C943C90704D1891E016120462D
:1021900000F032F820680169C943090609D4C16812
:1021A000C943090605D46FF0800101612046FFF79D
:1021B00015FE20680169C943490609D4C168C943AD
:1021C000490605D46FF040010161204600F07EF819
:1021D00020680169C94389060BD4C168C9438906CF
:1021E00007D46FF0200101612046BDE87040FFF781
:1021F000F6BD70BD7047704710B5044600682A49A7
:10220000884201D1FFF762FA28492068884218D134
:10221000FFF75CFA02F0E2F801F0B2FD2448002377
:10222000B0F900202348B0F900101846FEF7E4F991
:1022300002F0F2F801F0C6FE10221F491F4802F01A
:1022400039F81F49206888422CD1FFF73FFA1D4812
:1022500001F078FD1B48801D01F07EFD19480C300F
:1022600001F084FD1448103001F052FD12481C307A
:1022700001F05EFD1348801E01F052FD0E490E482C
:102280001031114A91ED020A80ED000A92ED120A16
:1022900080ED010A91ED000A80ED020A92ED370A05
:1022A00080ED030A10BD0000002000400004004043
:1022B0005600002050000020DC010020F803002020
:1022C000000C004002000020040900207047704705
:1022D00070470000F8B5016804460868CA684B6991
:1022E00010F00F0F4FF0000559D003F0010602F473
:1022F0009077374365D0C10705D0D10503D5216C50
:1023000041F001012164410705D5D90703D0216CB3
:1023100041F002012164810705D5D90703D0216C62
:1023200041F004012164010707D502F02001314387
:1023300003D0216C41F008012164216C00293AD0BE
:10234000800604D5900602D5204601F0F2FA2068F6
:102350004069216CC0F38010090700D460B32046A7
:1023600001F0C0FA20684069400621D52068143089
:1023700050E8001F21F0400140E80012002AF5D18A
:10238000A06BA8B16C490165A06BFEF755FF002852
:1023900011D0A06B016D01B0BDE8F0400847830685
:1023A0000FD593060DD52046BDE8F84001F0C1BA1F
:1023B0002046FFF78DFFF8BD2046FFF789FF256413
:1023C000F8BD266B2023012E79D1C60677D5D60617
:1023D00075D50868486800904869400640D5A16BEB
:1023E000086840680004000CEAD0A28D8242E7D958
:1023F000E085C869B0F5807F2DD020680C3050E8AA
:10240000001F21F4807140E80012002AF5D12068F5
:10241000143050E8001F21F0010140E80012002AAA
:10242000F5D12068143050E8001F21F0400140E849
:102430000012002AF5D184F83E30256320680C3064
:1024400050E8001F21F0100140E80012002AF5D1E9
:10245000A06BFEF7A8FEA08DE18D401A81B229E0A5
:10246000A08DE18D401A81B2E08D0028A8D000290E
:10247000A6D020680C3050E8002F22F4907240E87B
:102480000026002EF5D12068143050E8002F22F0ED
:10249000010240E80026002EF5D184F83E30256385
:1024A00020680C3050E8002F22F0100240E8002392
:1024B000002BF5D12046FFF70AFFF8BDFFE7050620
:1024C0002BD5150629D594F83D002128F5D1A06813
:1024D000B0F5805F01D12069B0B1206A411C216252
:1024E000216800784860E08C401E0004000CE08405
:1024F000E3D12068C16821F08001C1602068C16813
:1025000041F04001C160D8E7206A0088C0F30800AC
:102510004860206A801C2062E5E74006CDD5500661
:10252000CBD5CA68204622F04002CA6084F83D300C
:1025300000F03DFAC1E70000D538000870B504008E
:1025400004D094F83D00002510B106E0012070BDD4
:1025500084F83C50204600F023F8242084F83D0005
:102560002068C16821F40051C160204601F042FAA0
:102570002068016921F4904101612068416921F0DE
:102580002A0141612068C16841F40051C16025649D
:10259000202084F83D0084F83E00002070BD00003B
:1025A0002DE9F04F87B0064614216846FDF75AFF23
:1025B00096499648944B3268002410380325DFF87A
:1025C00050C24F054FF002084FF008094FF4806ADF
:1025D0004FF4807B9A4234D10A6842F400220A60A8
:1025E000096801F400210591016841F001010160D1
:1025F0000068CDE9005800F00100CDE9049069467B
:102600006046CDE90245FEF763FF834D81482860AF
:10261000C5E90174C5E9034A6C61C5E9064BF812C6
:10262000C5E908042846FEF7E9FE08B1FEF75CF9A3
:10263000B563002202213420AE63FFF7DBF83420BB
:1026400034E0764B9A4236D10A6842F480120A602E
:10265000096801F480110591016841F004010160ED
:10266000016801F004010591016841F00801016071
:10267000006802AA00F0080005909814CDE900084F
:1026800082E8300269466648FEF722FF0420CDE961
:10269000000802AA694682E830026248FEF718FF85
:1026A000002211463520FFF7A5F83520FFF794F8F2
:1026B00007B0BDE8F08F5C4BDFF850E19A420EF1B5
:1026C000040E3CD1DEF8002042F01002CEF80020CB
:1026D000DEF8001001F010010591016841F00101E0
:1026E00001600068029400F0010005904FF4C060A2
:1026F000CDE900080720CDE9035069466046FEF7A2
:10270000E7FE454D494860352860C5E90174C5E9D3
:10271000034A6C61C5E9064B4FF44030C5E9080433
:102720002846FEF76BFE08B1FEF7DEF8B56300221F
:1027300002212520AE63FFF75DF82520B6E73C4B6C
:102740009A4239D10A6842F400320A60096801F4F9
:1027500000310591016841F00101016000680294B7
:1027600000F0010005900C20CDE900080720CDE91C
:10277000035069466046FEF7ABFE274D2548C0353D
:1027800048302860C5E90174C5E9034A6C61C5E9B0
:10279000064B4FF44030C5E908042846FEF72EFEEC
:1027A00008B1FEF7A1F8B563002203212620AE632D
:1027B000FFF720F8262079E71E498A427FF478AF98
:1027C000DEF8002042F02002CEF80020DEF80010F3
:1027D00001F020010591016841F0040101600068E9
:1027E00002AA00F004000590C020CDE9000882E8AC
:1027F000300269460A48FEF76BFE00220A21472094
:10280000FEF7F8FF472051E7004C004040380240F7
:1028100000000240406002403C04002000500040A4
:1028200000080240000C02400010014040640240D9
:1028300000440040001401402DE9F84F044690F890
:102840003E009A4616460D46202853D1FDB1F6B1FA
:1028500094F83C0001284DD0012084F83C0000276A
:102860002764222084F83E002763FEF729FFA6850F
:102870008146E685A0684FF48058404501D1206923
:1028800040B12E465FF0000584F83C7027E001203F
:10289000BDE8F88F0026F7E74B46002220212046AE
:1028A000CDF800A001F02CF908B10320F0E726B123
:1028B000A06840451BD038B108E020684068C0F3EC
:1028C000080025F8020B07E0206980B12068406805
:1028D00000F07F0006F8010BE08D401EE085E08DE2
:1028E0000028D9D1202084F83E000020D0E72068BD
:1028F0004068EFE70220CBE7704700002DE9F8437E
:10290000044690F83D001F4616460D4620284CD13F
:10291000C5B1BEB194F83C00012846D0012084F82E
:102920003C004FF00008C4F84080212084F83D00AE
:10293000FEF7C6FEA6848146E684A068B0F5805FF7
:1029400003D004E00120BDE8F883206928B12E46B9
:102950005FF0000584F83C800EE00026FAE7802155
:10296000204601F0CDF8A0B9AEB116F8010B2168F0
:102970004860E08C401EE084E08C4B464FF0000243
:1029800000970028EBD14FF04001204601F0B8F845
:1029900030B10320D7E735F8020BC0F30800E6E7B3
:1029A000202084F83D000020CDE70220CBE77047CF
:1029B000FEE700000D480068A0F50071063913D14C
:1029C0000B4801884ABA09493C390A82428852BAFE
:1029D00012B200EE102AB8EEC00A81ED050A828814
:1029E00052BA0A838079887670470000A8060020D2
:1029F0003E00002014480068A0F50071053921D17F
:102A00001249DFED130A088842BA0F4820380280C5
:102A10004B885BBA1BB200EE103AB8EEC00A80EDEC
:102A2000010A00EE102A8B88B8EE400A5BBA0381D7
:102A3000897920EE200ADFED070A817220EE200A54
:102A400080ED030A704700008C060020360000204D
:102A5000000000390000B44300B589B0002108220D
:102A60000291CDE9031240F2FF128DF81810009286
:102A70008DF81910020A8DF81A208DF81B000791A5
:102A800008AB06AA69460248FDF7D0FF09B000BDB1
:102A90003002002000B589B0002108220291CDE962
:102AA000031240F2FF120092020A8DF818208DF8EE
:102AB00019008DF81A108DF81B10079108AB06AAA3
:102AC00069460248FDF7B2FF09B000BD08020020C8
:102AD0002DE9F04104004FF0000609D0774D206841
:102AE000774F2860207928712078A52803D0E1E06D
:102AF0000120BDE8F0810521204601F077F84FF074
:102B0000010801284DD161782046093101F050F8C3
:102B1000012846D1B4F80500012640F20222A0F2B5
:102B20000221904279D017DC40F20112A0F201118B
:102B3000904254D006DC062833D2DFE800F0AE2401
:102B400033363B4301294FD0032955D0042958D0AF
:102B5000B1F5807F25D159E058488030052977D0DC
:102B600008DC01295ED0022961D0032962D0042942
:102B700017D166E0062975D0072978D008297BD0BF
:102B8000FF290ED183E0D4F80700C5F80500D4F87A
:102B90000B00C5F80900B4F80F00A5F80D00607C23
:102BA000E8737AE0E079287477E044481C22E11D5C
:102BB000113070E0B4F80700A5F83100607A85F8AC
:102BC00033006AE0D4F807006863D4F80B00A86308
:102BD000B4F80F00A887607C85F83E005DE0D4F86B
:102BE0000700C5F83F0058E0B4F80700A5F8430017
:102BF000607A85F8450050E0B4F80700A5F8470072
:102C00004BE0E07985F8490047E006E0FDF774FD08
:102C10002A480F22E11D4A303DE028480E22E11DDE
:102C2000653038E025481022E11D753033E0E17948
:102C3000417132E0B4F80710C180617A01722CE072
:102C400006E0E179C171080927D187F8018024E005
:102C5000D4F807108160B4F80B1081811DE001E009
:102C600005E009E0B4F80710A0F80F1015E0D4F85B
:102C70000710C0F8151010E0D4F8071040F8191F1D
:102C8000D4F80B104160D4F80F10816005E00B48B8
:102C90001022E11D9F30FDF77EFBB5F801000934DD
:102CA000015DA52902D12044FFF712FF16B187F874
:102CB000008001E00020387030461AE7E00A00206A
:102CC00090000020104810B50E49016003214160BA
:102CD00000214FF400228160C0E903124FF440123A
:102CE00042610176012242768176C1760177427790
:102CF000FEF703F9002803D0BDE81040FDF7F4BD4E
:102D000010BD00000064004008020020104810B50B
:102D10000E4901600321416000214FF400228160CF
:102D2000C0E903124FF4401242610176012242765B
:102D30008176C17601774277FEF7DFF8002803D06D
:102D4000BDE81040FDF7D0BD10BD00000068004098
:102D500030020020154808B5016841F400110160F7
:102D6000016801F400110091016841F480010160E3
:102D70000068002200F48000009011460D20FEF74C
:102D800039FD0D20FEF728FD002211461020FEF728
:102D900031FD1020FEF720FD002211463A20FEF7FB
:102DA00029FDBDE808403A20FEF716BD3038024044
:102DB000154808B5016841F080010160016801F023
:102DC00080010091016841F001010160016801F09A
:102DD00001010091016841F002010160016801F008
:102DE00002010091016841F004010160016801F0F5
:102DF00004010091016841F008010160006800F0E1
:102E00000800009008BD00003038024010B586B0C0
:102E100000241748009401940294039404941349E5
:102E2000059401605321C0E9011441F28731C0E9E2
:102E300003148461FFF71CF808B1FDF755FD4FF44A
:102E40008050009069460A48FFF7B2F808B1FDF7D4
:102E50004BFD049404A906480594FEF7C1FF002821
:102E600001D0FDF741FD06B010BD00000004004098
:102E70005802002010B586B0002417480094019431
:102E80000294039404941349059401605321C0E90A
:102E9000011440F6B731C0E903148461FEF7E8FF7E
:102EA00008B1FDF721FD4FF48050009069460A48B3
:102EB000FFF77EF808B1FDF717FD049404A9064852
:102EC0000594FEF78DFF002801D0FDF70DFD06B03B
:102ED00010BD0000000C0040A00200200C4810B5FE
:102EE0000A4901604FF4E1314160002181600C2208
:102EF000C160C0E904128161C161FFF71FFB0028B6
:102F000003D0BDE81040FDF7EFBC10BD004C004001
:102F1000E80200200C4810B50A4901604FF4612115
:102F20004160002181600C22C160C0E9041281610E
:102F3000C161FFF703FB002803D0BDE81040FDF797
:102F4000D3BC10BD005000402C0300200C4810B52D
:102F50000A4901604FF4E1314160002181600C2297
:102F6000C160C0E904128161C161FFF7E7FA00287E
:102F700003D0BDE81040FDF7B7BC10BD0010014004
:102F8000700300200C4810B50A4901600B494160EC
:102F9000002181600C22C160C0E904128161C1611D
:102FA000FFF7CCFA002803D0BDE81040FDF79CBC29
:102FB00010BD000000440040B4030020A0860100C2
:102FC0000C4810B50A4901604FF4E131416000211D
:102FD00081600C22C160C0E904128161C161FFF708
:102FE000ADFA002803D0BDE81040FDF77DBC10BD50
:102FF00000140140F8030020FEE70000F0B5564839
:10300000056856489FED560ADFED560A0488438846
:10301000828890F906105048A5F50076AC38013E3C
:1030200019D15FBA3FB201EE107A66BA0680B8EEE7
:10303000C11A57BA80ED011A01EE106A0781817238
:10304000B8EE411A21EE001A21EE201ABCEEC11A88
:1030500011EE106AC672A5F50076023E19D15FBA6C
:103060003FB201EE107A66BA8681B8EEC11A57BA3D
:1030700080ED041A01EE106A87828175B8EE411A5C
:1030800021EE001A21EE201ABCEEC11A11EE106AD0
:10309000C675A5F50076033E1BD15FBA3FB201EEBF
:1030A000107A66BA0683B8EEC11A57BA80ED071ACD
:1030B00001EE106A078480F82210B8EE411A21EE62
:1030C000001A21EE201ABCEEC11A11EE106A80F827
:1030D0002360B5F5017F1BD15BBA1BB201EE103A3C
:1030E00064BA8484B8EEC11A52BA80ED0A1A01EEAD
:1030F000104A828580F82E10B8EE411A21EE000A9F
:1031000020EE200ABCEEC00A10EE101A80F82F1034
:10311000114990ED010A583981ED000A90ED040A39
:1031200081ED010A90ED070A81ED020A90ED0A0A8D
:103130000D4881ED030A90ED000A81ED040A90ED3F
:10314000120A81ED050A90ED240A81ED060A90ED40
:10315000360A81ED070AF0BD8C06002036000020FB
:10316000000000390000B443C4060020FEE7000060
:103170002DE9F0410024051D484EB0F8847027E089
:10318000285DC0283BD012DCA52829D008DC902877
:1031900022D0A02824D0A12822D0A22817D11FE015
:1031A000B02825D0B12823D0B22810D120E0D128D2
:1031B00068D006DCC12822D0C22820D0D02806D171
:1031C00025E0D92852D0E02865D0F02863D0641CCF
:1031D000A742D5DCBDE8F08168783070A41CF7E721
:1031E000281950F8011FC6F802108088F0803BE0D3
:1031F000281950F8011FB1608088B08134E0281987
:1032000050F8011FC6F80E10808870822CE0281933
:103210004178827801EB022109B200EE101A2149AF
:10322000F8EEC00A9FED1E0A80EE801A81ED001AAA
:10323000C278037902EB032212B200EE902AF8EE74
:10324000E00A80EE801AF2EE040A81ED011A42795A
:10325000807902EB002000B200EE100AB8EEC00A3E
:1032600080EE201A81ED021AE41DB1E70D482919FC
:103270000C3851F8012FC2604A68026189680D3428
:103280004161A5E70748291910220C30491CFDF7B8
:1032900082F811349CE7641D9AE700005A00002070
:1032A0000000C842B80A0020F0EE412AB0EE601AD1
:1032B00000B50346F0EE400AB0EE410A483000F097
:1032C00091FED3ED1D0AB0EE620A184600F08AFEA8
:1032D00093ED0B0A83ED240A00BD00002DE9F041B7
:1032E000384C014620462778D0E903200623A61D46
:1032F0000025072F62D2DFE807F004081A1F272AEB
:1033000031005A295BD1012009E080F88810A529F5
:1033100004D0A62905D0A72951D105E002202070AC
:103320004DE0EAB3904749E00560237047E0A0F81C
:103330008410B1700320F2E730F8842F42EA0122B2
:103340000280F1700420EAE761800520E7E76288E7
:1033500042EA012161800560A580E6E70368061D59
:103360005F1C0760995590F88810A72907D101685C
:10337000082904D30821A0F88410904725702069FB
:10338000B0F884200168914219D390F88800A528EC
:1033900015D10C490422891D881E00F0A1FC00E013
:1033A0000CE02169074804C9001D00F099FCA088C1
:1033B0006188884202D1D4E9031088472570002033
:1033C000BDE8F0817000002070B5044D0446E9604E
:1033D0008C21FDF747F82C6170BD000070000020C3
:1033E0007047000000EBC0010A4800EBC100011D5E
:1033F00081EC030A00219FED080A80ED0D0A9FED84
:10340000070A80ED0E0AB2EE040A80ED0F0A80F87A
:1034100044107047C406002000204B4600007A4448
:1034200000EBC0010A4800EBC100011D81EC030A5A
:1034300000219FED080A80ED0D0A9FED070A80ED3F
:103440000E0AB2EE040A80ED0F0A80F844107047AD
:10345000C406002000204B4600409C4500EBC00104
:103460000A4800EBC100011D81EC030A00219FED19
:10347000080A80ED0D0A9FED070A80ED0E0A9FED08
:10348000060A80ED0F0A80F844107047C406002039
:103490000000FA440080BB440000000000EBC001C3
:1034A0000A4800EBC100011D81EC030A00219FEDD9
:1034B000080A80ED0D0A9FED070A80ED0E0AB2EEB4
:1034C000040A80ED0F0A80F844107047C4060020FB
:1034D00000204B4600409C4530B5154C23685D6983
:1034E00045F040055D612368DC6844F01004DC6051
:1034F000104B1C68256825F0010525601C682568AF
:1035000025F0010525601D680B4CAC601C68E0606F
:1035100018680161186842601868016841F48021E8
:1035200001601868016841F00101016030BD0000D0
:10353000B4030020FC0400200444004070B50028BF
:103540003BD00188C1F30A0320490B80427884787C
:10355000D20842EA4412C2F30A024A808478C5784B
:10356000A40944EA8504057944EA8524C4F30A04DD
:103570008C80057946796D0845EAC615C5F30A05BC
:10358000CD804579AD090D724579C5F301154D72B0
:10359000C5888D810589CD8145890D82057B8D7416
:1035A000457BCD74C5898D82008A488108480178A1
:1035B000012903D0C3800281448170BD4FF4806132
:1035C000818141810181C18070BD0000A40500207E
:1035D00028000020264818B4002181702549096878
:1035E0000A68920602D50A684A680092224A12685E
:1035F000D2063BD50A684968204A009111680B68D9
:103600001C030C684FF0240324F001040C6014D454
:1036100014686168C1F1240189B281806360106817
:10362000036843F4002303601068026842F001025B
:10363000026012291AD1124815E011684C68C4F1D1
:103640002404A4B284804B600E4850F8881F21F4F3
:10365000002101601068016841F001010160122C35
:1036600004D10748123018BCFFF768BF18BC704778
:1036700028000020B403002000440040FC04002087
:10368000BA050020006002407047704730B593B023
:1036900030216846FCF7E6FE14210CA8FCF7E2FE98
:1036A0001E480025016841F080510160006800F06B
:1036B000805011901A48016841F48041016000680F
:1036C000022400F480401190012000900004019039
:1036D0008001CDE90640192008904FF4A870CDE98B
:1036E000090404200B906846FEF7C2F908B172B6CF
:1036F000FEE70CA90F2081E831004FF4A0500F9095
:103700004FF48050109005210CA8FEF7A5F8002872
:1037100001D072B6FEE713B030BD00004038024061
:10372000007000400248016841F470010160704778
:1037300088ED00E00148FEF7AABC00005802002016
:103740000148FEF7A4BC0000A00200200148FEF7DB
:103750009EBC00005C050020F0B50268254C264D9B
:10376000264E274F274B4FF0804CA04209D0604592
:1037700007D0A84205D0B04203D0B84201D0984249
:1037800004D122F0700E4A6842EA0E02A0421BD019
:10379000604519D0A84217D0B04215D0B84213D016
:1037A000984211D0184DA8420ED0184DA8420BD007
:1037B000174DA84208D0174DA84205D0164DA84273
:1037C00002D0164DA84203D122F44075CA682A439C
:1037D0004D6922F080022A4302608A68C2620A6848
:1037E0008262A04201D0984201D10969016301219E
:1037F0004161F0BD000001400004004000080040AD
:10380000000C004000040140004001400044014021
:103810000048014000180040001C0040002000400B
:1038200010B5846842EA032224F47F440A43224309
:10383000826010BD826822F070020A4342F00701E4
:103840008160704710B5036A046A24F001040462C1
:10385000846924F0F00444EA021423F00A020A43C3
:103860008461026210BD10B5036A23F01003036285
:103870008369046A23F4704343EA023224F0A0030C
:1038800043EA01118261016210BD000010B500F031
:1038900037FDBDE810400148FEF71CBDE8020020DE
:1038A0001CB50B4C2068006880060DD51023012242
:1038B00069462046FEF7C0FF9DF80000FFF70EFDA9
:1038C00020680168406801900148FEF703FD1CBDB7
:1038D0002C03002010B5806B0021C185C184FEF748
:1038E000F7FC10BD01680C3151E8002F22F49072F2
:1038F00041E80023002BF5D10168143151E8002F75
:1039000022F0010241E80023002BF5D1016B0129CF
:1039100009D101680C3151E8002F22F0100241E872
:103920000023002BF5D1202180F83E1000210163F7
:10393000704708B590F83E10222901D0022008BD3A
:1039400082684FF480539A4201D1016921B1816AA2
:103950009A421BD04AB10AE00268816A5268C2F3F7
:1039600008020A80816A891C08E0026972B1026853
:10397000526802F07F020A70816A491C8162C18D1F
:10398000491E0904090CC18503D019E00268526878
:10399000F1E70168CA6822F02002CA600168CA68BB
:1039A00022F48072CA6001684A6922F001024A6109
:1039B000202180F83E10016B012903D0FEF79CFF07
:1039C000002008BD0021016301680C3151E8002F7F
:1039D00022F0100241E80023002BF5D101680A68AB
:1039E000D20602D50A6849680091818DFEF76FFC06
:1039F000E6E7000070B5044600680169E26821F45A
:103A00004051114301612169A068E269084361697D
:103A1000114308432168CA6849F20C639A43024380
:103A2000CA6020684169A26921F440711143416173
:103A300031492068884202D03049884202D1FDF7DE
:103A4000D5FF01E0FDF7C2FFE269002319216425DB
:103A50003226B2F5004F626828D0A0FB0101930F17
:103A60009200FCF721FC0146B0FBF5F06FF0180264
:103A7000504301EB800006EB0010B0FBF5F000F0C6
:103A8000F002B1FBF5F002EB0012B1FBF5F06FF0C4
:103A90001803584301EB800006EB0010B0FBF5F073
:103AA00000F00F0021681044886070BDA0FB010188
:103AB00092185B41FCF7F8FB0146B0FBF5F0020100
:103AC000B1FBF5F06FF01803584301EB800006EBF3
:103AD000C000B0FBF5F000F0F80002EB4002B1FBD3
:103AE000F5F0584301EB800006EBC000B0FBF5F0A9
:103AF00000F00700D6E7000000100140001401406C
:103B00002DE9F041984617460E460446069D27E0EB
:103B1000681C25D02DB1FDF7D3FDA0EB0800A8420D
:103B20001ED920680C3050E8001F21F4D07140E805
:103B30000012002AF5D12068143050E8001F21F04F
:103B4000010140E80012002AF5D1202084F83D0050
:103B500084F83E00002084F83C000320BDE8F0819A
:103B60002068006836EA000004D00020B842CFD0B8
:103B70000020F3E70120F9E710B500F045FBBDE8B0
:103B800010400148FEF7A6BB7003002010B5FFF7F8
:103B900021FDBDE810400148FEF79CBBB4030020A6
:103BA0000148FEF797BB0000F8030020FEE7000085
:103BB00030B50C46050014D0022C12D90A48A11EBB
:103BC00002882846FCF7FCFE2919C2B211F8023C13
:103BD0009A4206D111F8011CB1EB102F01D101203E
:103BE00030BD002030BD00005800002030B50C462C
:103BF00005000AD0022C08D9FF22611EFCF7F6FE50
:103C0000291911F8011C814201D1012030BD002089
:103C100030BD0000114B10B51A68546944F04004DF
:103C200054611A68D36843F01003D3600C4A1368D8
:103C30001C6824F001041C6013681C6824F0010453
:103C40001C601468074BA3601368D860106841605B
:103C50001068016841F00101016010BDE802002018
:103C60003C040020044C00400907090E002804DB36
:103C700000F1E02080F80014704700F00F0000F120
:103C8000E02080F8141D704700B58BB000200121A2
:103C9000CDE90601089100900190029003900590F3
:103CA000049069460C48FCF72FFF0B48FDF748FAD3
:103CB00002210948FCF7A8FE0E20099005906946EC
:103CC0000648FCF721FF0548FDF73AFA02210348B0
:103CD000FCF79AFE0BB000BD080200203002002065
:103CE000F0B50388002541F221070CE04C5D002669
:103CF00083EA04235C001B0400D57C40761C234629
:103D0000082EF7D36D1C9542F0D30380F0BD000060
:103D1000024B0ECB80E80E0000207047B80A00204E
:103D20000249097801700020704700005A00002005
:103D300010B5034C1ECC80E81E00002010BD000012
:103D4000C40A00200349D1F802200260C98881809A
:103D5000002070475A00002003498A680260898960
:103D600081800020704700005A0000200349D1F8EC
:103D70000E200260498A8180002070475A0000208E
:103D80002DE9F047554D564C2DED028B687A0328EE
:103D900003D054480078012808D10020FEF77AFEAD
:103DA0000020FEF759FE002020806080287ADFF88E
:103DB00038919FED4E8A4E4E0A27DFF83881012850
:103DC00004D0032812D0022820D03CE0687A0128D1
:103DD00060D1B6F90400D8ED020A90FBF7F000EECE
:103DE000100AB8EEC01AB0EE480A1EE0687A012840
:103DF00060D1B6F90400D8ED020A90FBF7F000EEAE
:103E0000100AB8EEC01ABBEE040A0EE0687A012868
:103E100020D1B6F90400D8ED020A90FBF7F000EECD
:103E2000100AB8EEC01A9FED340A2F489438FFF7F5
:103E30003BFAB1EE400ABDEEC00A10EE100A00B225
:103E40002080FEF727FE287A012823D0032831D0CE
:103E500002283FD1687A02283CD1B6F90200D8ED99
:103E6000000A90FBF7F000EE100AB8EEC01AB0EEB0
:103E7000480A4846FFF718FAB1EE400ABDEEC00AFC
:103E800010EE100A00B26080BDEC028BBDE8F04776
:103E9000FEF7E2BD687A02281CD1B6F90200D8ED1F
:103EA000000A90FBF7F000EE100AB8EEC01AB3EE6D
:103EB000040ADEE7687A02280CD1B6F90200D8EDD0
:103EC000000A90FBF7F000EE100AB8EEC01AB2EE4E
:103ED000040ACEE7BDEC028BBDE8F087A405002004
:103EE0004E0000202B000020980900200000000058
:103EF00008000020EC010020000020C210B503499A
:103F00000348FFF761FA002010BD0000713100087E
:103F10002C0A0020FDF7E2FBFFF7B8FBFEF748FF95
:103F2000FEF718FFFEF7F6FFFEF7D8FFFFF70EF8D3
:103F3000FFF746F8FEF76AFFFEF79CFFFEF7C2FEAA
:103F4000FEF7E4FEFFF71EF8FFF7D8FF1548FDF770
:103F5000EFFF1548FDF7ECFF14480068C16841F019
:103F60002001C16012480068C16841F01001C160C1
:103F700010480068C16841F01001C16064210E481A
:103F800000F06EF90D492422A1F11200FFF7A4FA06
:103F9000FFF77AFE00F0B2F806210948FFF73AFE73
:103FA000FEE7000058020020A00200202C030020A1
:103FB000E802002070030020B00B0020CC05002098
:103FC0008800002006488178491CC9B281700A29FE
:103FD00003D30A218170012100E00021C1707047E4
:103FE0002800002080ED040A90ED051A30EEC00A8A
:103FF00080ED061AC0ED000A80ED050A90F8441025
:10400000012913D110EE101A394ADFED3A0A914214
:1040100003DB30EE600A80ED050A10EE101A364A16
:10402000914203D330EE200A80ED050A90ED0B0A91
:1040300080ED0C0A90ED050AB5EEC00AF1EE10FA1B
:1040400002DDF0EE400A01E0F1EE400AD0ED0F1A79
:10405000F4EEE10AF1EE10FA46DDD0ED010A60EE71
:10406000801AC0ED081AD0ED090A90ED022A42EE3E
:10407000000A30EE410AC0ED090A90ED031A20EE65
:10408000011A80ED0A1A90ED0E0AF4EEC00AF1EE64
:1040900010FA01DD80ED090AD0ED090AB1EE400AFF
:1040A000F4EEC00AF1EE10FA02D3B0EE600A01E0BD
:1040B00080ED090A31EE800A70EE010AC0ED0B0AAC
:1040C00090ED0D0AF4EEC00AF1EE10FA01DD80ED7C
:1040D0000B0AD0ED0B0AB1EE400AF4EEC00AF1EE85
:1040E00010FA01D280ED0B0A90ED0B0A7047000028
:1040F0000000B4420000B4430000B4C210B5B2EEF8
:10410000020A2DED028B00209FED368ADFED368A04
:10411000B0EE481AF0EE680AFFF764F9B0EE481AFC
:10412000DFED320AB1EE0C0A0120FFF75BF9B0EEC9
:10413000481AF0EE680A9FED2E0A0220FFF752F9A6
:10414000B0EE481AF0EE680AB1EE0C0A0320FFF751
:1041500049F9B0EE481AF0EE480AB1EE040A04201C
:10416000FFF77CF9F0EE482AB0EE482AF2EE041A86
:10417000B0EE481ADFED1F0A9FED1F0A0020FCF782
:104180007FFBF0EE482AB0EE482AF2EE0C1AB0EEB1
:10419000481ADFED1A0A9FED1A0A0120FCF770FB9E
:1041A000DFED188AB0EE481AB0EE080AF0EE680AA1
:1041B0000520FFF773F9B0EE481AF0EE680AB0EE8A
:1041C000080A0620FFF76AF9B0EE481AF0EE480A2E
:1041D000BDEC028BB0EE0C0ABDE810400720FFF7E3
:1041E0001FB90000000000000AD7233C0AD7A33BF8
:1041F0009A99D940CDCC4C3D0000AF430AD7A33D9E
:10420000000048430AD7A33C38B51048016810495C
:104210004068C8600F480068016840680E4C009014
:104220002068016821F0010101600C48FEF750FC94
:10423000C8210A48FCF7F4F82168C82048602068C3
:10424000016841F00101016038BD0000001001402B
:1042500090000020700300209C040020B00B002080
:10426000114B10B51A68546944F0400454611A683F
:10427000D36843F01003D3600C4A13681C6824F021
:1042800001041C6013681C6824F001041C6014689D
:10429000074BA3601368D86010684160106801681C
:1042A00041F00101016010BD700300209C0400205A
:1042B000041001402DE9F843804610A0164600681E
:1042C0000F4600244FF6FF75009007E039192B4682
:1042D00001224046FEF712FB641CE4B2B442F5DB57
:1042E00000246E4631192B4601224046FEF706FB9C
:1042F000641CE4B2042CF5D3BDE8F8830000807F91
:104300000E4808B5006800230168406800900C481A
:1043100001680A6822F001020A6002680A215160FD
:104320000068016841F00101016000F00DF80548E6
:10433000C37083704370037008BD0000E802002062
:104340003C040020880000201E491F480A78802A6B
:1043500002D14A797F2A06D09FED1C0A80ED010A1E
:1043600080ED020A70474A7802708A784270CA78F3
:1043700082700979C1700188DFED150A49BA09B266
:1043800000EE101A0F49DFED141AB8EEC00A091F2B
:1043900060EE200A9FED0F0A80EE801AD1ED000A30
:1043A00021EE201A80ED011A418849BA09B201EEC6
:1043B000101AB8EEC11A21EE211AC1EE001A21EE30
:1043C000A00ACDE788000020D40A002000000000E9
:1043D0000000B44200FEFF460000B4C2F8B58020E1
:1043E0008DF8000001208DF801000F208DF80200EB
:1043F0007F208DF8030000246D464FF6FF762919C3
:10440000334601220348FEF779FA641CE4B2042C17
:10441000F5D3F8BDE8020020144910B50A88144805
:10442000A2F57E72102A1DD84A884FF47E739A42F4
:1044300018D34FF48164A24214D88A889A4211D3C7
:10444000A2420FD8C98899420CD3A1420AD8417818
:10445000491CC9B241700A2903D3012101700A2104
:10446000417010BD00214170017010BDA4050020F5
:10447000280000204FF04070E1EE100A704700065F
:1044800010160006101600000000000000000102D7
:104490000304060708090000000001020304005E8F
:1044A000BCE2613FDD83C29C7E20A3FD1F419DC312
:1044B000217FFCA2401E5F01E3BD3E6082DC237DC4
:1044C0009FC1421CFEA0E1BF5D0380DE3C62BEE0F6
:1044D000025CDF81633D7C22C09E1D43A1FF461824
:1044E000FAA427799BC584DA3866E5BB5907DB85D2
:1044F0006739BAE406581947A5FB7826C49A653B84
:10450000D987045AB8E6A7F91B45C6987A24F8A6B5
:10451000441A99C7257B3A6486D85B05E7B98CD2E3
:10452000306EEDB3510F4E10F2AC2F7193CD114F91
:10453000ADF3702ECC92D38D6F31B2EC0E50AFF143
:10454000134DCE90722C6D33D18F0C52B0EE326C75
:104550008ED0530DEFB1F0AE4C1291CF2D73CA94A3
:104560007628ABF517490856B4EA6937D58B570951
:10457000EBB536688AD495CB2977F4AA4816E9B703
:10458000550B88D6346A2B7597C94A14F6A8742A35
:10459000C896154BA9F7B6E80A54D7896B350000C1
:1045A000891112239B322446AD573665BF74488C5F
:1045B000C19D5AAFD3BE6CCAE5DB7EE9F7F8811026
:1045C000080193331A22A5562C47B7753E64C99C3F
:1045D000408DDBBF52AEEDDA64CBFFF976E8022105
:1045E0008B30100299132667AF763444BD554AAD1F
:1045F000C3BC588ED19F6EEBE7FA7CC8F5D98331E6
:104600000A2091121803A7772E66B5543C45CBBDFE
:1046100042ACD99E508FEFFB66EAFDD874C90442C4
:104620008D5316619F702004A9153227BB364CCEDE
:10463000C5DF5EEDD7FC6888E1997AABF3BA8552A5
:104640000C4397711E60A1142805B3373A26CDDEBE
:1046500044CFDFFD56ECE9986089FBBB72AA066384
:104660008F7214409D512225AB343006B9174EEF9E
:10467000C7FE5CCCD5DD6AA9E3B8788AF19B877365
:104680000E6295501C41A3352A24B1163807CFFF7E
:1046900046EEDDDC54CDEBB962A8F99A708B088444
:1046A00081951AA793B62CC2A5D33EE1B7F0400876
:1046B000C919522BDB3A644EED5F766DFF7C89940D
:1046C00000859BB712A6ADD224C3BFF136E0C11856
:1046D0004809D33B5A2AE55E6C4FF77D7E6C0AA5EC
:1046E00083B4188691972EE3A7F23CC0B5D1422936
:1046F000CB38500AD91B666FEF7E744CFD5D8BB5CD
:1047000002A499961087AFF326E2BDD034C1C33915
:104710004A28D11A580BE77F6E6EF55C7C4D0CC6AB
:1047200085D71EE597F42880A1913AA3B3B2444AF5
:10473000CD5B5669DF78600CE91D722FFB3E8DD68C
:1047400004C79FF516E4A9902081BBB332A2C55AD5
:104750004C4BD7795E68E11C680DF33F7A2E0EE76B
:1047600087F61CC495D52AA1A3B03882B193466BB5
:10477000CF7A5448DD59622DEB3C700EF91F8FF74C
:1047800006E69DD414C5ABB122A0B9923083C77B95
:104790004E6AD5585C49E33D6A2CF11E780F000043
:1047A000C047000800000020DC010000C401000830
:1047B00040480008DC0100204416000020020008E8
:1047C000011832018210033124F4031CFFFFC35A85
:1047D000A505189A99993E23C0032BD00224043FC3
:1047E0009A420A7A20010E17434C49503A1E0D1482
:1047F0005350494E1EE8096175746F5F61696D1E03
:10480000E80F73686F6F74686561746C696D6974C3
:104810001E07183A626C6F636B000E113A62756C7A
:104820006C65745F7370656564080F1873757065E7
:1048300072636170616369746F72B4091201000080
:040000050800018965
:00000001FF
